{"abi":[{"type":"constructor","inputs":[{"name":"vegaToken","type":"address","internalType":"address"}],"stateMutability":"nonpayable"},{"type":"function","name":"TryToEndVoteByDeadline","inputs":[{"name":"voteId","type":"uint256","internalType":"uint256"}],"outputs":[],"stateMutability":"nonpayable"},{"type":"function","name":"approve","inputs":[{"name":"to","type":"address","internalType":"address"},{"name":"tokenId","type":"uint256","internalType":"uint256"}],"outputs":[],"stateMutability":"nonpayable"},{"type":"function","name":"balanceOf","inputs":[{"name":"owner","type":"address","internalType":"address"}],"outputs":[{"name":"","type":"uint256","internalType":"uint256"}],"stateMutability":"view"},{"type":"function","name":"createVote","inputs":[{"name":"description","type":"string","internalType":"string"},{"name":"duration","type":"uint256","internalType":"uint256"},{"name":"threshold","type":"uint256","internalType":"uint256"}],"outputs":[],"stateMutability":"nonpayable"},{"type":"function","name":"endVote","inputs":[{"name":"voteId","type":"uint256","internalType":"uint256"}],"outputs":[],"stateMutability":"nonpayable"},{"type":"function","name":"getApproved","inputs":[{"name":"tokenId","type":"uint256","internalType":"uint256"}],"outputs":[{"name":"","type":"address","internalType":"address"}],"stateMutability":"view"},{"type":"function","name":"isApprovedForAll","inputs":[{"name":"owner","type":"address","internalType":"address"},{"name":"operator","type":"address","internalType":"address"}],"outputs":[{"name":"","type":"bool","internalType":"bool"}],"stateMutability":"view"},{"type":"function","name":"name","inputs":[],"outputs":[{"name":"","type":"string","internalType":"string"}],"stateMutability":"view"},{"type":"function","name":"nextNftId","inputs":[],"outputs":[{"name":"","type":"uint256","internalType":"uint256"}],"stateMutability":"view"},{"type":"function","name":"nextVoteId","inputs":[],"outputs":[{"name":"","type":"uint256","internalType":"uint256"}],"stateMutability":"view"},{"type":"function","name":"owner","inputs":[],"outputs":[{"name":"","type":"address","internalType":"address"}],"stateMutability":"view"},{"type":"function","name":"ownerOf","inputs":[{"name":"tokenId","type":"uint256","internalType":"uint256"}],"outputs":[{"name":"","type":"address","internalType":"address"}],"stateMutability":"view"},{"type":"function","name":"renounceOwnership","inputs":[],"outputs":[],"stateMutability":"nonpayable"},{"type":"function","name":"safeTransferFrom","inputs":[{"name":"from","type":"address","internalType":"address"},{"name":"to","type":"address","internalType":"address"},{"name":"tokenId","type":"uint256","internalType":"uint256"}],"outputs":[],"stateMutability":"nonpayable"},{"type":"function","name":"safeTransferFrom","inputs":[{"name":"from","type":"address","internalType":"address"},{"name":"to","type":"address","internalType":"address"},{"name":"tokenId","type":"uint256","internalType":"uint256"},{"name":"data","type":"bytes","internalType":"bytes"}],"outputs":[],"stateMutability":"nonpayable"},{"type":"function","name":"setApprovalForAll","inputs":[{"name":"operator","type":"address","internalType":"address"},{"name":"approved","type":"bool","internalType":"bool"}],"outputs":[],"stateMutability":"nonpayable"},{"type":"function","name":"stakes","inputs":[{"name":"","type":"address","internalType":"address"},{"name":"","type":"uint256","internalType":"uint256"}],"outputs":[{"name":"amount","type":"uint256","internalType":"uint256"},{"name":"period","type":"uint256","internalType":"uint256"},{"name":"votingPower","type":"uint256","internalType":"uint256"},{"name":"startTime","type":"uint256","internalType":"uint256"},{"name":"active","type":"bool","internalType":"bool"}],"stateMutability":"view"},{"type":"function","name":"supportsInterface","inputs":[{"name":"interfaceId","type":"bytes4","internalType":"bytes4"}],"outputs":[{"name":"","type":"bool","internalType":"bool"}],"stateMutability":"view"},{"type":"function","name":"symbol","inputs":[],"outputs":[{"name":"","type":"string","internalType":"string"}],"stateMutability":"view"},{"type":"function","name":"tokenURI","inputs":[{"name":"tokenId","type":"uint256","internalType":"uint256"}],"outputs":[{"name":"","type":"string","internalType":"string"}],"stateMutability":"view"},{"type":"function","name":"transferFrom","inputs":[{"name":"from","type":"address","internalType":"address"},{"name":"to","type":"address","internalType":"address"},{"name":"tokenId","type":"uint256","internalType":"uint256"}],"outputs":[],"stateMutability":"nonpayable"},{"type":"function","name":"transferOwnership","inputs":[{"name":"newOwner","type":"address","internalType":"address"}],"outputs":[],"stateMutability":"nonpayable"},{"type":"function","name":"unstakeTokens","inputs":[{"name":"stakeIndex","type":"uint256","internalType":"uint256"}],"outputs":[],"stateMutability":"nonpayable"},{"type":"function","name":"vegaVoteToken","inputs":[],"outputs":[{"name":"","type":"address","internalType":"contract IERC20"}],"stateMutability":"view"},{"type":"function","name":"vote","inputs":[{"name":"amount","type":"uint256","internalType":"uint256"},{"name":"period","type":"uint256","internalType":"uint256"},{"name":"voteId","type":"uint256","internalType":"uint256"},{"name":"choice","type":"bool","internalType":"bool"}],"outputs":[],"stateMutability":"nonpayable"},{"type":"function","name":"votes","inputs":[{"name":"","type":"uint256","internalType":"uint256"}],"outputs":[{"name":"description","type":"string","internalType":"string"},{"name":"deadline","type":"uint256","internalType":"uint256"},{"name":"threshold","type":"uint256","internalType":"uint256"},{"name":"yesVotes","type":"uint256","internalType":"uint256"},{"name":"noVotes","type":"uint256","internalType":"uint256"},{"name":"finalized","type":"bool","internalType":"bool"}],"stateMutability":"view"},{"type":"event","name":"Approval","inputs":[{"name":"owner","type":"address","indexed":true,"internalType":"address"},{"name":"approved","type":"address","indexed":true,"internalType":"address"},{"name":"tokenId","type":"uint256","indexed":true,"internalType":"uint256"}],"anonymous":false},{"type":"event","name":"ApprovalForAll","inputs":[{"name":"owner","type":"address","indexed":true,"internalType":"address"},{"name":"operator","type":"address","indexed":true,"internalType":"address"},{"name":"approved","type":"bool","indexed":false,"internalType":"bool"}],"anonymous":false},{"type":"event","name":"BatchMetadataUpdate","inputs":[{"name":"_fromTokenId","type":"uint256","indexed":false,"internalType":"uint256"},{"name":"_toTokenId","type":"uint256","indexed":false,"internalType":"uint256"}],"anonymous":false},{"type":"event","name":"MetadataUpdate","inputs":[{"name":"_tokenId","type":"uint256","indexed":false,"internalType":"uint256"}],"anonymous":false},{"type":"event","name":"NFTMinted","inputs":[{"name":"nftId","type":"uint256","indexed":true,"internalType":"uint256"},{"name":"metadataURI","type":"string","indexed":false,"internalType":"string"}],"anonymous":false},{"type":"event","name":"OwnershipTransferred","inputs":[{"name":"previousOwner","type":"address","indexed":true,"internalType":"address"},{"name":"newOwner","type":"address","indexed":true,"internalType":"address"}],"anonymous":false},{"type":"event","name":"TokensUnstaked","inputs":[{"name":"user","type":"address","indexed":true,"internalType":"address"},{"name":"amount","type":"uint256","indexed":false,"internalType":"uint256"}],"anonymous":false},{"type":"event","name":"Transfer","inputs":[{"name":"from","type":"address","indexed":true,"internalType":"address"},{"name":"to","type":"address","indexed":true,"internalType":"address"},{"name":"tokenId","type":"uint256","indexed":true,"internalType":"uint256"}],"anonymous":false},{"type":"event","name":"VoteCreated","inputs":[{"name":"voteId","type":"uint256","indexed":true,"internalType":"uint256"},{"name":"description","type":"string","indexed":false,"internalType":"string"},{"name":"deadline","type":"uint256","indexed":false,"internalType":"uint256"},{"name":"threshold","type":"uint256","indexed":false,"internalType":"uint256"}],"anonymous":false},{"type":"event","name":"VoteFinalized","inputs":[{"name":"voteId","type":"uint256","indexed":true,"internalType":"uint256"},{"name":"passed","type":"bool","indexed":false,"internalType":"bool"}],"anonymous":false},{"type":"event","name":"Voted","inputs":[{"name":"voter","type":"address","indexed":true,"internalType":"address"},{"name":"voteId","type":"uint256","indexed":true,"internalType":"uint256"},{"name":"choice","type":"bool","indexed":false,"internalType":"bool"},{"name":"power","type":"uint256","indexed":false,"internalType":"uint256"}],"anonymous":false},{"type":"error","name":"ERC721IncorrectOwner","inputs":[{"name":"sender","type":"address","internalType":"address"},{"name":"tokenId","type":"uint256","internalType":"uint256"},{"name":"owner","type":"address","internalType":"address"}]},{"type":"error","name":"ERC721InsufficientApproval","inputs":[{"name":"operator","type":"address","internalType":"address"},{"name":"tokenId","type":"uint256","internalType":"uint256"}]},{"type":"error","name":"ERC721InvalidApprover","inputs":[{"name":"approver","type":"address","internalType":"address"}]},{"type":"error","name":"ERC721InvalidOperator","inputs":[{"name":"operator","type":"address","internalType":"address"}]},{"type":"error","name":"ERC721InvalidOwner","inputs":[{"name":"owner","type":"address","internalType":"address"}]},{"type":"error","name":"ERC721InvalidReceiver","inputs":[{"name":"receiver","type":"address","internalType":"address"}]},{"type":"error","name":"ERC721InvalidSender","inputs":[{"name":"sender","type":"address","internalType":"address"}]},{"type":"error","name":"ERC721NonexistentToken","inputs":[{"name":"tokenId","type":"uint256","internalType":"uint256"}]},{"type":"error","name":"OwnableInvalidOwner","inputs":[{"name":"owner","type":"address","internalType":"address"}]},{"type":"error","name":"OwnableUnauthorizedAccount","inputs":[{"name":"account","type":"address","internalType":"address"}]}],"bytecode":{"object":"0x608060405234801561000f575f5ffd5b5060405161468e38038061468e833981810160405281019061003191906102a5565b6040518060400160405280600c81526020017f566f74696e67526573756c7400000000000000000000000000000000000000008152506040518060400160405280600481526020017f5647565400000000000000000000000000000000000000000000000000000000815250335f73ffffffffffffffffffffffffffffffffffffffff168173ffffffffffffffffffffffffffffffffffffffff160361010e575f6040517f1e4fbdf700000000000000000000000000000000000000000000000000000000815260040161010591906102df565b60405180910390fd5b61011d8161018660201b60201c565b50816001908161012d9190610535565b50806002908161013d9190610535565b5050508060085f6101000a81548173ffffffffffffffffffffffffffffffffffffffff021916908373ffffffffffffffffffffffffffffffffffffffff16021790555050610604565b5f5f5f9054906101000a900473ffffffffffffffffffffffffffffffffffffffff169050815f5f6101000a81548173ffffffffffffffffffffffffffffffffffffffff021916908373ffffffffffffffffffffffffffffffffffffffff1602179055508173ffffffffffffffffffffffffffffffffffffffff168173ffffffffffffffffffffffffffffffffffffffff167f8be0079c531659141344cd1fd0a4f28419497f9722a3daafe3b4186f6b6457e060405160405180910390a35050565b5f5ffd5b5f73ffffffffffffffffffffffffffffffffffffffff82169050919050565b5f6102748261024b565b9050919050565b6102848161026a565b811461028e575f5ffd5b50565b5f8151905061029f8161027b565b92915050565b5f602082840312156102ba576102b9610247565b5b5f6102c784828501610291565b91505092915050565b6102d98161026a565b82525050565b5f6020820190506102f25f8301846102d0565b92915050565b5f81519050919050565b7f4e487b71000000000000000000000000000000000000000000000000000000005f52604160045260245ffd5b7f4e487b71000000000000000000000000000000000000000000000000000000005f52602260045260245ffd5b5f600282049050600182168061037357607f821691505b6020821081036103865761038561032f565b5b50919050565b5f819050815f5260205f209050919050565b5f6020601f8301049050919050565b5f82821b905092915050565b5f600883026103e87fffffffffffffffffffffffffffffffffffffffffffffffffffffffffffffffff826103ad565b6103f286836103ad565b95508019841693508086168417925050509392505050565b5f819050919050565b5f819050919050565b5f61043661043161042c8461040a565b610413565b61040a565b9050919050565b5f819050919050565b61044f8361041c565b61046361045b8261043d565b8484546103b9565b825550505050565b5f5f905090565b61047a61046b565b610485818484610446565b505050565b5b818110156104a85761049d5f82610472565b60018101905061048b565b5050565b601f8211156104ed576104be8161038c565b6104c78461039e565b810160208510156104d6578190505b6104ea6104e28561039e565b83018261048a565b50505b505050565b5f82821c905092915050565b5f61050d5f19846008026104f2565b1980831691505092915050565b5f61052583836104fe565b9150826002028217905092915050565b61053e826102f8565b67ffffffffffffffff81111561055757610556610302565b5b610561825461035c565b61056c8282856104ac565b5f60209050601f83116001811461059d575f841561058b578287015190505b610595858261051a565b8655506105fc565b601f1984166105ab8661038c565b5f5b828110156105d2578489015182556001820191506020850194506020810190506105ad565b868310156105ef57848901516105eb601f8916826104fe565b8355505b6001600288020188555050505b505050505050565b61407d806106115f395ff3fe608060405234801561000f575f5ffd5b506004361061018c575f3560e01c8063715018a6116100dc5780639da4a42611610095578063c87b56dd1161006f578063c87b56dd14610471578063e207d04d146104a1578063e985e9c5146104bf578063f2fde38b146104ef5761018c565b80639da4a4261461041d578063a22cb46514610439578063b88d4fde146104555761018c565b8063715018a6146103815780637feb2d031461038b578063865df0ad146103a75780638da5cb5b146103c357806393f1da4f146103e157806395d89b41146103ff5761018c565b806341ee31ff116101495780635df81330116101235780635df81330146102d0578063608e4dd0146103055780636352211e1461032157806370a08231146103515761018c565b806341ee31ff1461026257806342842e0e14610280578063584b62a11461029c5761018c565b806301ffc9a714610190578063029fc3e8146101c057806306fdde03146101dc578063081812fc146101fa578063095ea7b31461022a57806323b872dd14610246575b5f5ffd5b6101aa60048036038101906101a5919061282e565b61050b565b6040516101b79190612873565b60405180910390f35b6101da60048036038101906101d591906129fb565b61056b565b005b6101e461067d565b6040516101f19190612ac7565b60405180910390f35b610214600480360381019061020f9190612ae7565b61070d565b6040516102219190612b51565b60405180910390f35b610244600480360381019061023f9190612b94565b610728565b005b610260600480360381019061025b9190612bd2565b61073e565b005b61026a61083d565b6040516102779190612c7d565b60405180910390f35b61029a60048036038101906102959190612bd2565b610862565b005b6102b660048036038101906102b19190612b94565b610881565b6040516102c7959493929190612ca5565b60405180910390f35b6102ea60048036038101906102e59190612ae7565b6108d9565b6040516102fc96959493929190612cf6565b60405180910390f35b61031f600480360381019061031a9190612ae7565b6109a3565b005b61033b60048036038101906103369190612ae7565b610c85565b6040516103489190612b51565b60405180910390f35b61036b60048036038101906103669190612d5c565b610c96565b6040516103789190612d87565b60405180910390f35b610389610d4c565b005b6103a560048036038101906103a09190612dca565b610d5f565b005b6103c160048036038101906103bc9190612ae7565b61113c565b005b6103cb611307565b6040516103d89190612b51565b60405180910390f35b6103e961132e565b6040516103f69190612d87565b60405180910390f35b610407611334565b6040516104149190612ac7565b60405180910390f35b61043760048036038101906104329190612ae7565b6113c4565b005b610453600480360381019061044e9190612e2e565b6113d8565b005b61046f600480360381019061046a9190612f0a565b6113ee565b005b61048b60048036038101906104869190612ae7565b611413565b6040516104989190612ac7565b60405180910390f35b6104a961151e565b6040516104b69190612d87565b60405180910390f35b6104d960048036038101906104d49190612f8a565b611524565b6040516104e69190612873565b60405180910390f35b61050960048036038101906105049190612d5c565b6115b2565b005b5f634906490660e01b7bffffffffffffffffffffffffffffffffffffffffffffffffffffffff1916827bffffffffffffffffffffffffffffffffffffffffffffffffffffffff19161480610564575061056382611636565b5b9050919050565b610573611717565b5f82426105809190612ff5565b90506040518060c001604052808581526020018281526020018381526020015f81526020015f81526020015f1515815250600b5f60095481526020019081526020015f205f820151815f0190816105d7919061321c565b506020820151816001015560408201518160020155606082015181600301556080820151816004015560a0820151816005015f6101000a81548160ff0219169083151502179055509050506009547f6912e5abe531ca5f3b6f973f97278ab6731cdec0178a7b3c2c7a5822a3f1732b858385604051610658939291906132eb565b60405180910390a260095f81548092919061067290613327565b919050555050505050565b60606001805461068c90613055565b80601f01602080910402602001604051908101604052809291908181526020018280546106b890613055565b80156107035780601f106106da57610100808354040283529160200191610703565b820191905f5260205f20905b8154815290600101906020018083116106e657829003601f168201915b5050505050905090565b5f6107178261179e565b5061072182611824565b9050919050565b61073a828261073561185d565b611864565b5050565b5f73ffffffffffffffffffffffffffffffffffffffff168273ffffffffffffffffffffffffffffffffffffffff16036107ae575f6040517f64a0ae920000000000000000000000000000000000000000000000000000000081526004016107a59190612b51565b60405180910390fd5b5f6107c183836107bc61185d565b611876565b90508373ffffffffffffffffffffffffffffffffffffffff168173ffffffffffffffffffffffffffffffffffffffff1614610837578382826040517f64283d7b00000000000000000000000000000000000000000000000000000000815260040161082e9392919061336e565b60405180910390fd5b50505050565b60085f9054906101000a900473ffffffffffffffffffffffffffffffffffffffff1681565b61087c83838360405180602001604052805f8152506113ee565b505050565b600c602052815f5260405f20818154811061089a575f80fd5b905f5260205f2090600502015f9150915050805f015490806001015490806002015490806003015490806004015f9054906101000a900460ff16905085565b600b602052805f5260405f205f91509050805f0180546108f890613055565b80601f016020809104026020016040519081016040528092919081815260200182805461092490613055565b801561096f5780601f106109465761010080835404028352916020019161096f565b820191905f5260205f20905b81548152906001019060200180831161095257829003601f168201915b505050505090806001015490806002015490806003015490806004015490806005015f9054906101000a900460ff16905086565b600c5f3373ffffffffffffffffffffffffffffffffffffffff1673ffffffffffffffffffffffffffffffffffffffff1681526020019081526020015f2080549050811080156109f257505f8110155b610a31576040517f08c379a0000000000000000000000000000000000000000000000000000000008152600401610a28906133ed565b60405180910390fd5b5f600c5f3373ffffffffffffffffffffffffffffffffffffffff1673ffffffffffffffffffffffffffffffffffffffff1681526020019081526020015f208281548110610a8157610a8061340b565b5b905f5260205f2090600502019050806004015f9054906101000a900460ff16610adf576040517f08c379a0000000000000000000000000000000000000000000000000000000008152600401610ad690613482565b60405180910390fd5b80600101548160030154610af39190612ff5565b421015610b35576040517f08c379a0000000000000000000000000000000000000000000000000000000008152600401610b2c906134ea565b60405180910390fd5b5f815f015490505f826004015f6101000a81548160ff02191690831515021790555060085f9054906101000a900473ffffffffffffffffffffffffffffffffffffffff1673ffffffffffffffffffffffffffffffffffffffff1663a9059cbb33836040518363ffffffff1660e01b8152600401610bb3929190613508565b6020604051808303815f875af1158015610bcf573d5f5f3e3d5ffd5b505050506040513d601f19601f82011682018060405250810190610bf39190613543565b610c32576040517f08c379a0000000000000000000000000000000000000000000000000000000008152600401610c29906135b8565b60405180910390fd5b3373ffffffffffffffffffffffffffffffffffffffff167f9845e367b683334e5c0b12d7b81721ac518e649376fa65e3d68324e8f34f267982604051610c789190612d87565b60405180910390a2505050565b5f610c8f8261179e565b9050919050565b5f5f73ffffffffffffffffffffffffffffffffffffffff168273ffffffffffffffffffffffffffffffffffffffff1603610d07575f6040517f89c62b64000000000000000000000000000000000000000000000000000000008152600401610cfe9190612b51565b60405180910390fd5b60045f8373ffffffffffffffffffffffffffffffffffffffff1673ffffffffffffffffffffffffffffffffffffffff1681526020019081526020015f20549050919050565b610d54611717565b610d5d5f611a81565b565b5f8310158015610d7357506307861f808311155b610db2576040517f08c379a0000000000000000000000000000000000000000000000000000000008152600401610da990613620565b60405180910390fd5b60085f9054906101000a900473ffffffffffffffffffffffffffffffffffffffff1673ffffffffffffffffffffffffffffffffffffffff166323b872dd3330876040518463ffffffff1660e01b8152600401610e109392919061363e565b6020604051808303815f875af1158015610e2c573d5f5f3e3d5ffd5b505050506040513d601f19601f82011682018060405250810190610e509190613543565b610e8f576040517f08c379a0000000000000000000000000000000000000000000000000000000008152600401610e86906136bd565b60405180910390fd5b600b5f8381526020019081526020015f20600101544210610ee5576040517f08c379a0000000000000000000000000000000000000000000000000000000008152600401610edc90613725565b60405180910390fd5b5f600284610ef3919061387e565b85610efe91906138c8565b90505f8111610f42576040517f08c379a0000000000000000000000000000000000000000000000000000000008152600401610f3990613953565b60405180910390fd5b600c5f3373ffffffffffffffffffffffffffffffffffffffff1673ffffffffffffffffffffffffffffffffffffffff1681526020019081526020015f206040518060a0016040528087815260200186815260200183815260200142815260200160011515815250908060018154018082558091505060019003905f5260205f2090600502015f909190919091505f820151815f01556020820151816001015560408201518160020155606082015181600301556080820151816004015f6101000a81548160ff0219169083151502179055505050811561104b5780600b5f8581526020019081526020015f206003015f82825461103f9190612ff5565b92505081905550611076565b80600b5f8581526020019081526020015f206004015f82825461106e9190612ff5565b925050819055505b600b5f8481526020019081526020015f2060020154600b5f8581526020019081526020015f20600301541015806110d55750600b5f8481526020019081526020015f2060020154600b5f8581526020019081526020015f206004015410155b156110e4576110e38361113c565b5b823373ffffffffffffffffffffffffffffffffffffffff167f9fea94799b68dbb994c4e44547ea7b5c9e4068fbc385b8b688005a16b60c3cc6848460405161112d929190613971565b60405180910390a35050505050565b600b5f8281526020019081526020015f2060010154421015806111875750600b5f8281526020019081526020015f2060020154600b5f8381526020019081526020015f206003015410155b806111ba5750600b5f8281526020019081526020015f2060020154600b5f8381526020019081526020015f206004015410155b6111f9576040517f08c379a00000000000000000000000000000000000000000000000000000000081526004016111f0906139e2565b60405180910390fd5b600b5f8281526020019081526020015f206005015f9054906101000a900460ff161561125a576040517f08c379a000000000000000000000000000000000000000000000000000000000815260040161125190613a4a565b60405180910390fd5b6001600b5f8381526020019081526020015f206005015f6101000a81548160ff0219169083151502179055505f600b5f8381526020019081526020015f2060040154600b5f8481526020019081526020015f20600301541190505f6112bf8383611b42565b90506112ca81611c3f565b827fa12dd7d44a6ee7489fcbbfaf9d2b201c238ed243077e92e8e8d3afcb099af54b836040516112fa9190612873565b60405180910390a2505050565b5f5f5f9054906101000a900473ffffffffffffffffffffffffffffffffffffffff16905090565b600a5481565b60606002805461134390613055565b80601f016020809104026020016040519081016040528092919081815260200182805461136f90613055565b80156113ba5780601f10611391576101008083540402835291602001916113ba565b820191905f5260205f20905b81548152906001019060200180831161139d57829003601f168201915b5050505050905090565b6113cc611717565b6113d58161113c565b50565b6113ea6113e361185d565b8383611cab565b5050565b6113f984848461073e565b61140d61140461185d565b85858585611e14565b50505050565b606061141e8261179e565b505f60075f8481526020019081526020015f20805461143c90613055565b80601f016020809104026020016040519081016040528092919081815260200182805461146890613055565b80156114b35780601f1061148a576101008083540402835291602001916114b3565b820191905f5260205f20905b81548152906001019060200180831161149657829003601f168201915b505050505090505f6114c3611fc0565b90505f8151036114d7578192505050611519565b5f8251111561150b5780826040516020016114f3929190613aa2565b60405160208183030381529060405292505050611519565b61151484611fd6565b925050505b919050565b60095481565b5f60065f8473ffffffffffffffffffffffffffffffffffffffff1673ffffffffffffffffffffffffffffffffffffffff1681526020019081526020015f205f8373ffffffffffffffffffffffffffffffffffffffff1673ffffffffffffffffffffffffffffffffffffffff1681526020019081526020015f205f9054906101000a900460ff16905092915050565b6115ba611717565b5f73ffffffffffffffffffffffffffffffffffffffff168173ffffffffffffffffffffffffffffffffffffffff160361162a575f6040517f1e4fbdf70000000000000000000000000000000000000000000000000000000081526004016116219190612b51565b60405180910390fd5b61163381611a81565b50565b5f7f80ac58cd000000000000000000000000000000000000000000000000000000007bffffffffffffffffffffffffffffffffffffffffffffffffffffffff1916827bffffffffffffffffffffffffffffffffffffffffffffffffffffffff1916148061170057507f5b5e139f000000000000000000000000000000000000000000000000000000007bffffffffffffffffffffffffffffffffffffffffffffffffffffffff1916827bffffffffffffffffffffffffffffffffffffffffffffffffffffffff1916145b80611710575061170f8261203c565b5b9050919050565b61171f61185d565b73ffffffffffffffffffffffffffffffffffffffff1661173d611307565b73ffffffffffffffffffffffffffffffffffffffff161461179c5761176061185d565b6040517f118cdaa70000000000000000000000000000000000000000000000000000000081526004016117939190612b51565b60405180910390fd5b565b5f5f6117a9836120a5565b90505f73ffffffffffffffffffffffffffffffffffffffff168173ffffffffffffffffffffffffffffffffffffffff160361181b57826040517f7e2732890000000000000000000000000000000000000000000000000000000081526004016118129190612d87565b60405180910390fd5b80915050919050565b5f60055f8381526020019081526020015f205f9054906101000a900473ffffffffffffffffffffffffffffffffffffffff169050919050565b5f33905090565b61187183838360016120de565b505050565b5f5f611881846120a5565b90505f73ffffffffffffffffffffffffffffffffffffffff168373ffffffffffffffffffffffffffffffffffffffff16146118c2576118c181848661229d565b5b5f73ffffffffffffffffffffffffffffffffffffffff168173ffffffffffffffffffffffffffffffffffffffff161461194d576119015f855f5f6120de565b600160045f8373ffffffffffffffffffffffffffffffffffffffff1673ffffffffffffffffffffffffffffffffffffffff1681526020019081526020015f205f82825403925050819055505b5f73ffffffffffffffffffffffffffffffffffffffff168573ffffffffffffffffffffffffffffffffffffffff16146119cc57600160045f8773ffffffffffffffffffffffffffffffffffffffff1673ffffffffffffffffffffffffffffffffffffffff1681526020019081526020015f205f82825401925050819055505b8460035f8681526020019081526020015f205f6101000a81548173ffffffffffffffffffffffffffffffffffffffff021916908373ffffffffffffffffffffffffffffffffffffffff160217905550838573ffffffffffffffffffffffffffffffffffffffff168273ffffffffffffffffffffffffffffffffffffffff167fddf252ad1be2c89b69c2b068fc378daa952ba7f163c4a11628f55a4df523b3ef60405160405180910390a4809150509392505050565b5f5f5f9054906101000a900473ffffffffffffffffffffffffffffffffffffffff169050815f5f6101000a81548173ffffffffffffffffffffffffffffffffffffffff021916908373ffffffffffffffffffffffffffffffffffffffff1602179055508173ffffffffffffffffffffffffffffffffffffffff168173ffffffffffffffffffffffffffffffffffffffff167f8be0079c531659141344cd1fd0a4f28419497f9722a3daafe3b4186f6b6457e060405160405180910390a35050565b60605f82611b85576040518060400160405280600281526020017f4e6f000000000000000000000000000000000000000000000000000000000000815250611bbc565b6040518060400160405280600381526020017f59657300000000000000000000000000000000000000000000000000000000008152505b905083600b5f8681526020019081526020015f205f0182600b5f8881526020019081526020015f2060030154600b5f8981526020019081526020015f2060040154600b5f8a81526020019081526020015f2060020154604051602001611c2796959493929190613e49565b60405160208183030381529060405291505092915050565b611c4b33600a54612360565b611c57600a548261237d565b600a547f9e0bfaf38878aad3ebd19b8c8065288eb130f0499a7378363d4652515588ac9682604051611c899190612ac7565b60405180910390a2600a5f815480929190611ca390613327565b919050555050565b5f73ffffffffffffffffffffffffffffffffffffffff168273ffffffffffffffffffffffffffffffffffffffff1603611d1b57816040517f5b08ba18000000000000000000000000000000000000000000000000000000008152600401611d129190612b51565b60405180910390fd5b8060065f8573ffffffffffffffffffffffffffffffffffffffff1673ffffffffffffffffffffffffffffffffffffffff1681526020019081526020015f205f8473ffffffffffffffffffffffffffffffffffffffff1673ffffffffffffffffffffffffffffffffffffffff1681526020019081526020015f205f6101000a81548160ff0219169083151502179055508173ffffffffffffffffffffffffffffffffffffffff168373ffffffffffffffffffffffffffffffffffffffff167f17307eab39ab6107e8899845ad3d59bd9653f200f220920489ca2b5937696c3183604051611e079190612873565b60405180910390a3505050565b5f8373ffffffffffffffffffffffffffffffffffffffff163b1115611fb9578273ffffffffffffffffffffffffffffffffffffffff1663150b7a02868685856040518563ffffffff1660e01b8152600401611e729493929190613f91565b6020604051808303815f875af1925050508015611ead57506040513d601f19601f82011682018060405250810190611eaa9190613fef565b60015b611f2e573d805f8114611edb576040519150601f19603f3d011682016040523d82523d5f602084013e611ee0565b606091505b505f815103611f2657836040517f64a0ae92000000000000000000000000000000000000000000000000000000008152600401611f1d9190612b51565b60405180910390fd5b805181602001fd5b63150b7a0260e01b7bffffffffffffffffffffffffffffffffffffffffffffffffffffffff1916817bffffffffffffffffffffffffffffffffffffffffffffffffffffffff191614611fb757836040517f64a0ae92000000000000000000000000000000000000000000000000000000008152600401611fae9190612b51565b60405180910390fd5b505b5050505050565b606060405180602001604052805f815250905090565b6060611fe18261179e565b505f611feb611fc0565b90505f8151116120095760405180602001604052805f815250612034565b80612013846123d7565b604051602001612024929190613aa2565b6040516020818303038152906040525b915050919050565b5f7f01ffc9a7000000000000000000000000000000000000000000000000000000007bffffffffffffffffffffffffffffffffffffffffffffffffffffffff1916827bffffffffffffffffffffffffffffffffffffffffffffffffffffffff1916149050919050565b5f60035f8381526020019081526020015f205f9054906101000a900473ffffffffffffffffffffffffffffffffffffffff169050919050565b808061211657505f73ffffffffffffffffffffffffffffffffffffffff168273ffffffffffffffffffffffffffffffffffffffff1614155b15612248575f6121258461179e565b90505f73ffffffffffffffffffffffffffffffffffffffff168373ffffffffffffffffffffffffffffffffffffffff161415801561218f57508273ffffffffffffffffffffffffffffffffffffffff168173ffffffffffffffffffffffffffffffffffffffff1614155b80156121a257506121a08184611524565b155b156121e457826040517fa9fbf51f0000000000000000000000000000000000000000000000000000000081526004016121db9190612b51565b60405180910390fd5b811561224657838573ffffffffffffffffffffffffffffffffffffffff168273ffffffffffffffffffffffffffffffffffffffff167f8c5be1e5ebec7d5bd14f71427d1e84f3dd0314c0f7b2291e5b200ac8c7c3b92560405160405180910390a45b505b8360055f8581526020019081526020015f205f6101000a81548173ffffffffffffffffffffffffffffffffffffffff021916908373ffffffffffffffffffffffffffffffffffffffff16021790555050505050565b6122a88383836124a1565b61235b575f73ffffffffffffffffffffffffffffffffffffffff168373ffffffffffffffffffffffffffffffffffffffff160361231c57806040517f7e2732890000000000000000000000000000000000000000000000000000000081526004016123139190612d87565b60405180910390fd5b81816040517f177e802f000000000000000000000000000000000000000000000000000000008152600401612352929190613508565b60405180910390fd5b505050565b612379828260405180602001604052805f815250612561565b5050565b8060075f8481526020019081526020015f20908161239b919061321c565b507ff8e1a15aba9398e019f0b49df1a4fde98ee17ae345cb5f6b5e2c27f5033e8ce7826040516123cb9190612d87565b60405180910390a15050565b60605f60016123e584612584565b0190505f8167ffffffffffffffff811115612403576124026128a4565b5b6040519080825280601f01601f1916602001820160405280156124355781602001600182028036833780820191505090505b5090505f82602001820190505b600115612496578080600190039150507f3031323334353637383961626364656600000000000000000000000000000000600a86061a8153600a858161248b5761248a61401a565b5b0494505f8503612442575b819350505050919050565b5f5f73ffffffffffffffffffffffffffffffffffffffff168373ffffffffffffffffffffffffffffffffffffffff161415801561255857508273ffffffffffffffffffffffffffffffffffffffff168473ffffffffffffffffffffffffffffffffffffffff16148061251957506125188484611524565b5b8061255757508273ffffffffffffffffffffffffffffffffffffffff1661253f83611824565b73ffffffffffffffffffffffffffffffffffffffff16145b5b90509392505050565b61256b83836126d5565b61257f61257661185d565b5f858585611e14565b505050565b5f5f5f90507a184f03e93ff9f4daa797ed6e38ed64bf6a1f01000000000000000083106125e0577a184f03e93ff9f4daa797ed6e38ed64bf6a1f01000000000000000083816125d6576125d561401a565b5b0492506040810190505b6d04ee2d6d415b85acef8100000000831061261d576d04ee2d6d415b85acef810000000083816126135761261261401a565b5b0492506020810190505b662386f26fc10000831061264c57662386f26fc1000083816126425761264161401a565b5b0492506010810190505b6305f5e1008310612675576305f5e100838161266b5761266a61401a565b5b0492506008810190505b612710831061269a5761271083816126905761268f61401a565b5b0492506004810190505b606483106126bd57606483816126b3576126b261401a565b5b0492506002810190505b600a83106126cc576001810190505b80915050919050565b5f73ffffffffffffffffffffffffffffffffffffffff168273ffffffffffffffffffffffffffffffffffffffff1603612745575f6040517f64a0ae9200000000000000000000000000000000000000000000000000000000815260040161273c9190612b51565b60405180910390fd5b5f61275183835f611876565b90505f73ffffffffffffffffffffffffffffffffffffffff168173ffffffffffffffffffffffffffffffffffffffff16146127c3575f6040517f73c6ac6e0000000000000000000000000000000000000000000000000000000081526004016127ba9190612b51565b60405180910390fd5b505050565b5f604051905090565b5f5ffd5b5f5ffd5b5f7fffffffff0000000000000000000000000000000000000000000000000000000082169050919050565b61280d816127d9565b8114612817575f5ffd5b50565b5f8135905061282881612804565b92915050565b5f60208284031215612843576128426127d1565b5b5f6128508482850161281a565b91505092915050565b5f8115159050919050565b61286d81612859565b82525050565b5f6020820190506128865f830184612864565b92915050565b5f5ffd5b5f5ffd5b5f601f19601f8301169050919050565b7f4e487b71000000000000000000000000000000000000000000000000000000005f52604160045260245ffd5b6128da82612894565b810181811067ffffffffffffffff821117156128f9576128f86128a4565b5b80604052505050565b5f61290b6127c8565b905061291782826128d1565b919050565b5f67ffffffffffffffff821115612936576129356128a4565b5b61293f82612894565b9050602081019050919050565b828183375f83830152505050565b5f61296c6129678461291c565b612902565b90508281526020810184848401111561298857612987612890565b5b61299384828561294c565b509392505050565b5f82601f8301126129af576129ae61288c565b5b81356129bf84826020860161295a565b91505092915050565b5f819050919050565b6129da816129c8565b81146129e4575f5ffd5b50565b5f813590506129f5816129d1565b92915050565b5f5f5f60608486031215612a1257612a116127d1565b5b5f84013567ffffffffffffffff811115612a2f57612a2e6127d5565b5b612a3b8682870161299b565b9350506020612a4c868287016129e7565b9250506040612a5d868287016129e7565b9150509250925092565b5f81519050919050565b5f82825260208201905092915050565b8281835e5f83830152505050565b5f612a9982612a67565b612aa38185612a71565b9350612ab3818560208601612a81565b612abc81612894565b840191505092915050565b5f6020820190508181035f830152612adf8184612a8f565b905092915050565b5f60208284031215612afc57612afb6127d1565b5b5f612b09848285016129e7565b91505092915050565b5f73ffffffffffffffffffffffffffffffffffffffff82169050919050565b5f612b3b82612b12565b9050919050565b612b4b81612b31565b82525050565b5f602082019050612b645f830184612b42565b92915050565b612b7381612b31565b8114612b7d575f5ffd5b50565b5f81359050612b8e81612b6a565b92915050565b5f5f60408385031215612baa57612ba96127d1565b5b5f612bb785828601612b80565b9250506020612bc8858286016129e7565b9150509250929050565b5f5f5f60608486031215612be957612be86127d1565b5b5f612bf686828701612b80565b9350506020612c0786828701612b80565b9250506040612c18868287016129e7565b9150509250925092565b5f819050919050565b5f612c45612c40612c3b84612b12565b612c22565b612b12565b9050919050565b5f612c5682612c2b565b9050919050565b5f612c6782612c4c565b9050919050565b612c7781612c5d565b82525050565b5f602082019050612c905f830184612c6e565b92915050565b612c9f816129c8565b82525050565b5f60a082019050612cb85f830188612c96565b612cc56020830187612c96565b612cd26040830186612c96565b612cdf6060830185612c96565b612cec6080830184612864565b9695505050505050565b5f60c0820190508181035f830152612d0e8189612a8f565b9050612d1d6020830188612c96565b612d2a6040830187612c96565b612d376060830186612c96565b612d446080830185612c96565b612d5160a0830184612864565b979650505050505050565b5f60208284031215612d7157612d706127d1565b5b5f612d7e84828501612b80565b91505092915050565b5f602082019050612d9a5f830184612c96565b92915050565b612da981612859565b8114612db3575f5ffd5b50565b5f81359050612dc481612da0565b92915050565b5f5f5f5f60808587031215612de257612de16127d1565b5b5f612def878288016129e7565b9450506020612e00878288016129e7565b9350506040612e11878288016129e7565b9250506060612e2287828801612db6565b91505092959194509250565b5f5f60408385031215612e4457612e436127d1565b5b5f612e5185828601612b80565b9250506020612e6285828601612db6565b9150509250929050565b5f67ffffffffffffffff821115612e8657612e856128a4565b5b612e8f82612894565b9050602081019050919050565b5f612eae612ea984612e6c565b612902565b905082815260208101848484011115612eca57612ec9612890565b5b612ed584828561294c565b509392505050565b5f82601f830112612ef157612ef061288c565b5b8135612f01848260208601612e9c565b91505092915050565b5f5f5f5f60808587031215612f2257612f216127d1565b5b5f612f2f87828801612b80565b9450506020612f4087828801612b80565b9350506040612f51878288016129e7565b925050606085013567ffffffffffffffff811115612f7257612f716127d5565b5b612f7e87828801612edd565b91505092959194509250565b5f5f60408385031215612fa057612f9f6127d1565b5b5f612fad85828601612b80565b9250506020612fbe85828601612b80565b9150509250929050565b7f4e487b71000000000000000000000000000000000000000000000000000000005f52601160045260245ffd5b5f612fff826129c8565b915061300a836129c8565b925082820190508082111561302257613021612fc8565b5b92915050565b7f4e487b71000000000000000000000000000000000000000000000000000000005f52602260045260245ffd5b5f600282049050600182168061306c57607f821691505b60208210810361307f5761307e613028565b5b50919050565b5f819050815f5260205f209050919050565b5f6020601f8301049050919050565b5f82821b905092915050565b5f600883026130e17fffffffffffffffffffffffffffffffffffffffffffffffffffffffffffffffff826130a6565b6130eb86836130a6565b95508019841693508086168417925050509392505050565b5f61311d613118613113846129c8565b612c22565b6129c8565b9050919050565b5f819050919050565b61313683613103565b61314a61314282613124565b8484546130b2565b825550505050565b5f5f905090565b613161613152565b61316c81848461312d565b505050565b5b8181101561318f576131845f82613159565b600181019050613172565b5050565b601f8211156131d4576131a581613085565b6131ae84613097565b810160208510156131bd578190505b6131d16131c985613097565b830182613171565b50505b505050565b5f82821c905092915050565b5f6131f45f19846008026131d9565b1980831691505092915050565b5f61320c83836131e5565b9150826002028217905092915050565b61322582612a67565b67ffffffffffffffff81111561323e5761323d6128a4565b5b6132488254613055565b613253828285613193565b5f60209050601f831160018114613284575f8415613272578287015190505b61327c8582613201565b8655506132e3565b601f19841661329286613085565b5f5b828110156132b957848901518255600182019150602085019450602081019050613294565b868310156132d657848901516132d2601f8916826131e5565b8355505b6001600288020188555050505b505050505050565b5f6060820190508181035f8301526133038186612a8f565b90506133126020830185612c96565b61331f6040830184612c96565b949350505050565b5f613331826129c8565b91507fffffffffffffffffffffffffffffffffffffffffffffffffffffffffffffffff820361336357613362612fc8565b5b600182019050919050565b5f6060820190506133815f830186612b42565b61338e6020830185612c96565b61339b6040830184612b42565b949350505050565b7f496e76616c6964207374616b6520696e646578000000000000000000000000005f82015250565b5f6133d7601383612a71565b91506133e2826133a3565b602082019050919050565b5f6020820190508181035f830152613404816133cb565b9050919050565b7f4e487b71000000000000000000000000000000000000000000000000000000005f52603260045260245ffd5b7f5374616b6520616c72656164792072657475726e6564000000000000000000005f82015250565b5f61346c601683612a71565b915061347782613438565b602082019050919050565b5f6020820190508181035f83015261349981613460565b9050919050565b7f5374616b696e6720706572696f64206e6f7420796574206f76657200000000005f82015250565b5f6134d4601b83612a71565b91506134df826134a0565b602082019050919050565b5f6020820190508181035f830152613501816134c8565b9050919050565b5f60408201905061351b5f830185612b42565b6135286020830184612c96565b9392505050565b5f8151905061353d81612da0565b92915050565b5f60208284031215613558576135576127d1565b5b5f6135658482850161352f565b91505092915050565b7f52657475726e206661696c6564000000000000000000000000000000000000005f82015250565b5f6135a2600d83612a71565b91506135ad8261356e565b602082019050919050565b5f6020820190508181035f8301526135cf81613596565b9050919050565b7f496e76616c6964207374616b696e6720706572696f64000000000000000000005f82015250565b5f61360a601683612a71565b9150613615826135d6565b602082019050919050565b5f6020820190508181035f830152613637816135fe565b9050919050565b5f6060820190506136515f830186612b42565b61365e6020830185612b42565b61366b6040830184612c96565b949350505050565b7f5374616b65206661696c656400000000000000000000000000000000000000005f82015250565b5f6136a7600c83612a71565b91506136b282613673565b602082019050919050565b5f6020820190508181035f8301526136d48161369b565b9050919050565b7f566f746520656e646564000000000000000000000000000000000000000000005f82015250565b5f61370f600a83612a71565b915061371a826136db565b602082019050919050565b5f6020820190508181035f83015261373c81613703565b9050919050565b5f8160011c9050919050565b5f5f8291508390505b60018511156137985780860481111561377457613773612fc8565b5b60018516156137835780820291505b808102905061379185613743565b9450613758565b94509492505050565b5f826137b0576001905061386b565b816137bd575f905061386b565b81600181146137d357600281146137dd5761380c565b600191505061386b565b60ff8411156137ef576137ee612fc8565b5b8360020a91508482111561380657613805612fc8565b5b5061386b565b5060208310610133831016604e8410600b84101617156138415782820a90508381111561383c5761383b612fc8565b5b61386b565b61384e848484600161374f565b9250905081840481111561386557613864612fc8565b5b81810290505b9392505050565b5f60ff82169050919050565b5f613888826129c8565b915061389383613872565b92506138c07fffffffffffffffffffffffffffffffffffffffffffffffffffffffffffffffff84846137a1565b905092915050565b5f6138d2826129c8565b91506138dd836129c8565b92508282026138eb816129c8565b9150828204841483151761390257613901612fc8565b5b5092915050565b7f4e6f20706f7765720000000000000000000000000000000000000000000000005f82015250565b5f61393d600883612a71565b915061394882613909565b602082019050919050565b5f6020820190508181035f83015261396a81613931565b9050919050565b5f6040820190506139845f830185612864565b6139916020830184612c96565b9392505050565b7f43616e277420656e6420766f7465206e6f7700000000000000000000000000005f82015250565b5f6139cc601283612a71565b91506139d782613998565b602082019050919050565b5f6020820190508181035f8301526139f9816139c0565b9050919050565b7f566f746520697320616c726561647920656e64656400000000000000000000005f82015250565b5f613a34601583612a71565b9150613a3f82613a00565b602082019050919050565b5f6020820190508181035f830152613a6181613a28565b9050919050565b5f81905092915050565b5f613a7c82612a67565b613a868185613a68565b9350613a96818560208601612a81565b80840191505092915050565b5f613aad8285613a72565b9150613ab98284613a72565b91508190509392505050565b7f646174613a6170706c69636174696f6e2f6a736f6e3b757466382c00000000005f82015250565b5f613af9601b83613a68565b9150613b0482613ac5565b601b82019050919050565b7f7b226e616d65223a225665676120566f746520526573756c74202300000000005f82015250565b5f613b43601b83613a68565b9150613b4e82613b0f565b601b82019050919050565b5f819050919050565b613b73613b6e826129c8565b613b59565b82525050565b7f222c0000000000000000000000000000000000000000000000000000000000005f82015250565b5f613bad600283613a68565b9150613bb882613b79565b600282019050919050565b7f226465736372697074696f6e223a2200000000000000000000000000000000005f82015250565b5f613bf7600f83613a68565b9150613c0282613bc3565b600f82019050919050565b5f8154613c1981613055565b613c238186613a68565b9450600182165f8114613c3d5760018114613c5257613c84565b60ff1983168652811515820286019350613c84565b613c5b85613085565b5f5b83811015613c7c57815481890152600182019150602081019050613c5d565b838801955050505b50505092915050565b7f22726573756c74223a22000000000000000000000000000000000000000000005f82015250565b5f613cc1600a83613a68565b9150613ccc82613c8d565b600a82019050919050565b7f22796573566f746573223a0000000000000000000000000000000000000000005f82015250565b5f613d0b600b83613a68565b9150613d1682613cd7565b600b82019050919050565b7f2c000000000000000000000000000000000000000000000000000000000000005f82015250565b5f613d55600183613a68565b9150613d6082613d21565b600182019050919050565b7f226e6f566f746573223a000000000000000000000000000000000000000000005f82015250565b5f613d9f600a83613a68565b9150613daa82613d6b565b600a82019050919050565b7f227468726573686f6c64223a00000000000000000000000000000000000000005f82015250565b5f613de9600c83613a68565b9150613df482613db5565b600c82019050919050565b7f7d000000000000000000000000000000000000000000000000000000000000005f82015250565b5f613e33600183613a68565b9150613e3e82613dff565b600182019050919050565b5f613e5382613aed565b9150613e5e82613b37565b9150613e6a8289613b62565b602082019150613e7982613ba1565b9150613e8482613beb565b9150613e908288613c0d565b9150613e9b82613ba1565b9150613ea682613cb5565b9150613eb28287613a72565b9150613ebd82613ba1565b9150613ec882613cff565b9150613ed48286613b62565b602082019150613ee382613d49565b9150613eee82613d93565b9150613efa8285613b62565b602082019150613f0982613d49565b9150613f1482613ddd565b9150613f208284613b62565b602082019150613f2f82613e27565b9150819050979650505050505050565b5f81519050919050565b5f82825260208201905092915050565b5f613f6382613f3f565b613f6d8185613f49565b9350613f7d818560208601612a81565b613f8681612894565b840191505092915050565b5f608082019050613fa45f830187612b42565b613fb16020830186612b42565b613fbe6040830185612c96565b8181036060830152613fd08184613f59565b905095945050505050565b5f81519050613fe981612804565b92915050565b5f60208284031215614004576140036127d1565b5b5f61401184828501613fdb565b91505092915050565b7f4e487b71000000000000000000000000000000000000000000000000000000005f52601260045260245ffdfea264697066735822122011e0e08c7d73abb9c621f29572a41899249385750544a08fbaf55f3929a8f85664736f6c634300081c0033","linkReferences":{}},"methodIdentifiers":{"TryToEndVoteByDeadline(uint256)":"9da4a426","approve(address,uint256)":"095ea7b3","balanceOf(address)":"70a08231","createVote(string,uint256,uint256)":"029fc3e8","endVote(uint256)":"865df0ad","getApproved(uint256)":"081812fc","isApprovedForAll(address,address)":"e985e9c5","name()":"06fdde03","nextNftId()":"93f1da4f","nextVoteId()":"e207d04d","owner()":"8da5cb5b","ownerOf(uint256)":"6352211e","renounceOwnership()":"715018a6","safeTransferFrom(address,address,uint256)":"42842e0e","safeTransferFrom(address,address,uint256,bytes)":"b88d4fde","setApprovalForAll(address,bool)":"a22cb465","stakes(address,uint256)":"584b62a1","supportsInterface(bytes4)":"01ffc9a7","symbol()":"95d89b41","tokenURI(uint256)":"c87b56dd","transferFrom(address,address,uint256)":"23b872dd","transferOwnership(address)":"f2fde38b","unstakeTokens(uint256)":"608e4dd0","vegaVoteToken()":"41ee31ff","vote(uint256,uint256,uint256,bool)":"7feb2d03","votes(uint256)":"5df81330"},"id":0}