{
	"data": {
		"bytecode": {
			"linkReferences": {},
			"object": "608060405234801561000f575f80fd5b506040516149e03803806149e0833981810160405281019061003191906102a5565b6040518060400160405280600c81526020017f566f74696e67526573756c7400000000000000000000000000000000000000008152506040518060400160405280600481526020017f5647565400000000000000000000000000000000000000000000000000000000815250335f73ffffffffffffffffffffffffffffffffffffffff168173ffffffffffffffffffffffffffffffffffffffff160361010e575f6040517f1e4fbdf700000000000000000000000000000000000000000000000000000000815260040161010591906102df565b60405180910390fd5b61011d8161018660201b60201c565b50816001908161012d9190610532565b50806002908161013d9190610532565b5050508060085f6101000a81548173ffffffffffffffffffffffffffffffffffffffff021916908373ffffffffffffffffffffffffffffffffffffffff16021790555050610601565b5f805f9054906101000a900473ffffffffffffffffffffffffffffffffffffffff169050815f806101000a81548173ffffffffffffffffffffffffffffffffffffffff021916908373ffffffffffffffffffffffffffffffffffffffff1602179055508173ffffffffffffffffffffffffffffffffffffffff168173ffffffffffffffffffffffffffffffffffffffff167f8be0079c531659141344cd1fd0a4f28419497f9722a3daafe3b4186f6b6457e060405160405180910390a35050565b5f80fd5b5f73ffffffffffffffffffffffffffffffffffffffff82169050919050565b5f6102748261024b565b9050919050565b6102848161026a565b811461028e575f80fd5b50565b5f8151905061029f8161027b565b92915050565b5f602082840312156102ba576102b9610247565b5b5f6102c784828501610291565b91505092915050565b6102d98161026a565b82525050565b5f6020820190506102f25f8301846102d0565b92915050565b5f81519050919050565b7f4e487b71000000000000000000000000000000000000000000000000000000005f52604160045260245ffd5b7f4e487b71000000000000000000000000000000000000000000000000000000005f52602260045260245ffd5b5f600282049050600182168061037357607f821691505b6020821081036103865761038561032f565b5b50919050565b5f819050815f5260205f209050919050565b5f6020601f8301049050919050565b5f82821b905092915050565b5f600883026103e87fffffffffffffffffffffffffffffffffffffffffffffffffffffffffffffffff826103ad565b6103f286836103ad565b95508019841693508086168417925050509392505050565b5f819050919050565b5f819050919050565b5f61043661043161042c8461040a565b610413565b61040a565b9050919050565b5f819050919050565b61044f8361041c565b61046361045b8261043d565b8484546103b9565b825550505050565b5f90565b61047761046b565b610482818484610446565b505050565b5b818110156104a55761049a5f8261046f565b600181019050610488565b5050565b601f8211156104ea576104bb8161038c565b6104c48461039e565b810160208510156104d3578190505b6104e76104df8561039e565b830182610487565b50505b505050565b5f82821c905092915050565b5f61050a5f19846008026104ef565b1980831691505092915050565b5f61052283836104fb565b9150826002028217905092915050565b61053b826102f8565b67ffffffffffffffff81111561055457610553610302565b5b61055e825461035c565b6105698282856104a9565b5f60209050601f83116001811461059a575f8415610588578287015190505b6105928582610517565b8655506105f9565b601f1984166105a88661038c565b5f5b828110156105cf578489015182556001820191506020850194506020810190506105aa565b868310156105ec57848901516105e8601f8916826104fb565b8355505b6001600288020188555050505b505050505050565b6143d28061060e5f395ff3fe608060405234801561000f575f80fd5b50600436106101a7575f3560e01c80636352211e116100f7578063b88d4fde11610095578063c9d27afe1161006f578063c9d27afe146104d0578063e207d04d146104ec578063e985e9c51461050a578063f2fde38b1461053a576101a7565b8063b88d4fde14610468578063c1fa3b2e14610484578063c87b56dd146104a0576101a7565b80638da5cb5b116100d15780638da5cb5b146103f257806393f1da4f1461041057806395d89b411461042e578063a22cb4651461044c576101a7565b80636352211e1461038857806370a08231146103b8578063715018a6146103e8576101a7565b80633b7b61881161016457806342842e0e1161013e57806342842e0e146102e7578063584b62a1146103035780635df8133014610337578063608e4dd01461036c576101a7565b80633b7b61881461027d57806341ee31ff1461029957806342545825146102b7576101a7565b806301ffc9a7146101ab578063029fc3e8146101db57806306fdde03146101f7578063081812fc14610215578063095ea7b31461024557806323b872dd14610261575b5f80fd5b6101c560048036038101906101c09190612b06565b610556565b6040516101d29190612b4b565b60405180910390f35b6101f560048036038101906101f09190612cd3565b6105b6565b005b6101ff6106cf565b60405161020c9190612d9f565b60405180910390f35b61022f600480360381019061022a9190612dbf565b61075f565b60405161023c9190612e29565b60405180910390f35b61025f600480360381019061025a9190612e6c565b61077a565b005b61027b60048036038101906102769190612eaa565b610790565b005b61029760048036038101906102929190612efa565b61088f565b005b6102a1610aba565b6040516102ae9190612f93565b60405180910390f35b6102d160048036038101906102cc9190612e6c565b610adf565b6040516102de9190612b4b565b60405180910390f35b61030160048036038101906102fc9190612eaa565b610b09565b005b61031d60048036038101906103189190612e6c565b610b28565b60405161032e959493929190612fbb565b60405180910390f35b610351600480360381019061034c9190612dbf565b610b80565b6040516103639695949392919061300c565b60405180910390f35b61038660048036038101906103819190612dbf565b610c4a565b005b6103a2600480360381019061039d9190612dbf565b610f20565b6040516103af9190612e29565b60405180910390f35b6103d260048036038101906103cd9190613072565b610f31565b6040516103df919061309d565b60405180910390f35b6103f0610fe7565b005b6103fa610ffa565b6040516104079190612e29565b60405180910390f35b610418611021565b604051610425919061309d565b60405180910390f35b610436611027565b6040516104439190612d9f565b60405180910390f35b610466600480360381019061046191906130e0565b6110b7565b005b610482600480360381019061047d91906131bc565b6110cd565b005b61049e60048036038101906104999190612dbf565b6110f2565b005b6104ba60048036038101906104b59190612dbf565b6112b0565b6040516104c79190612d9f565b60405180910390f35b6104ea60048036038101906104e5919061323c565b6113bb565b005b6104f46117cc565b604051610501919061309d565b60405180910390f35b610524600480360381019061051f919061327a565b6117d2565b6040516105319190612b4b565b60405180910390f35b610554600480360381019061054f9190613072565b611860565b005b5f634906490660e01b7bffffffffffffffffffffffffffffffffffffffffffffffffffffffff1916827bffffffffffffffffffffffffffffffffffffffffffffffffffffffff191614806105af57506105ae826118e4565b5b9050919050565b6105be6119c5565b5f6105d28342611a4c90919063ffffffff16565b90506040518060c001604052808581526020018281526020018381526020015f81526020015f81526020015f1515815250600b5f60095481526020019081526020015f205f820151815f01908161062991906134a9565b506020820151816001015560408201518160020155606082015181600301556080820151816004015560a0820151816005015f6101000a81548160ff0219169083151502179055509050506009547f6912e5abe531ca5f3b6f973f97278ab6731cdec0178a7b3c2c7a5822a3f1732b8583856040516106aa93929190613578565b60405180910390a260095f8154809291906106c4906135e1565b919050555050505050565b6060600180546106de906132e5565b80601f016020809104026020016040519081016040528092919081815260200182805461070a906132e5565b80156107555780601f1061072c57610100808354040283529160200191610755565b820191905f5260205f20905b81548152906001019060200180831161073857829003601f168201915b5050505050905090565b5f61076982611a61565b5061077382611ae7565b9050919050565b61078c8282610787611b20565b611b27565b5050565b5f73ffffffffffffffffffffffffffffffffffffffff168273ffffffffffffffffffffffffffffffffffffffff1603610800575f6040517f64a0ae920000000000000000000000000000000000000000000000000000000081526004016107f79190612e29565b60405180910390fd5b5f610813838361080e611b20565b611b39565b90508373ffffffffffffffffffffffffffffffffffffffff168173ffffffffffffffffffffffffffffffffffffffff1614610889578382826040517f64283d7b00000000000000000000000000000000000000000000000000000000815260040161088093929190613628565b60405180910390fd5b50505050565b5f81101580156108a357506307861f808111155b6108e2576040517f08c379a00000000000000000000000000000000000000000000000000000000081526004016108d9906136a7565b60405180910390fd5b60085f9054906101000a900473ffffffffffffffffffffffffffffffffffffffff1673ffffffffffffffffffffffffffffffffffffffff166323b872dd3330856040518463ffffffff1660e01b8152600401610940939291906136c5565b6020604051808303815f875af115801561095c573d5f803e3d5ffd5b505050506040513d601f19601f82011682018060405250810190610980919061370e565b6109bf576040517f08c379a00000000000000000000000000000000000000000000000000000000081526004016109b690613783565b60405180910390fd5b5f6109df6002836109d091906138dc565b84611d4490919063ffffffff16565b9050600c5f3373ffffffffffffffffffffffffffffffffffffffff1673ffffffffffffffffffffffffffffffffffffffff1681526020019081526020015f206040518060a0016040528085815260200184815260200183815260200142815260200160011515815250908060018154018082558091505060019003905f5260205f2090600502015f909190919091505f820151815f01556020820151816001015560408201518160020155606082015181600301556080820151816004015f6101000a81548160ff0219169083151502179055505050505050565b60085f9054906101000a900473ffffffffffffffffffffffffffffffffffffffff1681565b600d602052815f5260405f20602052805f5260405f205f915091509054906101000a900460ff1681565b610b2383838360405180602001604052805f8152506110cd565b505050565b600c602052815f5260405f208181548110610b41575f80fd5b905f5260205f2090600502015f9150915050805f015490806001015490806002015490806003015490806004015f9054906101000a900460ff16905085565b600b602052805f5260405f205f91509050805f018054610b9f906132e5565b80601f0160208091040260200160405190810160405280929190818152602001828054610bcb906132e5565b8015610c165780601f10610bed57610100808354040283529160200191610c16565b820191905f5260205f20905b815481529060010190602001808311610bf957829003601f168201915b505050505090806001015490806002015490806003015490806004015490806005015f9054906101000a900460ff16905086565b600c5f3373ffffffffffffffffffffffffffffffffffffffff1673ffffffffffffffffffffffffffffffffffffffff1681526020019081526020015f20805490508110610ccc576040517f08c379a0000000000000000000000000000000000000000000000000000000008152600401610cc390613970565b60405180910390fd5b5f600c5f3373ffffffffffffffffffffffffffffffffffffffff1673ffffffffffffffffffffffffffffffffffffffff1681526020019081526020015f208281548110610d1c57610d1b61398e565b5b905f5260205f2090600502019050806004015f9054906101000a900460ff16610d7a576040517f08c379a0000000000000000000000000000000000000000000000000000000008152600401610d7190613a05565b60405180910390fd5b80600101548160030154610d8e9190613a23565b421015610dd0576040517f08c379a0000000000000000000000000000000000000000000000000000000008152600401610dc790613aa0565b60405180910390fd5b5f815f015490505f826004015f6101000a81548160ff02191690831515021790555060085f9054906101000a900473ffffffffffffffffffffffffffffffffffffffff1673ffffffffffffffffffffffffffffffffffffffff1663a9059cbb33836040518363ffffffff1660e01b8152600401610e4e929190613abe565b6020604051808303815f875af1158015610e6a573d5f803e3d5ffd5b505050506040513d601f19601f82011682018060405250810190610e8e919061370e565b610ecd576040517f08c379a0000000000000000000000000000000000000000000000000000000008152600401610ec490613b2f565b60405180910390fd5b3373ffffffffffffffffffffffffffffffffffffffff167f9845e367b683334e5c0b12d7b81721ac518e649376fa65e3d68324e8f34f267982604051610f13919061309d565b60405180910390a2505050565b5f610f2a82611a61565b9050919050565b5f8073ffffffffffffffffffffffffffffffffffffffff168273ffffffffffffffffffffffffffffffffffffffff1603610fa2575f6040517f89c62b64000000000000000000000000000000000000000000000000000000008152600401610f999190612e29565b60405180910390fd5b60045f8373ffffffffffffffffffffffffffffffffffffffff1673ffffffffffffffffffffffffffffffffffffffff1681526020019081526020015f20549050919050565b610fef6119c5565b610ff85f611d59565b565b5f805f9054906101000a900473ffffffffffffffffffffffffffffffffffffffff16905090565b600a5481565b606060028054611036906132e5565b80601f0160208091040260200160405190810160405280929190818152602001828054611062906132e5565b80156110ad5780601f10611084576101008083540402835291602001916110ad565b820191905f5260205f20905b81548152906001019060200180831161109057829003601f168201915b5050505050905090565b6110c96110c2611b20565b8383611e1a565b5050565b6110d8848484610790565b6110ec6110e3611b20565b85858585611f83565b50505050565b600b5f8281526020019081526020015f2060010154421015806111635750600b5f8281526020019081526020015f2060020154611160600b5f8481526020019081526020015f2060040154600b5f8581526020019081526020015f2060030154611a4c90919063ffffffff16565b10155b6111a2576040517f08c379a000000000000000000000000000000000000000000000000000000000815260040161119990613b97565b60405180910390fd5b600b5f8281526020019081526020015f206005015f9054906101000a900460ff1615611203576040517f08c379a00000000000000000000000000000000000000000000000000000000081526004016111fa90613bff565b60405180910390fd5b6001600b5f8381526020019081526020015f206005015f6101000a81548160ff0219169083151502179055505f600b5f8381526020019081526020015f2060040154600b5f8481526020019081526020015f20600301541190505f611268838361212f565b90506112738161222c565b827fa12dd7d44a6ee7489fcbbfaf9d2b201c238ed243077e92e8e8d3afcb099af54b836040516112a39190612b4b565b60405180910390a2505050565b60606112bb82611a61565b505f60075f8481526020019081526020015f2080546112d9906132e5565b80601f0160208091040260200160405190810160405280929190818152602001828054611305906132e5565b80156113505780601f1061132757610100808354040283529160200191611350565b820191905f5260205f20905b81548152906001019060200180831161133357829003601f168201915b505050505090505f611360612298565b90505f8151036113745781925050506113b6565b5f825111156113a8578082604051602001611390929190613c57565b604051602081830303815290604052925050506113b6565b6113b1846122ae565b925050505b919050565b600b5f8381526020019081526020015f20600101544210611411576040517f08c379a000000000000000000000000000000000000000000000000000000000815260040161140890613cc4565b60405180910390fd5b600d5f3373ffffffffffffffffffffffffffffffffffffffff1673ffffffffffffffffffffffffffffffffffffffff1681526020019081526020015f205f8381526020019081526020015f205f9054906101000a900460ff16156114aa576040517f08c379a00000000000000000000000000000000000000000000000000000000081526004016114a190613d2c565b60405180910390fd5b5f805b600c5f3373ffffffffffffffffffffffffffffffffffffffff1673ffffffffffffffffffffffffffffffffffffffff1681526020019081526020015f20805490508110156115e657600c5f3373ffffffffffffffffffffffffffffffffffffffff1673ffffffffffffffffffffffffffffffffffffffff1681526020019081526020015f2081815481106115445761154361398e565b5b905f5260205f2090600502016004015f9054906101000a900460ff16156115d9576115d6600c5f3373ffffffffffffffffffffffffffffffffffffffff1673ffffffffffffffffffffffffffffffffffffffff1681526020019081526020015f2082815481106115b7576115b661398e565b5b905f5260205f2090600502016002015483611a4c90919063ffffffff16565b91505b80806001019150506114ad565b505f8111611629576040517f08c379a000000000000000000000000000000000000000000000000000000000815260040161162090613d94565b60405180910390fd5b6001600d5f3373ffffffffffffffffffffffffffffffffffffffff1673ffffffffffffffffffffffffffffffffffffffff1681526020019081526020015f205f8581526020019081526020015f205f6101000a81548160ff02191690831515021790555081156116d7576116ba81600b5f8681526020019081526020015f2060030154611a4c90919063ffffffff16565b600b5f8581526020019081526020015f2060030181905550611717565b6116fe81600b5f8681526020019081526020015f2060040154611a4c90919063ffffffff16565b600b5f8581526020019081526020015f20600401819055505b600b5f8481526020019081526020015f2060020154611767600b5f8681526020019081526020015f2060040154600b5f8781526020019081526020015f2060030154611a4c90919063ffffffff16565b1061177657611775836110f2565b5b823373ffffffffffffffffffffffffffffffffffffffff167f9fea94799b68dbb994c4e44547ea7b5c9e4068fbc385b8b688005a16b60c3cc684846040516117bf929190613db2565b60405180910390a3505050565b60095481565b5f60065f8473ffffffffffffffffffffffffffffffffffffffff1673ffffffffffffffffffffffffffffffffffffffff1681526020019081526020015f205f8373ffffffffffffffffffffffffffffffffffffffff1673ffffffffffffffffffffffffffffffffffffffff1681526020019081526020015f205f9054906101000a900460ff16905092915050565b6118686119c5565b5f73ffffffffffffffffffffffffffffffffffffffff168173ffffffffffffffffffffffffffffffffffffffff16036118d8575f6040517f1e4fbdf70000000000000000000000000000000000000000000000000000000081526004016118cf9190612e29565b60405180910390fd5b6118e181611d59565b50565b5f7f80ac58cd000000000000000000000000000000000000000000000000000000007bffffffffffffffffffffffffffffffffffffffffffffffffffffffff1916827bffffffffffffffffffffffffffffffffffffffffffffffffffffffff191614806119ae57507f5b5e139f000000000000000000000000000000000000000000000000000000007bffffffffffffffffffffffffffffffffffffffffffffffffffffffff1916827bffffffffffffffffffffffffffffffffffffffffffffffffffffffff1916145b806119be57506119bd82612314565b5b9050919050565b6119cd611b20565b73ffffffffffffffffffffffffffffffffffffffff166119eb610ffa565b73ffffffffffffffffffffffffffffffffffffffff1614611a4a57611a0e611b20565b6040517f118cdaa7000000000000000000000000000000000000000000000000000000008152600401611a419190612e29565b60405180910390fd5b565b5f8183611a599190613a23565b905092915050565b5f80611a6c8361237d565b90505f73ffffffffffffffffffffffffffffffffffffffff168173ffffffffffffffffffffffffffffffffffffffff1603611ade57826040517f7e273289000000000000000000000000000000000000000000000000000000008152600401611ad5919061309d565b60405180910390fd5b80915050919050565b5f60055f8381526020019081526020015f205f9054906101000a900473ffffffffffffffffffffffffffffffffffffffff169050919050565b5f33905090565b611b3483838360016123b6565b505050565b5f80611b448461237d565b90505f73ffffffffffffffffffffffffffffffffffffffff168373ffffffffffffffffffffffffffffffffffffffff1614611b8557611b84818486612575565b5b5f73ffffffffffffffffffffffffffffffffffffffff168173ffffffffffffffffffffffffffffffffffffffff1614611c1057611bc45f855f806123b6565b600160045f8373ffffffffffffffffffffffffffffffffffffffff1673ffffffffffffffffffffffffffffffffffffffff1681526020019081526020015f205f82825403925050819055505b5f73ffffffffffffffffffffffffffffffffffffffff168573ffffffffffffffffffffffffffffffffffffffff1614611c8f57600160045f8773ffffffffffffffffffffffffffffffffffffffff1673ffffffffffffffffffffffffffffffffffffffff1681526020019081526020015f205f82825401925050819055505b8460035f8681526020019081526020015f205f6101000a81548173ffffffffffffffffffffffffffffffffffffffff021916908373ffffffffffffffffffffffffffffffffffffffff160217905550838573ffffffffffffffffffffffffffffffffffffffff168273ffffffffffffffffffffffffffffffffffffffff167fddf252ad1be2c89b69c2b068fc378daa952ba7f163c4a11628f55a4df523b3ef60405160405180910390a4809150509392505050565b5f8183611d519190613dd9565b905092915050565b5f805f9054906101000a900473ffffffffffffffffffffffffffffffffffffffff169050815f806101000a81548173ffffffffffffffffffffffffffffffffffffffff021916908373ffffffffffffffffffffffffffffffffffffffff1602179055508173ffffffffffffffffffffffffffffffffffffffff168173ffffffffffffffffffffffffffffffffffffffff167f8be0079c531659141344cd1fd0a4f28419497f9722a3daafe3b4186f6b6457e060405160405180910390a35050565b5f73ffffffffffffffffffffffffffffffffffffffff168273ffffffffffffffffffffffffffffffffffffffff1603611e8a57816040517f5b08ba18000000000000000000000000000000000000000000000000000000008152600401611e819190612e29565b60405180910390fd5b8060065f8573ffffffffffffffffffffffffffffffffffffffff1673ffffffffffffffffffffffffffffffffffffffff1681526020019081526020015f205f8473ffffffffffffffffffffffffffffffffffffffff1673ffffffffffffffffffffffffffffffffffffffff1681526020019081526020015f205f6101000a81548160ff0219169083151502179055508173ffffffffffffffffffffffffffffffffffffffff168373ffffffffffffffffffffffffffffffffffffffff167f17307eab39ab6107e8899845ad3d59bd9653f200f220920489ca2b5937696c3183604051611f769190612b4b565b60405180910390a3505050565b5f8373ffffffffffffffffffffffffffffffffffffffff163b1115612128578273ffffffffffffffffffffffffffffffffffffffff1663150b7a02868685856040518563ffffffff1660e01b8152600401611fe19493929190613e6c565b6020604051808303815f875af192505050801561201c57506040513d601f19601f820116820180604052508101906120199190613eca565b60015b61209d573d805f811461204a576040519150601f19603f3d011682016040523d82523d5f602084013e61204f565b606091505b505f81510361209557836040517f64a0ae9200000000000000000000000000000000000000000000000000000000815260040161208c9190612e29565b60405180910390fd5b805181602001fd5b63150b7a0260e01b7bffffffffffffffffffffffffffffffffffffffffffffffffffffffff1916817bffffffffffffffffffffffffffffffffffffffffffffffffffffffff19161461212657836040517f64a0ae9200000000000000000000000000000000000000000000000000000000815260040161211d9190612e29565b60405180910390fd5b505b5050505050565b60605f82612172576040518060400160405280600281526020017f4e6f0000000000000000000000000000000000000000000000000000000000008152506121a9565b6040518060400160405280600381526020017f59657300000000000000000000000000000000000000000000000000000000008152505b905083600b5f8681526020019081526020015f205f0182600b5f8881526020019081526020015f2060030154600b5f8981526020019081526020015f2060040154600b5f8a81526020019081526020015f206002015460405160200161221496959493929190614279565b60405160208183030381529060405291505092915050565b61223833600a54612638565b612244600a5482612655565b600a547f9e0bfaf38878aad3ebd19b8c8065288eb130f0499a7378363d4652515588ac96826040516122769190612d9f565b60405180910390a2600a5f815480929190612290906135e1565b919050555050565b606060405180602001604052805f815250905090565b60606122b982611a61565b505f6122c3612298565b90505f8151116122e15760405180602001604052805f81525061230c565b806122eb846126af565b6040516020016122fc929190613c57565b6040516020818303038152906040525b915050919050565b5f7f01ffc9a7000000000000000000000000000000000000000000000000000000007bffffffffffffffffffffffffffffffffffffffffffffffffffffffff1916827bffffffffffffffffffffffffffffffffffffffffffffffffffffffff1916149050919050565b5f60035f8381526020019081526020015f205f9054906101000a900473ffffffffffffffffffffffffffffffffffffffff169050919050565b80806123ee57505f73ffffffffffffffffffffffffffffffffffffffff168273ffffffffffffffffffffffffffffffffffffffff1614155b15612520575f6123fd84611a61565b90505f73ffffffffffffffffffffffffffffffffffffffff168373ffffffffffffffffffffffffffffffffffffffff161415801561246757508273ffffffffffffffffffffffffffffffffffffffff168173ffffffffffffffffffffffffffffffffffffffff1614155b801561247a575061247881846117d2565b155b156124bc57826040517fa9fbf51f0000000000000000000000000000000000000000000000000000000081526004016124b39190612e29565b60405180910390fd5b811561251e57838573ffffffffffffffffffffffffffffffffffffffff168273ffffffffffffffffffffffffffffffffffffffff167f8c5be1e5ebec7d5bd14f71427d1e84f3dd0314c0f7b2291e5b200ac8c7c3b92560405160405180910390a45b505b8360055f8581526020019081526020015f205f6101000a81548173ffffffffffffffffffffffffffffffffffffffff021916908373ffffffffffffffffffffffffffffffffffffffff16021790555050505050565b612580838383612779565b612633575f73ffffffffffffffffffffffffffffffffffffffff168373ffffffffffffffffffffffffffffffffffffffff16036125f457806040517f7e2732890000000000000000000000000000000000000000000000000000000081526004016125eb919061309d565b60405180910390fd5b81816040517f177e802f00000000000000000000000000000000000000000000000000000000815260040161262a929190613abe565b60405180910390fd5b505050565b612651828260405180602001604052805f815250612839565b5050565b8060075f8481526020019081526020015f20908161267391906134a9565b507ff8e1a15aba9398e019f0b49df1a4fde98ee17ae345cb5f6b5e2c27f5033e8ce7826040516126a3919061309d565b60405180910390a15050565b60605f60016126bd8461285c565b0190505f8167ffffffffffffffff8111156126db576126da612b7c565b5b6040519080825280601f01601f19166020018201604052801561270d5781602001600182028036833780820191505090505b5090505f82602001820190505b60011561276e578080600190039150507f3031323334353637383961626364656600000000000000000000000000000000600a86061a8153600a85816127635761276261436f565b5b0494505f850361271a575b819350505050919050565b5f8073ffffffffffffffffffffffffffffffffffffffff168373ffffffffffffffffffffffffffffffffffffffff161415801561283057508273ffffffffffffffffffffffffffffffffffffffff168473ffffffffffffffffffffffffffffffffffffffff1614806127f157506127f084846117d2565b5b8061282f57508273ffffffffffffffffffffffffffffffffffffffff1661281783611ae7565b73ffffffffffffffffffffffffffffffffffffffff16145b5b90509392505050565b61284383836129ad565b61285761284e611b20565b5f858585611f83565b505050565b5f805f90507a184f03e93ff9f4daa797ed6e38ed64bf6a1f01000000000000000083106128b8577a184f03e93ff9f4daa797ed6e38ed64bf6a1f01000000000000000083816128ae576128ad61436f565b5b0492506040810190505b6d04ee2d6d415b85acef810000000083106128f5576d04ee2d6d415b85acef810000000083816128eb576128ea61436f565b5b0492506020810190505b662386f26fc10000831061292457662386f26fc10000838161291a5761291961436f565b5b0492506010810190505b6305f5e100831061294d576305f5e10083816129435761294261436f565b5b0492506008810190505b61271083106129725761271083816129685761296761436f565b5b0492506004810190505b60648310612995576064838161298b5761298a61436f565b5b0492506002810190505b600a83106129a4576001810190505b80915050919050565b5f73ffffffffffffffffffffffffffffffffffffffff168273ffffffffffffffffffffffffffffffffffffffff1603612a1d575f6040517f64a0ae92000000000000000000000000000000000000000000000000000000008152600401612a149190612e29565b60405180910390fd5b5f612a2983835f611b39565b90505f73ffffffffffffffffffffffffffffffffffffffff168173ffffffffffffffffffffffffffffffffffffffff1614612a9b575f6040517f73c6ac6e000000000000000000000000000000000000000000000000000000008152600401612a929190612e29565b60405180910390fd5b505050565b5f604051905090565b5f80fd5b5f80fd5b5f7fffffffff0000000000000000000000000000000000000000000000000000000082169050919050565b612ae581612ab1565b8114612aef575f80fd5b50565b5f81359050612b0081612adc565b92915050565b5f60208284031215612b1b57612b1a612aa9565b5b5f612b2884828501612af2565b91505092915050565b5f8115159050919050565b612b4581612b31565b82525050565b5f602082019050612b5e5f830184612b3c565b92915050565b5f80fd5b5f80fd5b5f601f19601f8301169050919050565b7f4e487b71000000000000000000000000000000000000000000000000000000005f52604160045260245ffd5b612bb282612b6c565b810181811067ffffffffffffffff82111715612bd157612bd0612b7c565b5b80604052505050565b5f612be3612aa0565b9050612bef8282612ba9565b919050565b5f67ffffffffffffffff821115612c0e57612c0d612b7c565b5b612c1782612b6c565b9050602081019050919050565b828183375f83830152505050565b5f612c44612c3f84612bf4565b612bda565b905082815260208101848484011115612c6057612c5f612b68565b5b612c6b848285612c24565b509392505050565b5f82601f830112612c8757612c86612b64565b5b8135612c97848260208601612c32565b91505092915050565b5f819050919050565b612cb281612ca0565b8114612cbc575f80fd5b50565b5f81359050612ccd81612ca9565b92915050565b5f805f60608486031215612cea57612ce9612aa9565b5b5f84013567ffffffffffffffff811115612d0757612d06612aad565b5b612d1386828701612c73565b9350506020612d2486828701612cbf565b9250506040612d3586828701612cbf565b9150509250925092565b5f81519050919050565b5f82825260208201905092915050565b8281835e5f83830152505050565b5f612d7182612d3f565b612d7b8185612d49565b9350612d8b818560208601612d59565b612d9481612b6c565b840191505092915050565b5f6020820190508181035f830152612db78184612d67565b905092915050565b5f60208284031215612dd457612dd3612aa9565b5b5f612de184828501612cbf565b91505092915050565b5f73ffffffffffffffffffffffffffffffffffffffff82169050919050565b5f612e1382612dea565b9050919050565b612e2381612e09565b82525050565b5f602082019050612e3c5f830184612e1a565b92915050565b612e4b81612e09565b8114612e55575f80fd5b50565b5f81359050612e6681612e42565b92915050565b5f8060408385031215612e8257612e81612aa9565b5b5f612e8f85828601612e58565b9250506020612ea085828601612cbf565b9150509250929050565b5f805f60608486031215612ec157612ec0612aa9565b5b5f612ece86828701612e58565b9350506020612edf86828701612e58565b9250506040612ef086828701612cbf565b9150509250925092565b5f8060408385031215612f1057612f0f612aa9565b5b5f612f1d85828601612cbf565b9250506020612f2e85828601612cbf565b9150509250929050565b5f819050919050565b5f612f5b612f56612f5184612dea565b612f38565b612dea565b9050919050565b5f612f6c82612f41565b9050919050565b5f612f7d82612f62565b9050919050565b612f8d81612f73565b82525050565b5f602082019050612fa65f830184612f84565b92915050565b612fb581612ca0565b82525050565b5f60a082019050612fce5f830188612fac565b612fdb6020830187612fac565b612fe86040830186612fac565b612ff56060830185612fac565b6130026080830184612b3c565b9695505050505050565b5f60c0820190508181035f8301526130248189612d67565b90506130336020830188612fac565b6130406040830187612fac565b61304d6060830186612fac565b61305a6080830185612fac565b61306760a0830184612b3c565b979650505050505050565b5f6020828403121561308757613086612aa9565b5b5f61309484828501612e58565b91505092915050565b5f6020820190506130b05f830184612fac565b92915050565b6130bf81612b31565b81146130c9575f80fd5b50565b5f813590506130da816130b6565b92915050565b5f80604083850312156130f6576130f5612aa9565b5b5f61310385828601612e58565b9250506020613114858286016130cc565b9150509250929050565b5f67ffffffffffffffff82111561313857613137612b7c565b5b61314182612b6c565b9050602081019050919050565b5f61316061315b8461311e565b612bda565b90508281526020810184848401111561317c5761317b612b68565b5b613187848285612c24565b509392505050565b5f82601f8301126131a3576131a2612b64565b5b81356131b384826020860161314e565b91505092915050565b5f805f80608085870312156131d4576131d3612aa9565b5b5f6131e187828801612e58565b94505060206131f287828801612e58565b935050604061320387828801612cbf565b925050606085013567ffffffffffffffff81111561322457613223612aad565b5b6132308782880161318f565b91505092959194509250565b5f806040838503121561325257613251612aa9565b5b5f61325f85828601612cbf565b9250506020613270858286016130cc565b9150509250929050565b5f80604083850312156132905761328f612aa9565b5b5f61329d85828601612e58565b92505060206132ae85828601612e58565b9150509250929050565b7f4e487b71000000000000000000000000000000000000000000000000000000005f52602260045260245ffd5b5f60028204905060018216806132fc57607f821691505b60208210810361330f5761330e6132b8565b5b50919050565b5f819050815f5260205f209050919050565b5f6020601f8301049050919050565b5f82821b905092915050565b5f600883026133717fffffffffffffffffffffffffffffffffffffffffffffffffffffffffffffffff82613336565b61337b8683613336565b95508019841693508086168417925050509392505050565b5f6133ad6133a86133a384612ca0565b612f38565b612ca0565b9050919050565b5f819050919050565b6133c683613393565b6133da6133d2826133b4565b848454613342565b825550505050565b5f90565b6133ee6133e2565b6133f98184846133bd565b505050565b5b8181101561341c576134115f826133e6565b6001810190506133ff565b5050565b601f8211156134615761343281613315565b61343b84613327565b8101602085101561344a578190505b61345e61345685613327565b8301826133fe565b50505b505050565b5f82821c905092915050565b5f6134815f1984600802613466565b1980831691505092915050565b5f6134998383613472565b9150826002028217905092915050565b6134b282612d3f565b67ffffffffffffffff8111156134cb576134ca612b7c565b5b6134d582546132e5565b6134e0828285613420565b5f60209050601f831160018114613511575f84156134ff578287015190505b613509858261348e565b865550613570565b601f19841661351f86613315565b5f5b8281101561354657848901518255600182019150602085019450602081019050613521565b86831015613563578489015161355f601f891682613472565b8355505b6001600288020188555050505b505050505050565b5f6060820190508181035f8301526135908186612d67565b905061359f6020830185612fac565b6135ac6040830184612fac565b949350505050565b7f4e487b71000000000000000000000000000000000000000000000000000000005f52601160045260245ffd5b5f6135eb82612ca0565b91507fffffffffffffffffffffffffffffffffffffffffffffffffffffffffffffffff820361361d5761361c6135b4565b5b600182019050919050565b5f60608201905061363b5f830186612e1a565b6136486020830185612fac565b6136556040830184612e1a565b949350505050565b7f496e76616c6964207374616b696e6720706572696f64000000000000000000005f82015250565b5f613691601683612d49565b915061369c8261365d565b602082019050919050565b5f6020820190508181035f8301526136be81613685565b9050919050565b5f6060820190506136d85f830186612e1a565b6136e56020830185612e1a565b6136f26040830184612fac565b949350505050565b5f81519050613708816130b6565b92915050565b5f6020828403121561372357613722612aa9565b5b5f613730848285016136fa565b91505092915050565b7f5374616b65206661696c656400000000000000000000000000000000000000005f82015250565b5f61376d600c83612d49565b915061377882613739565b602082019050919050565b5f6020820190508181035f83015261379a81613761565b9050919050565b5f8160011c9050919050565b5f808291508390505b60018511156137f6578086048111156137d2576137d16135b4565b5b60018516156137e15780820291505b80810290506137ef856137a1565b94506137b6565b94509492505050565b5f8261380e57600190506138c9565b8161381b575f90506138c9565b8160018114613831576002811461383b5761386a565b60019150506138c9565b60ff84111561384d5761384c6135b4565b5b8360020a915084821115613864576138636135b4565b5b506138c9565b5060208310610133831016604e8410600b841016171561389f5782820a90508381111561389a576138996135b4565b5b6138c9565b6138ac84848460016137ad565b925090508184048111156138c3576138c26135b4565b5b81810290505b9392505050565b5f60ff82169050919050565b5f6138e682612ca0565b91506138f1836138d0565b925061391e7fffffffffffffffffffffffffffffffffffffffffffffffffffffffffffffffff84846137ff565b905092915050565b7f496e76616c6964207374616b6520696e646578000000000000000000000000005f82015250565b5f61395a601383612d49565b915061396582613926565b602082019050919050565b5f6020820190508181035f8301526139878161394e565b9050919050565b7f4e487b71000000000000000000000000000000000000000000000000000000005f52603260045260245ffd5b7f5374616b6520616c726561647920756e7374616b6564000000000000000000005f82015250565b5f6139ef601683612d49565b91506139fa826139bb565b602082019050919050565b5f6020820190508181035f830152613a1c816139e3565b9050919050565b5f613a2d82612ca0565b9150613a3883612ca0565b9250828201905080821115613a5057613a4f6135b4565b5b92915050565b7f5374616b696e6720706572696f64206e6f7420796574206f76657200000000005f82015250565b5f613a8a601b83612d49565b9150613a9582613a56565b602082019050919050565b5f6020820190508181035f830152613ab781613a7e565b9050919050565b5f604082019050613ad15f830185612e1a565b613ade6020830184612fac565b9392505050565b7f556e7374616b65206661696c65640000000000000000000000000000000000005f82015250565b5f613b19600e83612d49565b9150613b2482613ae5565b602082019050919050565b5f6020820190508181035f830152613b4681613b0d565b9050919050565b7f43616e277420656e6420766f7465206e6f7700000000000000000000000000005f82015250565b5f613b81601283612d49565b9150613b8c82613b4d565b602082019050919050565b5f6020820190508181035f830152613bae81613b75565b9050919050565b7f566f746520697320616c726561647920656e64656400000000000000000000005f82015250565b5f613be9601583612d49565b9150613bf482613bb5565b602082019050919050565b5f6020820190508181035f830152613c1681613bdd565b9050919050565b5f81905092915050565b5f613c3182612d3f565b613c3b8185613c1d565b9350613c4b818560208601612d59565b80840191505092915050565b5f613c628285613c27565b9150613c6e8284613c27565b91508190509392505050565b7f566f746520656e646564000000000000000000000000000000000000000000005f82015250565b5f613cae600a83612d49565b9150613cb982613c7a565b602082019050919050565b5f6020820190508181035f830152613cdb81613ca2565b9050919050565b7f416c726561647920766f746564000000000000000000000000000000000000005f82015250565b5f613d16600d83612d49565b9150613d2182613ce2565b602082019050919050565b5f6020820190508181035f830152613d4381613d0a565b9050919050565b7f4e6f20766f74696e6720706f77657200000000000000000000000000000000005f82015250565b5f613d7e600f83612d49565b9150613d8982613d4a565b602082019050919050565b5f6020820190508181035f830152613dab81613d72565b9050919050565b5f604082019050613dc55f830185612b3c565b613dd26020830184612fac565b9392505050565b5f613de382612ca0565b9150613dee83612ca0565b9250828202613dfc81612ca0565b91508282048414831517613e1357613e126135b4565b5b5092915050565b5f81519050919050565b5f82825260208201905092915050565b5f613e3e82613e1a565b613e488185613e24565b9350613e58818560208601612d59565b613e6181612b6c565b840191505092915050565b5f608082019050613e7f5f830187612e1a565b613e8c6020830186612e1a565b613e996040830185612fac565b8181036060830152613eab8184613e34565b905095945050505050565b5f81519050613ec481612adc565b92915050565b5f60208284031215613edf57613ede612aa9565b5b5f613eec84828501613eb6565b91505092915050565b7f646174613a6170706c69636174696f6e2f6a736f6e3b757466382c00000000005f82015250565b5f613f29601b83613c1d565b9150613f3482613ef5565b601b82019050919050565b7f7b226e616d65223a225665676120566f746520526573756c74202300000000005f82015250565b5f613f73601b83613c1d565b9150613f7e82613f3f565b601b82019050919050565b5f819050919050565b613fa3613f9e82612ca0565b613f89565b82525050565b7f222c0000000000000000000000000000000000000000000000000000000000005f82015250565b5f613fdd600283613c1d565b9150613fe882613fa9565b600282019050919050565b7f226465736372697074696f6e223a2200000000000000000000000000000000005f82015250565b5f614027600f83613c1d565b915061403282613ff3565b600f82019050919050565b5f8154614049816132e5565b6140538186613c1d565b9450600182165f811461406d5760018114614082576140b4565b60ff19831686528115158202860193506140b4565b61408b85613315565b5f5b838110156140ac5781548189015260018201915060208101905061408d565b838801955050505b50505092915050565b7f22726573756c74223a22000000000000000000000000000000000000000000005f82015250565b5f6140f1600a83613c1d565b91506140fc826140bd565b600a82019050919050565b7f22796573566f746573223a0000000000000000000000000000000000000000005f82015250565b5f61413b600b83613c1d565b915061414682614107565b600b82019050919050565b7f2c000000000000000000000000000000000000000000000000000000000000005f82015250565b5f614185600183613c1d565b915061419082614151565b600182019050919050565b7f226e6f566f746573223a000000000000000000000000000000000000000000005f82015250565b5f6141cf600a83613c1d565b91506141da8261419b565b600a82019050919050565b7f227468726573686f6c64223a00000000000000000000000000000000000000005f82015250565b5f614219600c83613c1d565b9150614224826141e5565b600c82019050919050565b7f7d000000000000000000000000000000000000000000000000000000000000005f82015250565b5f614263600183613c1d565b915061426e8261422f565b600182019050919050565b5f61428382613f1d565b915061428e82613f67565b915061429a8289613f92565b6020820191506142a982613fd1565b91506142b48261401b565b91506142c0828861403d565b91506142cb82613fd1565b91506142d6826140e5565b91506142e28287613c27565b91506142ed82613fd1565b91506142f88261412f565b91506143048286613f92565b60208201915061431382614179565b915061431e826141c3565b915061432a8285613f92565b60208201915061433982614179565b91506143448261420d565b91506143508284613f92565b60208201915061435f82614257565b9150819050979650505050505050565b7f4e487b71000000000000000000000000000000000000000000000000000000005f52601260045260245ffdfea2646970667358221220b8968ab0aced5bb9e192ba15c9fffa6aebaf51b72a5659d63c4bfecab966fbb964736f6c634300081a0033",
			"opcodes": "PUSH1 0x80 PUSH1 0x40 MSTORE CALLVALUE DUP1 ISZERO PUSH2 0xF JUMPI PUSH0 DUP1 REVERT JUMPDEST POP PUSH1 0x40 MLOAD PUSH2 0x49E0 CODESIZE SUB DUP1 PUSH2 0x49E0 DUP4 CODECOPY DUP2 DUP2 ADD PUSH1 0x40 MSTORE DUP2 ADD SWAP1 PUSH2 0x31 SWAP2 SWAP1 PUSH2 0x2A5 JUMP JUMPDEST PUSH1 0x40 MLOAD DUP1 PUSH1 0x40 ADD PUSH1 0x40 MSTORE DUP1 PUSH1 0xC DUP2 MSTORE PUSH1 0x20 ADD PUSH32 0x566F74696E67526573756C740000000000000000000000000000000000000000 DUP2 MSTORE POP PUSH1 0x40 MLOAD DUP1 PUSH1 0x40 ADD PUSH1 0x40 MSTORE DUP1 PUSH1 0x4 DUP2 MSTORE PUSH1 0x20 ADD PUSH32 0x5647565400000000000000000000000000000000000000000000000000000000 DUP2 MSTORE POP CALLER PUSH0 PUSH20 0xFFFFFFFFFFFFFFFFFFFFFFFFFFFFFFFFFFFFFFFF AND DUP2 PUSH20 0xFFFFFFFFFFFFFFFFFFFFFFFFFFFFFFFFFFFFFFFF AND SUB PUSH2 0x10E JUMPI PUSH0 PUSH1 0x40 MLOAD PUSH32 0x1E4FBDF700000000000000000000000000000000000000000000000000000000 DUP2 MSTORE PUSH1 0x4 ADD PUSH2 0x105 SWAP2 SWAP1 PUSH2 0x2DF JUMP JUMPDEST PUSH1 0x40 MLOAD DUP1 SWAP2 SUB SWAP1 REVERT JUMPDEST PUSH2 0x11D DUP2 PUSH2 0x186 PUSH1 0x20 SHL PUSH1 0x20 SHR JUMP JUMPDEST POP DUP2 PUSH1 0x1 SWAP1 DUP2 PUSH2 0x12D SWAP2 SWAP1 PUSH2 0x532 JUMP JUMPDEST POP DUP1 PUSH1 0x2 SWAP1 DUP2 PUSH2 0x13D SWAP2 SWAP1 PUSH2 0x532 JUMP JUMPDEST POP POP POP DUP1 PUSH1 0x8 PUSH0 PUSH2 0x100 EXP DUP2 SLOAD DUP2 PUSH20 0xFFFFFFFFFFFFFFFFFFFFFFFFFFFFFFFFFFFFFFFF MUL NOT AND SWAP1 DUP4 PUSH20 0xFFFFFFFFFFFFFFFFFFFFFFFFFFFFFFFFFFFFFFFF AND MUL OR SWAP1 SSTORE POP POP PUSH2 0x601 JUMP JUMPDEST PUSH0 DUP1 PUSH0 SWAP1 SLOAD SWAP1 PUSH2 0x100 EXP SWAP1 DIV PUSH20 0xFFFFFFFFFFFFFFFFFFFFFFFFFFFFFFFFFFFFFFFF AND SWAP1 POP DUP2 PUSH0 DUP1 PUSH2 0x100 EXP DUP2 SLOAD DUP2 PUSH20 0xFFFFFFFFFFFFFFFFFFFFFFFFFFFFFFFFFFFFFFFF MUL NOT AND SWAP1 DUP4 PUSH20 0xFFFFFFFFFFFFFFFFFFFFFFFFFFFFFFFFFFFFFFFF AND MUL OR SWAP1 SSTORE POP DUP2 PUSH20 0xFFFFFFFFFFFFFFFFFFFFFFFFFFFFFFFFFFFFFFFF AND DUP2 PUSH20 0xFFFFFFFFFFFFFFFFFFFFFFFFFFFFFFFFFFFFFFFF AND PUSH32 0x8BE0079C531659141344CD1FD0A4F28419497F9722A3DAAFE3B4186F6B6457E0 PUSH1 0x40 MLOAD PUSH1 0x40 MLOAD DUP1 SWAP2 SUB SWAP1 LOG3 POP POP JUMP JUMPDEST PUSH0 DUP1 REVERT JUMPDEST PUSH0 PUSH20 0xFFFFFFFFFFFFFFFFFFFFFFFFFFFFFFFFFFFFFFFF DUP3 AND SWAP1 POP SWAP2 SWAP1 POP JUMP JUMPDEST PUSH0 PUSH2 0x274 DUP3 PUSH2 0x24B JUMP JUMPDEST SWAP1 POP SWAP2 SWAP1 POP JUMP JUMPDEST PUSH2 0x284 DUP2 PUSH2 0x26A JUMP JUMPDEST DUP2 EQ PUSH2 0x28E JUMPI PUSH0 DUP1 REVERT JUMPDEST POP JUMP JUMPDEST PUSH0 DUP2 MLOAD SWAP1 POP PUSH2 0x29F DUP2 PUSH2 0x27B JUMP JUMPDEST SWAP3 SWAP2 POP POP JUMP JUMPDEST PUSH0 PUSH1 0x20 DUP3 DUP5 SUB SLT ISZERO PUSH2 0x2BA JUMPI PUSH2 0x2B9 PUSH2 0x247 JUMP JUMPDEST JUMPDEST PUSH0 PUSH2 0x2C7 DUP5 DUP3 DUP6 ADD PUSH2 0x291 JUMP JUMPDEST SWAP2 POP POP SWAP3 SWAP2 POP POP JUMP JUMPDEST PUSH2 0x2D9 DUP2 PUSH2 0x26A JUMP JUMPDEST DUP3 MSTORE POP POP JUMP JUMPDEST PUSH0 PUSH1 0x20 DUP3 ADD SWAP1 POP PUSH2 0x2F2 PUSH0 DUP4 ADD DUP5 PUSH2 0x2D0 JUMP JUMPDEST SWAP3 SWAP2 POP POP JUMP JUMPDEST PUSH0 DUP2 MLOAD SWAP1 POP SWAP2 SWAP1 POP JUMP JUMPDEST PUSH32 0x4E487B7100000000000000000000000000000000000000000000000000000000 PUSH0 MSTORE PUSH1 0x41 PUSH1 0x4 MSTORE PUSH1 0x24 PUSH0 REVERT JUMPDEST PUSH32 0x4E487B7100000000000000000000000000000000000000000000000000000000 PUSH0 MSTORE PUSH1 0x22 PUSH1 0x4 MSTORE PUSH1 0x24 PUSH0 REVERT JUMPDEST PUSH0 PUSH1 0x2 DUP3 DIV SWAP1 POP PUSH1 0x1 DUP3 AND DUP1 PUSH2 0x373 JUMPI PUSH1 0x7F DUP3 AND SWAP2 POP JUMPDEST PUSH1 0x20 DUP3 LT DUP2 SUB PUSH2 0x386 JUMPI PUSH2 0x385 PUSH2 0x32F JUMP JUMPDEST JUMPDEST POP SWAP2 SWAP1 POP JUMP JUMPDEST PUSH0 DUP2 SWAP1 POP DUP2 PUSH0 MSTORE PUSH1 0x20 PUSH0 KECCAK256 SWAP1 POP SWAP2 SWAP1 POP JUMP JUMPDEST PUSH0 PUSH1 0x20 PUSH1 0x1F DUP4 ADD DIV SWAP1 POP SWAP2 SWAP1 POP JUMP JUMPDEST PUSH0 DUP3 DUP3 SHL SWAP1 POP SWAP3 SWAP2 POP POP JUMP JUMPDEST PUSH0 PUSH1 0x8 DUP4 MUL PUSH2 0x3E8 PUSH32 0xFFFFFFFFFFFFFFFFFFFFFFFFFFFFFFFFFFFFFFFFFFFFFFFFFFFFFFFFFFFFFFFF DUP3 PUSH2 0x3AD JUMP JUMPDEST PUSH2 0x3F2 DUP7 DUP4 PUSH2 0x3AD JUMP JUMPDEST SWAP6 POP DUP1 NOT DUP5 AND SWAP4 POP DUP1 DUP7 AND DUP5 OR SWAP3 POP POP POP SWAP4 SWAP3 POP POP POP JUMP JUMPDEST PUSH0 DUP2 SWAP1 POP SWAP2 SWAP1 POP JUMP JUMPDEST PUSH0 DUP2 SWAP1 POP SWAP2 SWAP1 POP JUMP JUMPDEST PUSH0 PUSH2 0x436 PUSH2 0x431 PUSH2 0x42C DUP5 PUSH2 0x40A JUMP JUMPDEST PUSH2 0x413 JUMP JUMPDEST PUSH2 0x40A JUMP JUMPDEST SWAP1 POP SWAP2 SWAP1 POP JUMP JUMPDEST PUSH0 DUP2 SWAP1 POP SWAP2 SWAP1 POP JUMP JUMPDEST PUSH2 0x44F DUP4 PUSH2 0x41C JUMP JUMPDEST PUSH2 0x463 PUSH2 0x45B DUP3 PUSH2 0x43D JUMP JUMPDEST DUP5 DUP5 SLOAD PUSH2 0x3B9 JUMP JUMPDEST DUP3 SSTORE POP POP POP POP JUMP JUMPDEST PUSH0 SWAP1 JUMP JUMPDEST PUSH2 0x477 PUSH2 0x46B JUMP JUMPDEST PUSH2 0x482 DUP2 DUP5 DUP5 PUSH2 0x446 JUMP JUMPDEST POP POP POP JUMP JUMPDEST JUMPDEST DUP2 DUP2 LT ISZERO PUSH2 0x4A5 JUMPI PUSH2 0x49A PUSH0 DUP3 PUSH2 0x46F JUMP JUMPDEST PUSH1 0x1 DUP2 ADD SWAP1 POP PUSH2 0x488 JUMP JUMPDEST POP POP JUMP JUMPDEST PUSH1 0x1F DUP3 GT ISZERO PUSH2 0x4EA JUMPI PUSH2 0x4BB DUP2 PUSH2 0x38C JUMP JUMPDEST PUSH2 0x4C4 DUP5 PUSH2 0x39E JUMP JUMPDEST DUP2 ADD PUSH1 0x20 DUP6 LT ISZERO PUSH2 0x4D3 JUMPI DUP2 SWAP1 POP JUMPDEST PUSH2 0x4E7 PUSH2 0x4DF DUP6 PUSH2 0x39E JUMP JUMPDEST DUP4 ADD DUP3 PUSH2 0x487 JUMP JUMPDEST POP POP JUMPDEST POP POP POP JUMP JUMPDEST PUSH0 DUP3 DUP3 SHR SWAP1 POP SWAP3 SWAP2 POP POP JUMP JUMPDEST PUSH0 PUSH2 0x50A PUSH0 NOT DUP5 PUSH1 0x8 MUL PUSH2 0x4EF JUMP JUMPDEST NOT DUP1 DUP4 AND SWAP2 POP POP SWAP3 SWAP2 POP POP JUMP JUMPDEST PUSH0 PUSH2 0x522 DUP4 DUP4 PUSH2 0x4FB JUMP JUMPDEST SWAP2 POP DUP3 PUSH1 0x2 MUL DUP3 OR SWAP1 POP SWAP3 SWAP2 POP POP JUMP JUMPDEST PUSH2 0x53B DUP3 PUSH2 0x2F8 JUMP JUMPDEST PUSH8 0xFFFFFFFFFFFFFFFF DUP2 GT ISZERO PUSH2 0x554 JUMPI PUSH2 0x553 PUSH2 0x302 JUMP JUMPDEST JUMPDEST PUSH2 0x55E DUP3 SLOAD PUSH2 0x35C JUMP JUMPDEST PUSH2 0x569 DUP3 DUP3 DUP6 PUSH2 0x4A9 JUMP JUMPDEST PUSH0 PUSH1 0x20 SWAP1 POP PUSH1 0x1F DUP4 GT PUSH1 0x1 DUP2 EQ PUSH2 0x59A JUMPI PUSH0 DUP5 ISZERO PUSH2 0x588 JUMPI DUP3 DUP8 ADD MLOAD SWAP1 POP JUMPDEST PUSH2 0x592 DUP6 DUP3 PUSH2 0x517 JUMP JUMPDEST DUP7 SSTORE POP PUSH2 0x5F9 JUMP JUMPDEST PUSH1 0x1F NOT DUP5 AND PUSH2 0x5A8 DUP7 PUSH2 0x38C JUMP JUMPDEST PUSH0 JUMPDEST DUP3 DUP2 LT ISZERO PUSH2 0x5CF JUMPI DUP5 DUP10 ADD MLOAD DUP3 SSTORE PUSH1 0x1 DUP3 ADD SWAP2 POP PUSH1 0x20 DUP6 ADD SWAP5 POP PUSH1 0x20 DUP2 ADD SWAP1 POP PUSH2 0x5AA JUMP JUMPDEST DUP7 DUP4 LT ISZERO PUSH2 0x5EC JUMPI DUP5 DUP10 ADD MLOAD PUSH2 0x5E8 PUSH1 0x1F DUP10 AND DUP3 PUSH2 0x4FB JUMP JUMPDEST DUP4 SSTORE POP JUMPDEST PUSH1 0x1 PUSH1 0x2 DUP9 MUL ADD DUP9 SSTORE POP POP POP JUMPDEST POP POP POP POP POP POP JUMP JUMPDEST PUSH2 0x43D2 DUP1 PUSH2 0x60E PUSH0 CODECOPY PUSH0 RETURN INVALID PUSH1 0x80 PUSH1 0x40 MSTORE CALLVALUE DUP1 ISZERO PUSH2 0xF JUMPI PUSH0 DUP1 REVERT JUMPDEST POP PUSH1 0x4 CALLDATASIZE LT PUSH2 0x1A7 JUMPI PUSH0 CALLDATALOAD PUSH1 0xE0 SHR DUP1 PUSH4 0x6352211E GT PUSH2 0xF7 JUMPI DUP1 PUSH4 0xB88D4FDE GT PUSH2 0x95 JUMPI DUP1 PUSH4 0xC9D27AFE GT PUSH2 0x6F JUMPI DUP1 PUSH4 0xC9D27AFE EQ PUSH2 0x4D0 JUMPI DUP1 PUSH4 0xE207D04D EQ PUSH2 0x4EC JUMPI DUP1 PUSH4 0xE985E9C5 EQ PUSH2 0x50A JUMPI DUP1 PUSH4 0xF2FDE38B EQ PUSH2 0x53A JUMPI PUSH2 0x1A7 JUMP JUMPDEST DUP1 PUSH4 0xB88D4FDE EQ PUSH2 0x468 JUMPI DUP1 PUSH4 0xC1FA3B2E EQ PUSH2 0x484 JUMPI DUP1 PUSH4 0xC87B56DD EQ PUSH2 0x4A0 JUMPI PUSH2 0x1A7 JUMP JUMPDEST DUP1 PUSH4 0x8DA5CB5B GT PUSH2 0xD1 JUMPI DUP1 PUSH4 0x8DA5CB5B EQ PUSH2 0x3F2 JUMPI DUP1 PUSH4 0x93F1DA4F EQ PUSH2 0x410 JUMPI DUP1 PUSH4 0x95D89B41 EQ PUSH2 0x42E JUMPI DUP1 PUSH4 0xA22CB465 EQ PUSH2 0x44C JUMPI PUSH2 0x1A7 JUMP JUMPDEST DUP1 PUSH4 0x6352211E EQ PUSH2 0x388 JUMPI DUP1 PUSH4 0x70A08231 EQ PUSH2 0x3B8 JUMPI DUP1 PUSH4 0x715018A6 EQ PUSH2 0x3E8 JUMPI PUSH2 0x1A7 JUMP JUMPDEST DUP1 PUSH4 0x3B7B6188 GT PUSH2 0x164 JUMPI DUP1 PUSH4 0x42842E0E GT PUSH2 0x13E JUMPI DUP1 PUSH4 0x42842E0E EQ PUSH2 0x2E7 JUMPI DUP1 PUSH4 0x584B62A1 EQ PUSH2 0x303 JUMPI DUP1 PUSH4 0x5DF81330 EQ PUSH2 0x337 JUMPI DUP1 PUSH4 0x608E4DD0 EQ PUSH2 0x36C JUMPI PUSH2 0x1A7 JUMP JUMPDEST DUP1 PUSH4 0x3B7B6188 EQ PUSH2 0x27D JUMPI DUP1 PUSH4 0x41EE31FF EQ PUSH2 0x299 JUMPI DUP1 PUSH4 0x42545825 EQ PUSH2 0x2B7 JUMPI PUSH2 0x1A7 JUMP JUMPDEST DUP1 PUSH4 0x1FFC9A7 EQ PUSH2 0x1AB JUMPI DUP1 PUSH4 0x29FC3E8 EQ PUSH2 0x1DB JUMPI DUP1 PUSH4 0x6FDDE03 EQ PUSH2 0x1F7 JUMPI DUP1 PUSH4 0x81812FC EQ PUSH2 0x215 JUMPI DUP1 PUSH4 0x95EA7B3 EQ PUSH2 0x245 JUMPI DUP1 PUSH4 0x23B872DD EQ PUSH2 0x261 JUMPI JUMPDEST PUSH0 DUP1 REVERT JUMPDEST PUSH2 0x1C5 PUSH1 0x4 DUP1 CALLDATASIZE SUB DUP2 ADD SWAP1 PUSH2 0x1C0 SWAP2 SWAP1 PUSH2 0x2B06 JUMP JUMPDEST PUSH2 0x556 JUMP JUMPDEST PUSH1 0x40 MLOAD PUSH2 0x1D2 SWAP2 SWAP1 PUSH2 0x2B4B JUMP JUMPDEST PUSH1 0x40 MLOAD DUP1 SWAP2 SUB SWAP1 RETURN JUMPDEST PUSH2 0x1F5 PUSH1 0x4 DUP1 CALLDATASIZE SUB DUP2 ADD SWAP1 PUSH2 0x1F0 SWAP2 SWAP1 PUSH2 0x2CD3 JUMP JUMPDEST PUSH2 0x5B6 JUMP JUMPDEST STOP JUMPDEST PUSH2 0x1FF PUSH2 0x6CF JUMP JUMPDEST PUSH1 0x40 MLOAD PUSH2 0x20C SWAP2 SWAP1 PUSH2 0x2D9F JUMP JUMPDEST PUSH1 0x40 MLOAD DUP1 SWAP2 SUB SWAP1 RETURN JUMPDEST PUSH2 0x22F PUSH1 0x4 DUP1 CALLDATASIZE SUB DUP2 ADD SWAP1 PUSH2 0x22A SWAP2 SWAP1 PUSH2 0x2DBF JUMP JUMPDEST PUSH2 0x75F JUMP JUMPDEST PUSH1 0x40 MLOAD PUSH2 0x23C SWAP2 SWAP1 PUSH2 0x2E29 JUMP JUMPDEST PUSH1 0x40 MLOAD DUP1 SWAP2 SUB SWAP1 RETURN JUMPDEST PUSH2 0x25F PUSH1 0x4 DUP1 CALLDATASIZE SUB DUP2 ADD SWAP1 PUSH2 0x25A SWAP2 SWAP1 PUSH2 0x2E6C JUMP JUMPDEST PUSH2 0x77A JUMP JUMPDEST STOP JUMPDEST PUSH2 0x27B PUSH1 0x4 DUP1 CALLDATASIZE SUB DUP2 ADD SWAP1 PUSH2 0x276 SWAP2 SWAP1 PUSH2 0x2EAA JUMP JUMPDEST PUSH2 0x790 JUMP JUMPDEST STOP JUMPDEST PUSH2 0x297 PUSH1 0x4 DUP1 CALLDATASIZE SUB DUP2 ADD SWAP1 PUSH2 0x292 SWAP2 SWAP1 PUSH2 0x2EFA JUMP JUMPDEST PUSH2 0x88F JUMP JUMPDEST STOP JUMPDEST PUSH2 0x2A1 PUSH2 0xABA JUMP JUMPDEST PUSH1 0x40 MLOAD PUSH2 0x2AE SWAP2 SWAP1 PUSH2 0x2F93 JUMP JUMPDEST PUSH1 0x40 MLOAD DUP1 SWAP2 SUB SWAP1 RETURN JUMPDEST PUSH2 0x2D1 PUSH1 0x4 DUP1 CALLDATASIZE SUB DUP2 ADD SWAP1 PUSH2 0x2CC SWAP2 SWAP1 PUSH2 0x2E6C JUMP JUMPDEST PUSH2 0xADF JUMP JUMPDEST PUSH1 0x40 MLOAD PUSH2 0x2DE SWAP2 SWAP1 PUSH2 0x2B4B JUMP JUMPDEST PUSH1 0x40 MLOAD DUP1 SWAP2 SUB SWAP1 RETURN JUMPDEST PUSH2 0x301 PUSH1 0x4 DUP1 CALLDATASIZE SUB DUP2 ADD SWAP1 PUSH2 0x2FC SWAP2 SWAP1 PUSH2 0x2EAA JUMP JUMPDEST PUSH2 0xB09 JUMP JUMPDEST STOP JUMPDEST PUSH2 0x31D PUSH1 0x4 DUP1 CALLDATASIZE SUB DUP2 ADD SWAP1 PUSH2 0x318 SWAP2 SWAP1 PUSH2 0x2E6C JUMP JUMPDEST PUSH2 0xB28 JUMP JUMPDEST PUSH1 0x40 MLOAD PUSH2 0x32E SWAP6 SWAP5 SWAP4 SWAP3 SWAP2 SWAP1 PUSH2 0x2FBB JUMP JUMPDEST PUSH1 0x40 MLOAD DUP1 SWAP2 SUB SWAP1 RETURN JUMPDEST PUSH2 0x351 PUSH1 0x4 DUP1 CALLDATASIZE SUB DUP2 ADD SWAP1 PUSH2 0x34C SWAP2 SWAP1 PUSH2 0x2DBF JUMP JUMPDEST PUSH2 0xB80 JUMP JUMPDEST PUSH1 0x40 MLOAD PUSH2 0x363 SWAP7 SWAP6 SWAP5 SWAP4 SWAP3 SWAP2 SWAP1 PUSH2 0x300C JUMP JUMPDEST PUSH1 0x40 MLOAD DUP1 SWAP2 SUB SWAP1 RETURN JUMPDEST PUSH2 0x386 PUSH1 0x4 DUP1 CALLDATASIZE SUB DUP2 ADD SWAP1 PUSH2 0x381 SWAP2 SWAP1 PUSH2 0x2DBF JUMP JUMPDEST PUSH2 0xC4A JUMP JUMPDEST STOP JUMPDEST PUSH2 0x3A2 PUSH1 0x4 DUP1 CALLDATASIZE SUB DUP2 ADD SWAP1 PUSH2 0x39D SWAP2 SWAP1 PUSH2 0x2DBF JUMP JUMPDEST PUSH2 0xF20 JUMP JUMPDEST PUSH1 0x40 MLOAD PUSH2 0x3AF SWAP2 SWAP1 PUSH2 0x2E29 JUMP JUMPDEST PUSH1 0x40 MLOAD DUP1 SWAP2 SUB SWAP1 RETURN JUMPDEST PUSH2 0x3D2 PUSH1 0x4 DUP1 CALLDATASIZE SUB DUP2 ADD SWAP1 PUSH2 0x3CD SWAP2 SWAP1 PUSH2 0x3072 JUMP JUMPDEST PUSH2 0xF31 JUMP JUMPDEST PUSH1 0x40 MLOAD PUSH2 0x3DF SWAP2 SWAP1 PUSH2 0x309D JUMP JUMPDEST PUSH1 0x40 MLOAD DUP1 SWAP2 SUB SWAP1 RETURN JUMPDEST PUSH2 0x3F0 PUSH2 0xFE7 JUMP JUMPDEST STOP JUMPDEST PUSH2 0x3FA PUSH2 0xFFA JUMP JUMPDEST PUSH1 0x40 MLOAD PUSH2 0x407 SWAP2 SWAP1 PUSH2 0x2E29 JUMP JUMPDEST PUSH1 0x40 MLOAD DUP1 SWAP2 SUB SWAP1 RETURN JUMPDEST PUSH2 0x418 PUSH2 0x1021 JUMP JUMPDEST PUSH1 0x40 MLOAD PUSH2 0x425 SWAP2 SWAP1 PUSH2 0x309D JUMP JUMPDEST PUSH1 0x40 MLOAD DUP1 SWAP2 SUB SWAP1 RETURN JUMPDEST PUSH2 0x436 PUSH2 0x1027 JUMP JUMPDEST PUSH1 0x40 MLOAD PUSH2 0x443 SWAP2 SWAP1 PUSH2 0x2D9F JUMP JUMPDEST PUSH1 0x40 MLOAD DUP1 SWAP2 SUB SWAP1 RETURN JUMPDEST PUSH2 0x466 PUSH1 0x4 DUP1 CALLDATASIZE SUB DUP2 ADD SWAP1 PUSH2 0x461 SWAP2 SWAP1 PUSH2 0x30E0 JUMP JUMPDEST PUSH2 0x10B7 JUMP JUMPDEST STOP JUMPDEST PUSH2 0x482 PUSH1 0x4 DUP1 CALLDATASIZE SUB DUP2 ADD SWAP1 PUSH2 0x47D SWAP2 SWAP1 PUSH2 0x31BC JUMP JUMPDEST PUSH2 0x10CD JUMP JUMPDEST STOP JUMPDEST PUSH2 0x49E PUSH1 0x4 DUP1 CALLDATASIZE SUB DUP2 ADD SWAP1 PUSH2 0x499 SWAP2 SWAP1 PUSH2 0x2DBF JUMP JUMPDEST PUSH2 0x10F2 JUMP JUMPDEST STOP JUMPDEST PUSH2 0x4BA PUSH1 0x4 DUP1 CALLDATASIZE SUB DUP2 ADD SWAP1 PUSH2 0x4B5 SWAP2 SWAP1 PUSH2 0x2DBF JUMP JUMPDEST PUSH2 0x12B0 JUMP JUMPDEST PUSH1 0x40 MLOAD PUSH2 0x4C7 SWAP2 SWAP1 PUSH2 0x2D9F JUMP JUMPDEST PUSH1 0x40 MLOAD DUP1 SWAP2 SUB SWAP1 RETURN JUMPDEST PUSH2 0x4EA PUSH1 0x4 DUP1 CALLDATASIZE SUB DUP2 ADD SWAP1 PUSH2 0x4E5 SWAP2 SWAP1 PUSH2 0x323C JUMP JUMPDEST PUSH2 0x13BB JUMP JUMPDEST STOP JUMPDEST PUSH2 0x4F4 PUSH2 0x17CC JUMP JUMPDEST PUSH1 0x40 MLOAD PUSH2 0x501 SWAP2 SWAP1 PUSH2 0x309D JUMP JUMPDEST PUSH1 0x40 MLOAD DUP1 SWAP2 SUB SWAP1 RETURN JUMPDEST PUSH2 0x524 PUSH1 0x4 DUP1 CALLDATASIZE SUB DUP2 ADD SWAP1 PUSH2 0x51F SWAP2 SWAP1 PUSH2 0x327A JUMP JUMPDEST PUSH2 0x17D2 JUMP JUMPDEST PUSH1 0x40 MLOAD PUSH2 0x531 SWAP2 SWAP1 PUSH2 0x2B4B JUMP JUMPDEST PUSH1 0x40 MLOAD DUP1 SWAP2 SUB SWAP1 RETURN JUMPDEST PUSH2 0x554 PUSH1 0x4 DUP1 CALLDATASIZE SUB DUP2 ADD SWAP1 PUSH2 0x54F SWAP2 SWAP1 PUSH2 0x3072 JUMP JUMPDEST PUSH2 0x1860 JUMP JUMPDEST STOP JUMPDEST PUSH0 PUSH4 0x49064906 PUSH1 0xE0 SHL PUSH28 0xFFFFFFFFFFFFFFFFFFFFFFFFFFFFFFFFFFFFFFFFFFFFFFFFFFFFFFFF NOT AND DUP3 PUSH28 0xFFFFFFFFFFFFFFFFFFFFFFFFFFFFFFFFFFFFFFFFFFFFFFFFFFFFFFFF NOT AND EQ DUP1 PUSH2 0x5AF JUMPI POP PUSH2 0x5AE DUP3 PUSH2 0x18E4 JUMP JUMPDEST JUMPDEST SWAP1 POP SWAP2 SWAP1 POP JUMP JUMPDEST PUSH2 0x5BE PUSH2 0x19C5 JUMP JUMPDEST PUSH0 PUSH2 0x5D2 DUP4 TIMESTAMP PUSH2 0x1A4C SWAP1 SWAP2 SWAP1 PUSH4 0xFFFFFFFF AND JUMP JUMPDEST SWAP1 POP PUSH1 0x40 MLOAD DUP1 PUSH1 0xC0 ADD PUSH1 0x40 MSTORE DUP1 DUP6 DUP2 MSTORE PUSH1 0x20 ADD DUP3 DUP2 MSTORE PUSH1 0x20 ADD DUP4 DUP2 MSTORE PUSH1 0x20 ADD PUSH0 DUP2 MSTORE PUSH1 0x20 ADD PUSH0 DUP2 MSTORE PUSH1 0x20 ADD PUSH0 ISZERO ISZERO DUP2 MSTORE POP PUSH1 0xB PUSH0 PUSH1 0x9 SLOAD DUP2 MSTORE PUSH1 0x20 ADD SWAP1 DUP2 MSTORE PUSH1 0x20 ADD PUSH0 KECCAK256 PUSH0 DUP3 ADD MLOAD DUP2 PUSH0 ADD SWAP1 DUP2 PUSH2 0x629 SWAP2 SWAP1 PUSH2 0x34A9 JUMP JUMPDEST POP PUSH1 0x20 DUP3 ADD MLOAD DUP2 PUSH1 0x1 ADD SSTORE PUSH1 0x40 DUP3 ADD MLOAD DUP2 PUSH1 0x2 ADD SSTORE PUSH1 0x60 DUP3 ADD MLOAD DUP2 PUSH1 0x3 ADD SSTORE PUSH1 0x80 DUP3 ADD MLOAD DUP2 PUSH1 0x4 ADD SSTORE PUSH1 0xA0 DUP3 ADD MLOAD DUP2 PUSH1 0x5 ADD PUSH0 PUSH2 0x100 EXP DUP2 SLOAD DUP2 PUSH1 0xFF MUL NOT AND SWAP1 DUP4 ISZERO ISZERO MUL OR SWAP1 SSTORE POP SWAP1 POP POP PUSH1 0x9 SLOAD PUSH32 0x6912E5ABE531CA5F3B6F973F97278AB6731CDEC0178A7B3C2C7A5822A3F1732B DUP6 DUP4 DUP6 PUSH1 0x40 MLOAD PUSH2 0x6AA SWAP4 SWAP3 SWAP2 SWAP1 PUSH2 0x3578 JUMP JUMPDEST PUSH1 0x40 MLOAD DUP1 SWAP2 SUB SWAP1 LOG2 PUSH1 0x9 PUSH0 DUP2 SLOAD DUP1 SWAP3 SWAP2 SWAP1 PUSH2 0x6C4 SWAP1 PUSH2 0x35E1 JUMP JUMPDEST SWAP2 SWAP1 POP SSTORE POP POP POP POP POP JUMP JUMPDEST PUSH1 0x60 PUSH1 0x1 DUP1 SLOAD PUSH2 0x6DE SWAP1 PUSH2 0x32E5 JUMP JUMPDEST DUP1 PUSH1 0x1F ADD PUSH1 0x20 DUP1 SWAP2 DIV MUL PUSH1 0x20 ADD PUSH1 0x40 MLOAD SWAP1 DUP2 ADD PUSH1 0x40 MSTORE DUP1 SWAP3 SWAP2 SWAP1 DUP2 DUP2 MSTORE PUSH1 0x20 ADD DUP3 DUP1 SLOAD PUSH2 0x70A SWAP1 PUSH2 0x32E5 JUMP JUMPDEST DUP1 ISZERO PUSH2 0x755 JUMPI DUP1 PUSH1 0x1F LT PUSH2 0x72C JUMPI PUSH2 0x100 DUP1 DUP4 SLOAD DIV MUL DUP4 MSTORE SWAP2 PUSH1 0x20 ADD SWAP2 PUSH2 0x755 JUMP JUMPDEST DUP3 ADD SWAP2 SWAP1 PUSH0 MSTORE PUSH1 0x20 PUSH0 KECCAK256 SWAP1 JUMPDEST DUP2 SLOAD DUP2 MSTORE SWAP1 PUSH1 0x1 ADD SWAP1 PUSH1 0x20 ADD DUP1 DUP4 GT PUSH2 0x738 JUMPI DUP3 SWAP1 SUB PUSH1 0x1F AND DUP3 ADD SWAP2 JUMPDEST POP POP POP POP POP SWAP1 POP SWAP1 JUMP JUMPDEST PUSH0 PUSH2 0x769 DUP3 PUSH2 0x1A61 JUMP JUMPDEST POP PUSH2 0x773 DUP3 PUSH2 0x1AE7 JUMP JUMPDEST SWAP1 POP SWAP2 SWAP1 POP JUMP JUMPDEST PUSH2 0x78C DUP3 DUP3 PUSH2 0x787 PUSH2 0x1B20 JUMP JUMPDEST PUSH2 0x1B27 JUMP JUMPDEST POP POP JUMP JUMPDEST PUSH0 PUSH20 0xFFFFFFFFFFFFFFFFFFFFFFFFFFFFFFFFFFFFFFFF AND DUP3 PUSH20 0xFFFFFFFFFFFFFFFFFFFFFFFFFFFFFFFFFFFFFFFF AND SUB PUSH2 0x800 JUMPI PUSH0 PUSH1 0x40 MLOAD PUSH32 0x64A0AE9200000000000000000000000000000000000000000000000000000000 DUP2 MSTORE PUSH1 0x4 ADD PUSH2 0x7F7 SWAP2 SWAP1 PUSH2 0x2E29 JUMP JUMPDEST PUSH1 0x40 MLOAD DUP1 SWAP2 SUB SWAP1 REVERT JUMPDEST PUSH0 PUSH2 0x813 DUP4 DUP4 PUSH2 0x80E PUSH2 0x1B20 JUMP JUMPDEST PUSH2 0x1B39 JUMP JUMPDEST SWAP1 POP DUP4 PUSH20 0xFFFFFFFFFFFFFFFFFFFFFFFFFFFFFFFFFFFFFFFF AND DUP2 PUSH20 0xFFFFFFFFFFFFFFFFFFFFFFFFFFFFFFFFFFFFFFFF AND EQ PUSH2 0x889 JUMPI DUP4 DUP3 DUP3 PUSH1 0x40 MLOAD PUSH32 0x64283D7B00000000000000000000000000000000000000000000000000000000 DUP2 MSTORE PUSH1 0x4 ADD PUSH2 0x880 SWAP4 SWAP3 SWAP2 SWAP1 PUSH2 0x3628 JUMP JUMPDEST PUSH1 0x40 MLOAD DUP1 SWAP2 SUB SWAP1 REVERT JUMPDEST POP POP POP POP JUMP JUMPDEST PUSH0 DUP2 LT ISZERO DUP1 ISZERO PUSH2 0x8A3 JUMPI POP PUSH4 0x7861F80 DUP2 GT ISZERO JUMPDEST PUSH2 0x8E2 JUMPI PUSH1 0x40 MLOAD PUSH32 0x8C379A000000000000000000000000000000000000000000000000000000000 DUP2 MSTORE PUSH1 0x4 ADD PUSH2 0x8D9 SWAP1 PUSH2 0x36A7 JUMP JUMPDEST PUSH1 0x40 MLOAD DUP1 SWAP2 SUB SWAP1 REVERT JUMPDEST PUSH1 0x8 PUSH0 SWAP1 SLOAD SWAP1 PUSH2 0x100 EXP SWAP1 DIV PUSH20 0xFFFFFFFFFFFFFFFFFFFFFFFFFFFFFFFFFFFFFFFF AND PUSH20 0xFFFFFFFFFFFFFFFFFFFFFFFFFFFFFFFFFFFFFFFF AND PUSH4 0x23B872DD CALLER ADDRESS DUP6 PUSH1 0x40 MLOAD DUP5 PUSH4 0xFFFFFFFF AND PUSH1 0xE0 SHL DUP2 MSTORE PUSH1 0x4 ADD PUSH2 0x940 SWAP4 SWAP3 SWAP2 SWAP1 PUSH2 0x36C5 JUMP JUMPDEST PUSH1 0x20 PUSH1 0x40 MLOAD DUP1 DUP4 SUB DUP2 PUSH0 DUP8 GAS CALL ISZERO DUP1 ISZERO PUSH2 0x95C JUMPI RETURNDATASIZE PUSH0 DUP1 RETURNDATACOPY RETURNDATASIZE PUSH0 REVERT JUMPDEST POP POP POP POP PUSH1 0x40 MLOAD RETURNDATASIZE PUSH1 0x1F NOT PUSH1 0x1F DUP3 ADD AND DUP3 ADD DUP1 PUSH1 0x40 MSTORE POP DUP2 ADD SWAP1 PUSH2 0x980 SWAP2 SWAP1 PUSH2 0x370E JUMP JUMPDEST PUSH2 0x9BF JUMPI PUSH1 0x40 MLOAD PUSH32 0x8C379A000000000000000000000000000000000000000000000000000000000 DUP2 MSTORE PUSH1 0x4 ADD PUSH2 0x9B6 SWAP1 PUSH2 0x3783 JUMP JUMPDEST PUSH1 0x40 MLOAD DUP1 SWAP2 SUB SWAP1 REVERT JUMPDEST PUSH0 PUSH2 0x9DF PUSH1 0x2 DUP4 PUSH2 0x9D0 SWAP2 SWAP1 PUSH2 0x38DC JUMP JUMPDEST DUP5 PUSH2 0x1D44 SWAP1 SWAP2 SWAP1 PUSH4 0xFFFFFFFF AND JUMP JUMPDEST SWAP1 POP PUSH1 0xC PUSH0 CALLER PUSH20 0xFFFFFFFFFFFFFFFFFFFFFFFFFFFFFFFFFFFFFFFF AND PUSH20 0xFFFFFFFFFFFFFFFFFFFFFFFFFFFFFFFFFFFFFFFF AND DUP2 MSTORE PUSH1 0x20 ADD SWAP1 DUP2 MSTORE PUSH1 0x20 ADD PUSH0 KECCAK256 PUSH1 0x40 MLOAD DUP1 PUSH1 0xA0 ADD PUSH1 0x40 MSTORE DUP1 DUP6 DUP2 MSTORE PUSH1 0x20 ADD DUP5 DUP2 MSTORE PUSH1 0x20 ADD DUP4 DUP2 MSTORE PUSH1 0x20 ADD TIMESTAMP DUP2 MSTORE PUSH1 0x20 ADD PUSH1 0x1 ISZERO ISZERO DUP2 MSTORE POP SWAP1 DUP1 PUSH1 0x1 DUP2 SLOAD ADD DUP1 DUP3 SSTORE DUP1 SWAP2 POP POP PUSH1 0x1 SWAP1 SUB SWAP1 PUSH0 MSTORE PUSH1 0x20 PUSH0 KECCAK256 SWAP1 PUSH1 0x5 MUL ADD PUSH0 SWAP1 SWAP2 SWAP1 SWAP2 SWAP1 SWAP2 POP PUSH0 DUP3 ADD MLOAD DUP2 PUSH0 ADD SSTORE PUSH1 0x20 DUP3 ADD MLOAD DUP2 PUSH1 0x1 ADD SSTORE PUSH1 0x40 DUP3 ADD MLOAD DUP2 PUSH1 0x2 ADD SSTORE PUSH1 0x60 DUP3 ADD MLOAD DUP2 PUSH1 0x3 ADD SSTORE PUSH1 0x80 DUP3 ADD MLOAD DUP2 PUSH1 0x4 ADD PUSH0 PUSH2 0x100 EXP DUP2 SLOAD DUP2 PUSH1 0xFF MUL NOT AND SWAP1 DUP4 ISZERO ISZERO MUL OR SWAP1 SSTORE POP POP POP POP POP POP JUMP JUMPDEST PUSH1 0x8 PUSH0 SWAP1 SLOAD SWAP1 PUSH2 0x100 EXP SWAP1 DIV PUSH20 0xFFFFFFFFFFFFFFFFFFFFFFFFFFFFFFFFFFFFFFFF AND DUP2 JUMP JUMPDEST PUSH1 0xD PUSH1 0x20 MSTORE DUP2 PUSH0 MSTORE PUSH1 0x40 PUSH0 KECCAK256 PUSH1 0x20 MSTORE DUP1 PUSH0 MSTORE PUSH1 0x40 PUSH0 KECCAK256 PUSH0 SWAP2 POP SWAP2 POP SWAP1 SLOAD SWAP1 PUSH2 0x100 EXP SWAP1 DIV PUSH1 0xFF AND DUP2 JUMP JUMPDEST PUSH2 0xB23 DUP4 DUP4 DUP4 PUSH1 0x40 MLOAD DUP1 PUSH1 0x20 ADD PUSH1 0x40 MSTORE DUP1 PUSH0 DUP2 MSTORE POP PUSH2 0x10CD JUMP JUMPDEST POP POP POP JUMP JUMPDEST PUSH1 0xC PUSH1 0x20 MSTORE DUP2 PUSH0 MSTORE PUSH1 0x40 PUSH0 KECCAK256 DUP2 DUP2 SLOAD DUP2 LT PUSH2 0xB41 JUMPI PUSH0 DUP1 REVERT JUMPDEST SWAP1 PUSH0 MSTORE PUSH1 0x20 PUSH0 KECCAK256 SWAP1 PUSH1 0x5 MUL ADD PUSH0 SWAP2 POP SWAP2 POP POP DUP1 PUSH0 ADD SLOAD SWAP1 DUP1 PUSH1 0x1 ADD SLOAD SWAP1 DUP1 PUSH1 0x2 ADD SLOAD SWAP1 DUP1 PUSH1 0x3 ADD SLOAD SWAP1 DUP1 PUSH1 0x4 ADD PUSH0 SWAP1 SLOAD SWAP1 PUSH2 0x100 EXP SWAP1 DIV PUSH1 0xFF AND SWAP1 POP DUP6 JUMP JUMPDEST PUSH1 0xB PUSH1 0x20 MSTORE DUP1 PUSH0 MSTORE PUSH1 0x40 PUSH0 KECCAK256 PUSH0 SWAP2 POP SWAP1 POP DUP1 PUSH0 ADD DUP1 SLOAD PUSH2 0xB9F SWAP1 PUSH2 0x32E5 JUMP JUMPDEST DUP1 PUSH1 0x1F ADD PUSH1 0x20 DUP1 SWAP2 DIV MUL PUSH1 0x20 ADD PUSH1 0x40 MLOAD SWAP1 DUP2 ADD PUSH1 0x40 MSTORE DUP1 SWAP3 SWAP2 SWAP1 DUP2 DUP2 MSTORE PUSH1 0x20 ADD DUP3 DUP1 SLOAD PUSH2 0xBCB SWAP1 PUSH2 0x32E5 JUMP JUMPDEST DUP1 ISZERO PUSH2 0xC16 JUMPI DUP1 PUSH1 0x1F LT PUSH2 0xBED JUMPI PUSH2 0x100 DUP1 DUP4 SLOAD DIV MUL DUP4 MSTORE SWAP2 PUSH1 0x20 ADD SWAP2 PUSH2 0xC16 JUMP JUMPDEST DUP3 ADD SWAP2 SWAP1 PUSH0 MSTORE PUSH1 0x20 PUSH0 KECCAK256 SWAP1 JUMPDEST DUP2 SLOAD DUP2 MSTORE SWAP1 PUSH1 0x1 ADD SWAP1 PUSH1 0x20 ADD DUP1 DUP4 GT PUSH2 0xBF9 JUMPI DUP3 SWAP1 SUB PUSH1 0x1F AND DUP3 ADD SWAP2 JUMPDEST POP POP POP POP POP SWAP1 DUP1 PUSH1 0x1 ADD SLOAD SWAP1 DUP1 PUSH1 0x2 ADD SLOAD SWAP1 DUP1 PUSH1 0x3 ADD SLOAD SWAP1 DUP1 PUSH1 0x4 ADD SLOAD SWAP1 DUP1 PUSH1 0x5 ADD PUSH0 SWAP1 SLOAD SWAP1 PUSH2 0x100 EXP SWAP1 DIV PUSH1 0xFF AND SWAP1 POP DUP7 JUMP JUMPDEST PUSH1 0xC PUSH0 CALLER PUSH20 0xFFFFFFFFFFFFFFFFFFFFFFFFFFFFFFFFFFFFFFFF AND PUSH20 0xFFFFFFFFFFFFFFFFFFFFFFFFFFFFFFFFFFFFFFFF AND DUP2 MSTORE PUSH1 0x20 ADD SWAP1 DUP2 MSTORE PUSH1 0x20 ADD PUSH0 KECCAK256 DUP1 SLOAD SWAP1 POP DUP2 LT PUSH2 0xCCC JUMPI PUSH1 0x40 MLOAD PUSH32 0x8C379A000000000000000000000000000000000000000000000000000000000 DUP2 MSTORE PUSH1 0x4 ADD PUSH2 0xCC3 SWAP1 PUSH2 0x3970 JUMP JUMPDEST PUSH1 0x40 MLOAD DUP1 SWAP2 SUB SWAP1 REVERT JUMPDEST PUSH0 PUSH1 0xC PUSH0 CALLER PUSH20 0xFFFFFFFFFFFFFFFFFFFFFFFFFFFFFFFFFFFFFFFF AND PUSH20 0xFFFFFFFFFFFFFFFFFFFFFFFFFFFFFFFFFFFFFFFF AND DUP2 MSTORE PUSH1 0x20 ADD SWAP1 DUP2 MSTORE PUSH1 0x20 ADD PUSH0 KECCAK256 DUP3 DUP2 SLOAD DUP2 LT PUSH2 0xD1C JUMPI PUSH2 0xD1B PUSH2 0x398E JUMP JUMPDEST JUMPDEST SWAP1 PUSH0 MSTORE PUSH1 0x20 PUSH0 KECCAK256 SWAP1 PUSH1 0x5 MUL ADD SWAP1 POP DUP1 PUSH1 0x4 ADD PUSH0 SWAP1 SLOAD SWAP1 PUSH2 0x100 EXP SWAP1 DIV PUSH1 0xFF AND PUSH2 0xD7A JUMPI PUSH1 0x40 MLOAD PUSH32 0x8C379A000000000000000000000000000000000000000000000000000000000 DUP2 MSTORE PUSH1 0x4 ADD PUSH2 0xD71 SWAP1 PUSH2 0x3A05 JUMP JUMPDEST PUSH1 0x40 MLOAD DUP1 SWAP2 SUB SWAP1 REVERT JUMPDEST DUP1 PUSH1 0x1 ADD SLOAD DUP2 PUSH1 0x3 ADD SLOAD PUSH2 0xD8E SWAP2 SWAP1 PUSH2 0x3A23 JUMP JUMPDEST TIMESTAMP LT ISZERO PUSH2 0xDD0 JUMPI PUSH1 0x40 MLOAD PUSH32 0x8C379A000000000000000000000000000000000000000000000000000000000 DUP2 MSTORE PUSH1 0x4 ADD PUSH2 0xDC7 SWAP1 PUSH2 0x3AA0 JUMP JUMPDEST PUSH1 0x40 MLOAD DUP1 SWAP2 SUB SWAP1 REVERT JUMPDEST PUSH0 DUP2 PUSH0 ADD SLOAD SWAP1 POP PUSH0 DUP3 PUSH1 0x4 ADD PUSH0 PUSH2 0x100 EXP DUP2 SLOAD DUP2 PUSH1 0xFF MUL NOT AND SWAP1 DUP4 ISZERO ISZERO MUL OR SWAP1 SSTORE POP PUSH1 0x8 PUSH0 SWAP1 SLOAD SWAP1 PUSH2 0x100 EXP SWAP1 DIV PUSH20 0xFFFFFFFFFFFFFFFFFFFFFFFFFFFFFFFFFFFFFFFF AND PUSH20 0xFFFFFFFFFFFFFFFFFFFFFFFFFFFFFFFFFFFFFFFF AND PUSH4 0xA9059CBB CALLER DUP4 PUSH1 0x40 MLOAD DUP4 PUSH4 0xFFFFFFFF AND PUSH1 0xE0 SHL DUP2 MSTORE PUSH1 0x4 ADD PUSH2 0xE4E SWAP3 SWAP2 SWAP1 PUSH2 0x3ABE JUMP JUMPDEST PUSH1 0x20 PUSH1 0x40 MLOAD DUP1 DUP4 SUB DUP2 PUSH0 DUP8 GAS CALL ISZERO DUP1 ISZERO PUSH2 0xE6A JUMPI RETURNDATASIZE PUSH0 DUP1 RETURNDATACOPY RETURNDATASIZE PUSH0 REVERT JUMPDEST POP POP POP POP PUSH1 0x40 MLOAD RETURNDATASIZE PUSH1 0x1F NOT PUSH1 0x1F DUP3 ADD AND DUP3 ADD DUP1 PUSH1 0x40 MSTORE POP DUP2 ADD SWAP1 PUSH2 0xE8E SWAP2 SWAP1 PUSH2 0x370E JUMP JUMPDEST PUSH2 0xECD JUMPI PUSH1 0x40 MLOAD PUSH32 0x8C379A000000000000000000000000000000000000000000000000000000000 DUP2 MSTORE PUSH1 0x4 ADD PUSH2 0xEC4 SWAP1 PUSH2 0x3B2F JUMP JUMPDEST PUSH1 0x40 MLOAD DUP1 SWAP2 SUB SWAP1 REVERT JUMPDEST CALLER PUSH20 0xFFFFFFFFFFFFFFFFFFFFFFFFFFFFFFFFFFFFFFFF AND PUSH32 0x9845E367B683334E5C0B12D7B81721AC518E649376FA65E3D68324E8F34F2679 DUP3 PUSH1 0x40 MLOAD PUSH2 0xF13 SWAP2 SWAP1 PUSH2 0x309D JUMP JUMPDEST PUSH1 0x40 MLOAD DUP1 SWAP2 SUB SWAP1 LOG2 POP POP POP JUMP JUMPDEST PUSH0 PUSH2 0xF2A DUP3 PUSH2 0x1A61 JUMP JUMPDEST SWAP1 POP SWAP2 SWAP1 POP JUMP JUMPDEST PUSH0 DUP1 PUSH20 0xFFFFFFFFFFFFFFFFFFFFFFFFFFFFFFFFFFFFFFFF AND DUP3 PUSH20 0xFFFFFFFFFFFFFFFFFFFFFFFFFFFFFFFFFFFFFFFF AND SUB PUSH2 0xFA2 JUMPI PUSH0 PUSH1 0x40 MLOAD PUSH32 0x89C62B6400000000000000000000000000000000000000000000000000000000 DUP2 MSTORE PUSH1 0x4 ADD PUSH2 0xF99 SWAP2 SWAP1 PUSH2 0x2E29 JUMP JUMPDEST PUSH1 0x40 MLOAD DUP1 SWAP2 SUB SWAP1 REVERT JUMPDEST PUSH1 0x4 PUSH0 DUP4 PUSH20 0xFFFFFFFFFFFFFFFFFFFFFFFFFFFFFFFFFFFFFFFF AND PUSH20 0xFFFFFFFFFFFFFFFFFFFFFFFFFFFFFFFFFFFFFFFF AND DUP2 MSTORE PUSH1 0x20 ADD SWAP1 DUP2 MSTORE PUSH1 0x20 ADD PUSH0 KECCAK256 SLOAD SWAP1 POP SWAP2 SWAP1 POP JUMP JUMPDEST PUSH2 0xFEF PUSH2 0x19C5 JUMP JUMPDEST PUSH2 0xFF8 PUSH0 PUSH2 0x1D59 JUMP JUMPDEST JUMP JUMPDEST PUSH0 DUP1 PUSH0 SWAP1 SLOAD SWAP1 PUSH2 0x100 EXP SWAP1 DIV PUSH20 0xFFFFFFFFFFFFFFFFFFFFFFFFFFFFFFFFFFFFFFFF AND SWAP1 POP SWAP1 JUMP JUMPDEST PUSH1 0xA SLOAD DUP2 JUMP JUMPDEST PUSH1 0x60 PUSH1 0x2 DUP1 SLOAD PUSH2 0x1036 SWAP1 PUSH2 0x32E5 JUMP JUMPDEST DUP1 PUSH1 0x1F ADD PUSH1 0x20 DUP1 SWAP2 DIV MUL PUSH1 0x20 ADD PUSH1 0x40 MLOAD SWAP1 DUP2 ADD PUSH1 0x40 MSTORE DUP1 SWAP3 SWAP2 SWAP1 DUP2 DUP2 MSTORE PUSH1 0x20 ADD DUP3 DUP1 SLOAD PUSH2 0x1062 SWAP1 PUSH2 0x32E5 JUMP JUMPDEST DUP1 ISZERO PUSH2 0x10AD JUMPI DUP1 PUSH1 0x1F LT PUSH2 0x1084 JUMPI PUSH2 0x100 DUP1 DUP4 SLOAD DIV MUL DUP4 MSTORE SWAP2 PUSH1 0x20 ADD SWAP2 PUSH2 0x10AD JUMP JUMPDEST DUP3 ADD SWAP2 SWAP1 PUSH0 MSTORE PUSH1 0x20 PUSH0 KECCAK256 SWAP1 JUMPDEST DUP2 SLOAD DUP2 MSTORE SWAP1 PUSH1 0x1 ADD SWAP1 PUSH1 0x20 ADD DUP1 DUP4 GT PUSH2 0x1090 JUMPI DUP3 SWAP1 SUB PUSH1 0x1F AND DUP3 ADD SWAP2 JUMPDEST POP POP POP POP POP SWAP1 POP SWAP1 JUMP JUMPDEST PUSH2 0x10C9 PUSH2 0x10C2 PUSH2 0x1B20 JUMP JUMPDEST DUP4 DUP4 PUSH2 0x1E1A JUMP JUMPDEST POP POP JUMP JUMPDEST PUSH2 0x10D8 DUP5 DUP5 DUP5 PUSH2 0x790 JUMP JUMPDEST PUSH2 0x10EC PUSH2 0x10E3 PUSH2 0x1B20 JUMP JUMPDEST DUP6 DUP6 DUP6 DUP6 PUSH2 0x1F83 JUMP JUMPDEST POP POP POP POP JUMP JUMPDEST PUSH1 0xB PUSH0 DUP3 DUP2 MSTORE PUSH1 0x20 ADD SWAP1 DUP2 MSTORE PUSH1 0x20 ADD PUSH0 KECCAK256 PUSH1 0x1 ADD SLOAD TIMESTAMP LT ISZERO DUP1 PUSH2 0x1163 JUMPI POP PUSH1 0xB PUSH0 DUP3 DUP2 MSTORE PUSH1 0x20 ADD SWAP1 DUP2 MSTORE PUSH1 0x20 ADD PUSH0 KECCAK256 PUSH1 0x2 ADD SLOAD PUSH2 0x1160 PUSH1 0xB PUSH0 DUP5 DUP2 MSTORE PUSH1 0x20 ADD SWAP1 DUP2 MSTORE PUSH1 0x20 ADD PUSH0 KECCAK256 PUSH1 0x4 ADD SLOAD PUSH1 0xB PUSH0 DUP6 DUP2 MSTORE PUSH1 0x20 ADD SWAP1 DUP2 MSTORE PUSH1 0x20 ADD PUSH0 KECCAK256 PUSH1 0x3 ADD SLOAD PUSH2 0x1A4C SWAP1 SWAP2 SWAP1 PUSH4 0xFFFFFFFF AND JUMP JUMPDEST LT ISZERO JUMPDEST PUSH2 0x11A2 JUMPI PUSH1 0x40 MLOAD PUSH32 0x8C379A000000000000000000000000000000000000000000000000000000000 DUP2 MSTORE PUSH1 0x4 ADD PUSH2 0x1199 SWAP1 PUSH2 0x3B97 JUMP JUMPDEST PUSH1 0x40 MLOAD DUP1 SWAP2 SUB SWAP1 REVERT JUMPDEST PUSH1 0xB PUSH0 DUP3 DUP2 MSTORE PUSH1 0x20 ADD SWAP1 DUP2 MSTORE PUSH1 0x20 ADD PUSH0 KECCAK256 PUSH1 0x5 ADD PUSH0 SWAP1 SLOAD SWAP1 PUSH2 0x100 EXP SWAP1 DIV PUSH1 0xFF AND ISZERO PUSH2 0x1203 JUMPI PUSH1 0x40 MLOAD PUSH32 0x8C379A000000000000000000000000000000000000000000000000000000000 DUP2 MSTORE PUSH1 0x4 ADD PUSH2 0x11FA SWAP1 PUSH2 0x3BFF JUMP JUMPDEST PUSH1 0x40 MLOAD DUP1 SWAP2 SUB SWAP1 REVERT JUMPDEST PUSH1 0x1 PUSH1 0xB PUSH0 DUP4 DUP2 MSTORE PUSH1 0x20 ADD SWAP1 DUP2 MSTORE PUSH1 0x20 ADD PUSH0 KECCAK256 PUSH1 0x5 ADD PUSH0 PUSH2 0x100 EXP DUP2 SLOAD DUP2 PUSH1 0xFF MUL NOT AND SWAP1 DUP4 ISZERO ISZERO MUL OR SWAP1 SSTORE POP PUSH0 PUSH1 0xB PUSH0 DUP4 DUP2 MSTORE PUSH1 0x20 ADD SWAP1 DUP2 MSTORE PUSH1 0x20 ADD PUSH0 KECCAK256 PUSH1 0x4 ADD SLOAD PUSH1 0xB PUSH0 DUP5 DUP2 MSTORE PUSH1 0x20 ADD SWAP1 DUP2 MSTORE PUSH1 0x20 ADD PUSH0 KECCAK256 PUSH1 0x3 ADD SLOAD GT SWAP1 POP PUSH0 PUSH2 0x1268 DUP4 DUP4 PUSH2 0x212F JUMP JUMPDEST SWAP1 POP PUSH2 0x1273 DUP2 PUSH2 0x222C JUMP JUMPDEST DUP3 PUSH32 0xA12DD7D44A6EE7489FCBBFAF9D2B201C238ED243077E92E8E8D3AFCB099AF54B DUP4 PUSH1 0x40 MLOAD PUSH2 0x12A3 SWAP2 SWAP1 PUSH2 0x2B4B JUMP JUMPDEST PUSH1 0x40 MLOAD DUP1 SWAP2 SUB SWAP1 LOG2 POP POP POP JUMP JUMPDEST PUSH1 0x60 PUSH2 0x12BB DUP3 PUSH2 0x1A61 JUMP JUMPDEST POP PUSH0 PUSH1 0x7 PUSH0 DUP5 DUP2 MSTORE PUSH1 0x20 ADD SWAP1 DUP2 MSTORE PUSH1 0x20 ADD PUSH0 KECCAK256 DUP1 SLOAD PUSH2 0x12D9 SWAP1 PUSH2 0x32E5 JUMP JUMPDEST DUP1 PUSH1 0x1F ADD PUSH1 0x20 DUP1 SWAP2 DIV MUL PUSH1 0x20 ADD PUSH1 0x40 MLOAD SWAP1 DUP2 ADD PUSH1 0x40 MSTORE DUP1 SWAP3 SWAP2 SWAP1 DUP2 DUP2 MSTORE PUSH1 0x20 ADD DUP3 DUP1 SLOAD PUSH2 0x1305 SWAP1 PUSH2 0x32E5 JUMP JUMPDEST DUP1 ISZERO PUSH2 0x1350 JUMPI DUP1 PUSH1 0x1F LT PUSH2 0x1327 JUMPI PUSH2 0x100 DUP1 DUP4 SLOAD DIV MUL DUP4 MSTORE SWAP2 PUSH1 0x20 ADD SWAP2 PUSH2 0x1350 JUMP JUMPDEST DUP3 ADD SWAP2 SWAP1 PUSH0 MSTORE PUSH1 0x20 PUSH0 KECCAK256 SWAP1 JUMPDEST DUP2 SLOAD DUP2 MSTORE SWAP1 PUSH1 0x1 ADD SWAP1 PUSH1 0x20 ADD DUP1 DUP4 GT PUSH2 0x1333 JUMPI DUP3 SWAP1 SUB PUSH1 0x1F AND DUP3 ADD SWAP2 JUMPDEST POP POP POP POP POP SWAP1 POP PUSH0 PUSH2 0x1360 PUSH2 0x2298 JUMP JUMPDEST SWAP1 POP PUSH0 DUP2 MLOAD SUB PUSH2 0x1374 JUMPI DUP2 SWAP3 POP POP POP PUSH2 0x13B6 JUMP JUMPDEST PUSH0 DUP3 MLOAD GT ISZERO PUSH2 0x13A8 JUMPI DUP1 DUP3 PUSH1 0x40 MLOAD PUSH1 0x20 ADD PUSH2 0x1390 SWAP3 SWAP2 SWAP1 PUSH2 0x3C57 JUMP JUMPDEST PUSH1 0x40 MLOAD PUSH1 0x20 DUP2 DUP4 SUB SUB DUP2 MSTORE SWAP1 PUSH1 0x40 MSTORE SWAP3 POP POP POP PUSH2 0x13B6 JUMP JUMPDEST PUSH2 0x13B1 DUP5 PUSH2 0x22AE JUMP JUMPDEST SWAP3 POP POP POP JUMPDEST SWAP2 SWAP1 POP JUMP JUMPDEST PUSH1 0xB PUSH0 DUP4 DUP2 MSTORE PUSH1 0x20 ADD SWAP1 DUP2 MSTORE PUSH1 0x20 ADD PUSH0 KECCAK256 PUSH1 0x1 ADD SLOAD TIMESTAMP LT PUSH2 0x1411 JUMPI PUSH1 0x40 MLOAD PUSH32 0x8C379A000000000000000000000000000000000000000000000000000000000 DUP2 MSTORE PUSH1 0x4 ADD PUSH2 0x1408 SWAP1 PUSH2 0x3CC4 JUMP JUMPDEST PUSH1 0x40 MLOAD DUP1 SWAP2 SUB SWAP1 REVERT JUMPDEST PUSH1 0xD PUSH0 CALLER PUSH20 0xFFFFFFFFFFFFFFFFFFFFFFFFFFFFFFFFFFFFFFFF AND PUSH20 0xFFFFFFFFFFFFFFFFFFFFFFFFFFFFFFFFFFFFFFFF AND DUP2 MSTORE PUSH1 0x20 ADD SWAP1 DUP2 MSTORE PUSH1 0x20 ADD PUSH0 KECCAK256 PUSH0 DUP4 DUP2 MSTORE PUSH1 0x20 ADD SWAP1 DUP2 MSTORE PUSH1 0x20 ADD PUSH0 KECCAK256 PUSH0 SWAP1 SLOAD SWAP1 PUSH2 0x100 EXP SWAP1 DIV PUSH1 0xFF AND ISZERO PUSH2 0x14AA JUMPI PUSH1 0x40 MLOAD PUSH32 0x8C379A000000000000000000000000000000000000000000000000000000000 DUP2 MSTORE PUSH1 0x4 ADD PUSH2 0x14A1 SWAP1 PUSH2 0x3D2C JUMP JUMPDEST PUSH1 0x40 MLOAD DUP1 SWAP2 SUB SWAP1 REVERT JUMPDEST PUSH0 DUP1 JUMPDEST PUSH1 0xC PUSH0 CALLER PUSH20 0xFFFFFFFFFFFFFFFFFFFFFFFFFFFFFFFFFFFFFFFF AND PUSH20 0xFFFFFFFFFFFFFFFFFFFFFFFFFFFFFFFFFFFFFFFF AND DUP2 MSTORE PUSH1 0x20 ADD SWAP1 DUP2 MSTORE PUSH1 0x20 ADD PUSH0 KECCAK256 DUP1 SLOAD SWAP1 POP DUP2 LT ISZERO PUSH2 0x15E6 JUMPI PUSH1 0xC PUSH0 CALLER PUSH20 0xFFFFFFFFFFFFFFFFFFFFFFFFFFFFFFFFFFFFFFFF AND PUSH20 0xFFFFFFFFFFFFFFFFFFFFFFFFFFFFFFFFFFFFFFFF AND DUP2 MSTORE PUSH1 0x20 ADD SWAP1 DUP2 MSTORE PUSH1 0x20 ADD PUSH0 KECCAK256 DUP2 DUP2 SLOAD DUP2 LT PUSH2 0x1544 JUMPI PUSH2 0x1543 PUSH2 0x398E JUMP JUMPDEST JUMPDEST SWAP1 PUSH0 MSTORE PUSH1 0x20 PUSH0 KECCAK256 SWAP1 PUSH1 0x5 MUL ADD PUSH1 0x4 ADD PUSH0 SWAP1 SLOAD SWAP1 PUSH2 0x100 EXP SWAP1 DIV PUSH1 0xFF AND ISZERO PUSH2 0x15D9 JUMPI PUSH2 0x15D6 PUSH1 0xC PUSH0 CALLER PUSH20 0xFFFFFFFFFFFFFFFFFFFFFFFFFFFFFFFFFFFFFFFF AND PUSH20 0xFFFFFFFFFFFFFFFFFFFFFFFFFFFFFFFFFFFFFFFF AND DUP2 MSTORE PUSH1 0x20 ADD SWAP1 DUP2 MSTORE PUSH1 0x20 ADD PUSH0 KECCAK256 DUP3 DUP2 SLOAD DUP2 LT PUSH2 0x15B7 JUMPI PUSH2 0x15B6 PUSH2 0x398E JUMP JUMPDEST JUMPDEST SWAP1 PUSH0 MSTORE PUSH1 0x20 PUSH0 KECCAK256 SWAP1 PUSH1 0x5 MUL ADD PUSH1 0x2 ADD SLOAD DUP4 PUSH2 0x1A4C SWAP1 SWAP2 SWAP1 PUSH4 0xFFFFFFFF AND JUMP JUMPDEST SWAP2 POP JUMPDEST DUP1 DUP1 PUSH1 0x1 ADD SWAP2 POP POP PUSH2 0x14AD JUMP JUMPDEST POP PUSH0 DUP2 GT PUSH2 0x1629 JUMPI PUSH1 0x40 MLOAD PUSH32 0x8C379A000000000000000000000000000000000000000000000000000000000 DUP2 MSTORE PUSH1 0x4 ADD PUSH2 0x1620 SWAP1 PUSH2 0x3D94 JUMP JUMPDEST PUSH1 0x40 MLOAD DUP1 SWAP2 SUB SWAP1 REVERT JUMPDEST PUSH1 0x1 PUSH1 0xD PUSH0 CALLER PUSH20 0xFFFFFFFFFFFFFFFFFFFFFFFFFFFFFFFFFFFFFFFF AND PUSH20 0xFFFFFFFFFFFFFFFFFFFFFFFFFFFFFFFFFFFFFFFF AND DUP2 MSTORE PUSH1 0x20 ADD SWAP1 DUP2 MSTORE PUSH1 0x20 ADD PUSH0 KECCAK256 PUSH0 DUP6 DUP2 MSTORE PUSH1 0x20 ADD SWAP1 DUP2 MSTORE PUSH1 0x20 ADD PUSH0 KECCAK256 PUSH0 PUSH2 0x100 EXP DUP2 SLOAD DUP2 PUSH1 0xFF MUL NOT AND SWAP1 DUP4 ISZERO ISZERO MUL OR SWAP1 SSTORE POP DUP2 ISZERO PUSH2 0x16D7 JUMPI PUSH2 0x16BA DUP2 PUSH1 0xB PUSH0 DUP7 DUP2 MSTORE PUSH1 0x20 ADD SWAP1 DUP2 MSTORE PUSH1 0x20 ADD PUSH0 KECCAK256 PUSH1 0x3 ADD SLOAD PUSH2 0x1A4C SWAP1 SWAP2 SWAP1 PUSH4 0xFFFFFFFF AND JUMP JUMPDEST PUSH1 0xB PUSH0 DUP6 DUP2 MSTORE PUSH1 0x20 ADD SWAP1 DUP2 MSTORE PUSH1 0x20 ADD PUSH0 KECCAK256 PUSH1 0x3 ADD DUP2 SWAP1 SSTORE POP PUSH2 0x1717 JUMP JUMPDEST PUSH2 0x16FE DUP2 PUSH1 0xB PUSH0 DUP7 DUP2 MSTORE PUSH1 0x20 ADD SWAP1 DUP2 MSTORE PUSH1 0x20 ADD PUSH0 KECCAK256 PUSH1 0x4 ADD SLOAD PUSH2 0x1A4C SWAP1 SWAP2 SWAP1 PUSH4 0xFFFFFFFF AND JUMP JUMPDEST PUSH1 0xB PUSH0 DUP6 DUP2 MSTORE PUSH1 0x20 ADD SWAP1 DUP2 MSTORE PUSH1 0x20 ADD PUSH0 KECCAK256 PUSH1 0x4 ADD DUP2 SWAP1 SSTORE POP JUMPDEST PUSH1 0xB PUSH0 DUP5 DUP2 MSTORE PUSH1 0x20 ADD SWAP1 DUP2 MSTORE PUSH1 0x20 ADD PUSH0 KECCAK256 PUSH1 0x2 ADD SLOAD PUSH2 0x1767 PUSH1 0xB PUSH0 DUP7 DUP2 MSTORE PUSH1 0x20 ADD SWAP1 DUP2 MSTORE PUSH1 0x20 ADD PUSH0 KECCAK256 PUSH1 0x4 ADD SLOAD PUSH1 0xB PUSH0 DUP8 DUP2 MSTORE PUSH1 0x20 ADD SWAP1 DUP2 MSTORE PUSH1 0x20 ADD PUSH0 KECCAK256 PUSH1 0x3 ADD SLOAD PUSH2 0x1A4C SWAP1 SWAP2 SWAP1 PUSH4 0xFFFFFFFF AND JUMP JUMPDEST LT PUSH2 0x1776 JUMPI PUSH2 0x1775 DUP4 PUSH2 0x10F2 JUMP JUMPDEST JUMPDEST DUP3 CALLER PUSH20 0xFFFFFFFFFFFFFFFFFFFFFFFFFFFFFFFFFFFFFFFF AND PUSH32 0x9FEA94799B68DBB994C4E44547EA7B5C9E4068FBC385B8B688005A16B60C3CC6 DUP5 DUP5 PUSH1 0x40 MLOAD PUSH2 0x17BF SWAP3 SWAP2 SWAP1 PUSH2 0x3DB2 JUMP JUMPDEST PUSH1 0x40 MLOAD DUP1 SWAP2 SUB SWAP1 LOG3 POP POP POP JUMP JUMPDEST PUSH1 0x9 SLOAD DUP2 JUMP JUMPDEST PUSH0 PUSH1 0x6 PUSH0 DUP5 PUSH20 0xFFFFFFFFFFFFFFFFFFFFFFFFFFFFFFFFFFFFFFFF AND PUSH20 0xFFFFFFFFFFFFFFFFFFFFFFFFFFFFFFFFFFFFFFFF AND DUP2 MSTORE PUSH1 0x20 ADD SWAP1 DUP2 MSTORE PUSH1 0x20 ADD PUSH0 KECCAK256 PUSH0 DUP4 PUSH20 0xFFFFFFFFFFFFFFFFFFFFFFFFFFFFFFFFFFFFFFFF AND PUSH20 0xFFFFFFFFFFFFFFFFFFFFFFFFFFFFFFFFFFFFFFFF AND DUP2 MSTORE PUSH1 0x20 ADD SWAP1 DUP2 MSTORE PUSH1 0x20 ADD PUSH0 KECCAK256 PUSH0 SWAP1 SLOAD SWAP1 PUSH2 0x100 EXP SWAP1 DIV PUSH1 0xFF AND SWAP1 POP SWAP3 SWAP2 POP POP JUMP JUMPDEST PUSH2 0x1868 PUSH2 0x19C5 JUMP JUMPDEST PUSH0 PUSH20 0xFFFFFFFFFFFFFFFFFFFFFFFFFFFFFFFFFFFFFFFF AND DUP2 PUSH20 0xFFFFFFFFFFFFFFFFFFFFFFFFFFFFFFFFFFFFFFFF AND SUB PUSH2 0x18D8 JUMPI PUSH0 PUSH1 0x40 MLOAD PUSH32 0x1E4FBDF700000000000000000000000000000000000000000000000000000000 DUP2 MSTORE PUSH1 0x4 ADD PUSH2 0x18CF SWAP2 SWAP1 PUSH2 0x2E29 JUMP JUMPDEST PUSH1 0x40 MLOAD DUP1 SWAP2 SUB SWAP1 REVERT JUMPDEST PUSH2 0x18E1 DUP2 PUSH2 0x1D59 JUMP JUMPDEST POP JUMP JUMPDEST PUSH0 PUSH32 0x80AC58CD00000000000000000000000000000000000000000000000000000000 PUSH28 0xFFFFFFFFFFFFFFFFFFFFFFFFFFFFFFFFFFFFFFFFFFFFFFFFFFFFFFFF NOT AND DUP3 PUSH28 0xFFFFFFFFFFFFFFFFFFFFFFFFFFFFFFFFFFFFFFFFFFFFFFFFFFFFFFFF NOT AND EQ DUP1 PUSH2 0x19AE JUMPI POP PUSH32 0x5B5E139F00000000000000000000000000000000000000000000000000000000 PUSH28 0xFFFFFFFFFFFFFFFFFFFFFFFFFFFFFFFFFFFFFFFFFFFFFFFFFFFFFFFF NOT AND DUP3 PUSH28 0xFFFFFFFFFFFFFFFFFFFFFFFFFFFFFFFFFFFFFFFFFFFFFFFFFFFFFFFF NOT AND EQ JUMPDEST DUP1 PUSH2 0x19BE JUMPI POP PUSH2 0x19BD DUP3 PUSH2 0x2314 JUMP JUMPDEST JUMPDEST SWAP1 POP SWAP2 SWAP1 POP JUMP JUMPDEST PUSH2 0x19CD PUSH2 0x1B20 JUMP JUMPDEST PUSH20 0xFFFFFFFFFFFFFFFFFFFFFFFFFFFFFFFFFFFFFFFF AND PUSH2 0x19EB PUSH2 0xFFA JUMP JUMPDEST PUSH20 0xFFFFFFFFFFFFFFFFFFFFFFFFFFFFFFFFFFFFFFFF AND EQ PUSH2 0x1A4A JUMPI PUSH2 0x1A0E PUSH2 0x1B20 JUMP JUMPDEST PUSH1 0x40 MLOAD PUSH32 0x118CDAA700000000000000000000000000000000000000000000000000000000 DUP2 MSTORE PUSH1 0x4 ADD PUSH2 0x1A41 SWAP2 SWAP1 PUSH2 0x2E29 JUMP JUMPDEST PUSH1 0x40 MLOAD DUP1 SWAP2 SUB SWAP1 REVERT JUMPDEST JUMP JUMPDEST PUSH0 DUP2 DUP4 PUSH2 0x1A59 SWAP2 SWAP1 PUSH2 0x3A23 JUMP JUMPDEST SWAP1 POP SWAP3 SWAP2 POP POP JUMP JUMPDEST PUSH0 DUP1 PUSH2 0x1A6C DUP4 PUSH2 0x237D JUMP JUMPDEST SWAP1 POP PUSH0 PUSH20 0xFFFFFFFFFFFFFFFFFFFFFFFFFFFFFFFFFFFFFFFF AND DUP2 PUSH20 0xFFFFFFFFFFFFFFFFFFFFFFFFFFFFFFFFFFFFFFFF AND SUB PUSH2 0x1ADE JUMPI DUP3 PUSH1 0x40 MLOAD PUSH32 0x7E27328900000000000000000000000000000000000000000000000000000000 DUP2 MSTORE PUSH1 0x4 ADD PUSH2 0x1AD5 SWAP2 SWAP1 PUSH2 0x309D JUMP JUMPDEST PUSH1 0x40 MLOAD DUP1 SWAP2 SUB SWAP1 REVERT JUMPDEST DUP1 SWAP2 POP POP SWAP2 SWAP1 POP JUMP JUMPDEST PUSH0 PUSH1 0x5 PUSH0 DUP4 DUP2 MSTORE PUSH1 0x20 ADD SWAP1 DUP2 MSTORE PUSH1 0x20 ADD PUSH0 KECCAK256 PUSH0 SWAP1 SLOAD SWAP1 PUSH2 0x100 EXP SWAP1 DIV PUSH20 0xFFFFFFFFFFFFFFFFFFFFFFFFFFFFFFFFFFFFFFFF AND SWAP1 POP SWAP2 SWAP1 POP JUMP JUMPDEST PUSH0 CALLER SWAP1 POP SWAP1 JUMP JUMPDEST PUSH2 0x1B34 DUP4 DUP4 DUP4 PUSH1 0x1 PUSH2 0x23B6 JUMP JUMPDEST POP POP POP JUMP JUMPDEST PUSH0 DUP1 PUSH2 0x1B44 DUP5 PUSH2 0x237D JUMP JUMPDEST SWAP1 POP PUSH0 PUSH20 0xFFFFFFFFFFFFFFFFFFFFFFFFFFFFFFFFFFFFFFFF AND DUP4 PUSH20 0xFFFFFFFFFFFFFFFFFFFFFFFFFFFFFFFFFFFFFFFF AND EQ PUSH2 0x1B85 JUMPI PUSH2 0x1B84 DUP2 DUP5 DUP7 PUSH2 0x2575 JUMP JUMPDEST JUMPDEST PUSH0 PUSH20 0xFFFFFFFFFFFFFFFFFFFFFFFFFFFFFFFFFFFFFFFF AND DUP2 PUSH20 0xFFFFFFFFFFFFFFFFFFFFFFFFFFFFFFFFFFFFFFFF AND EQ PUSH2 0x1C10 JUMPI PUSH2 0x1BC4 PUSH0 DUP6 PUSH0 DUP1 PUSH2 0x23B6 JUMP JUMPDEST PUSH1 0x1 PUSH1 0x4 PUSH0 DUP4 PUSH20 0xFFFFFFFFFFFFFFFFFFFFFFFFFFFFFFFFFFFFFFFF AND PUSH20 0xFFFFFFFFFFFFFFFFFFFFFFFFFFFFFFFFFFFFFFFF AND DUP2 MSTORE PUSH1 0x20 ADD SWAP1 DUP2 MSTORE PUSH1 0x20 ADD PUSH0 KECCAK256 PUSH0 DUP3 DUP3 SLOAD SUB SWAP3 POP POP DUP2 SWAP1 SSTORE POP JUMPDEST PUSH0 PUSH20 0xFFFFFFFFFFFFFFFFFFFFFFFFFFFFFFFFFFFFFFFF AND DUP6 PUSH20 0xFFFFFFFFFFFFFFFFFFFFFFFFFFFFFFFFFFFFFFFF AND EQ PUSH2 0x1C8F JUMPI PUSH1 0x1 PUSH1 0x4 PUSH0 DUP8 PUSH20 0xFFFFFFFFFFFFFFFFFFFFFFFFFFFFFFFFFFFFFFFF AND PUSH20 0xFFFFFFFFFFFFFFFFFFFFFFFFFFFFFFFFFFFFFFFF AND DUP2 MSTORE PUSH1 0x20 ADD SWAP1 DUP2 MSTORE PUSH1 0x20 ADD PUSH0 KECCAK256 PUSH0 DUP3 DUP3 SLOAD ADD SWAP3 POP POP DUP2 SWAP1 SSTORE POP JUMPDEST DUP5 PUSH1 0x3 PUSH0 DUP7 DUP2 MSTORE PUSH1 0x20 ADD SWAP1 DUP2 MSTORE PUSH1 0x20 ADD PUSH0 KECCAK256 PUSH0 PUSH2 0x100 EXP DUP2 SLOAD DUP2 PUSH20 0xFFFFFFFFFFFFFFFFFFFFFFFFFFFFFFFFFFFFFFFF MUL NOT AND SWAP1 DUP4 PUSH20 0xFFFFFFFFFFFFFFFFFFFFFFFFFFFFFFFFFFFFFFFF AND MUL OR SWAP1 SSTORE POP DUP4 DUP6 PUSH20 0xFFFFFFFFFFFFFFFFFFFFFFFFFFFFFFFFFFFFFFFF AND DUP3 PUSH20 0xFFFFFFFFFFFFFFFFFFFFFFFFFFFFFFFFFFFFFFFF AND PUSH32 0xDDF252AD1BE2C89B69C2B068FC378DAA952BA7F163C4A11628F55A4DF523B3EF PUSH1 0x40 MLOAD PUSH1 0x40 MLOAD DUP1 SWAP2 SUB SWAP1 LOG4 DUP1 SWAP2 POP POP SWAP4 SWAP3 POP POP POP JUMP JUMPDEST PUSH0 DUP2 DUP4 PUSH2 0x1D51 SWAP2 SWAP1 PUSH2 0x3DD9 JUMP JUMPDEST SWAP1 POP SWAP3 SWAP2 POP POP JUMP JUMPDEST PUSH0 DUP1 PUSH0 SWAP1 SLOAD SWAP1 PUSH2 0x100 EXP SWAP1 DIV PUSH20 0xFFFFFFFFFFFFFFFFFFFFFFFFFFFFFFFFFFFFFFFF AND SWAP1 POP DUP2 PUSH0 DUP1 PUSH2 0x100 EXP DUP2 SLOAD DUP2 PUSH20 0xFFFFFFFFFFFFFFFFFFFFFFFFFFFFFFFFFFFFFFFF MUL NOT AND SWAP1 DUP4 PUSH20 0xFFFFFFFFFFFFFFFFFFFFFFFFFFFFFFFFFFFFFFFF AND MUL OR SWAP1 SSTORE POP DUP2 PUSH20 0xFFFFFFFFFFFFFFFFFFFFFFFFFFFFFFFFFFFFFFFF AND DUP2 PUSH20 0xFFFFFFFFFFFFFFFFFFFFFFFFFFFFFFFFFFFFFFFF AND PUSH32 0x8BE0079C531659141344CD1FD0A4F28419497F9722A3DAAFE3B4186F6B6457E0 PUSH1 0x40 MLOAD PUSH1 0x40 MLOAD DUP1 SWAP2 SUB SWAP1 LOG3 POP POP JUMP JUMPDEST PUSH0 PUSH20 0xFFFFFFFFFFFFFFFFFFFFFFFFFFFFFFFFFFFFFFFF AND DUP3 PUSH20 0xFFFFFFFFFFFFFFFFFFFFFFFFFFFFFFFFFFFFFFFF AND SUB PUSH2 0x1E8A JUMPI DUP2 PUSH1 0x40 MLOAD PUSH32 0x5B08BA1800000000000000000000000000000000000000000000000000000000 DUP2 MSTORE PUSH1 0x4 ADD PUSH2 0x1E81 SWAP2 SWAP1 PUSH2 0x2E29 JUMP JUMPDEST PUSH1 0x40 MLOAD DUP1 SWAP2 SUB SWAP1 REVERT JUMPDEST DUP1 PUSH1 0x6 PUSH0 DUP6 PUSH20 0xFFFFFFFFFFFFFFFFFFFFFFFFFFFFFFFFFFFFFFFF AND PUSH20 0xFFFFFFFFFFFFFFFFFFFFFFFFFFFFFFFFFFFFFFFF AND DUP2 MSTORE PUSH1 0x20 ADD SWAP1 DUP2 MSTORE PUSH1 0x20 ADD PUSH0 KECCAK256 PUSH0 DUP5 PUSH20 0xFFFFFFFFFFFFFFFFFFFFFFFFFFFFFFFFFFFFFFFF AND PUSH20 0xFFFFFFFFFFFFFFFFFFFFFFFFFFFFFFFFFFFFFFFF AND DUP2 MSTORE PUSH1 0x20 ADD SWAP1 DUP2 MSTORE PUSH1 0x20 ADD PUSH0 KECCAK256 PUSH0 PUSH2 0x100 EXP DUP2 SLOAD DUP2 PUSH1 0xFF MUL NOT AND SWAP1 DUP4 ISZERO ISZERO MUL OR SWAP1 SSTORE POP DUP2 PUSH20 0xFFFFFFFFFFFFFFFFFFFFFFFFFFFFFFFFFFFFFFFF AND DUP4 PUSH20 0xFFFFFFFFFFFFFFFFFFFFFFFFFFFFFFFFFFFFFFFF AND PUSH32 0x17307EAB39AB6107E8899845AD3D59BD9653F200F220920489CA2B5937696C31 DUP4 PUSH1 0x40 MLOAD PUSH2 0x1F76 SWAP2 SWAP1 PUSH2 0x2B4B JUMP JUMPDEST PUSH1 0x40 MLOAD DUP1 SWAP2 SUB SWAP1 LOG3 POP POP POP JUMP JUMPDEST PUSH0 DUP4 PUSH20 0xFFFFFFFFFFFFFFFFFFFFFFFFFFFFFFFFFFFFFFFF AND EXTCODESIZE GT ISZERO PUSH2 0x2128 JUMPI DUP3 PUSH20 0xFFFFFFFFFFFFFFFFFFFFFFFFFFFFFFFFFFFFFFFF AND PUSH4 0x150B7A02 DUP7 DUP7 DUP6 DUP6 PUSH1 0x40 MLOAD DUP6 PUSH4 0xFFFFFFFF AND PUSH1 0xE0 SHL DUP2 MSTORE PUSH1 0x4 ADD PUSH2 0x1FE1 SWAP5 SWAP4 SWAP3 SWAP2 SWAP1 PUSH2 0x3E6C JUMP JUMPDEST PUSH1 0x20 PUSH1 0x40 MLOAD DUP1 DUP4 SUB DUP2 PUSH0 DUP8 GAS CALL SWAP3 POP POP POP DUP1 ISZERO PUSH2 0x201C JUMPI POP PUSH1 0x40 MLOAD RETURNDATASIZE PUSH1 0x1F NOT PUSH1 0x1F DUP3 ADD AND DUP3 ADD DUP1 PUSH1 0x40 MSTORE POP DUP2 ADD SWAP1 PUSH2 0x2019 SWAP2 SWAP1 PUSH2 0x3ECA JUMP JUMPDEST PUSH1 0x1 JUMPDEST PUSH2 0x209D JUMPI RETURNDATASIZE DUP1 PUSH0 DUP2 EQ PUSH2 0x204A JUMPI PUSH1 0x40 MLOAD SWAP2 POP PUSH1 0x1F NOT PUSH1 0x3F RETURNDATASIZE ADD AND DUP3 ADD PUSH1 0x40 MSTORE RETURNDATASIZE DUP3 MSTORE RETURNDATASIZE PUSH0 PUSH1 0x20 DUP5 ADD RETURNDATACOPY PUSH2 0x204F JUMP JUMPDEST PUSH1 0x60 SWAP2 POP JUMPDEST POP PUSH0 DUP2 MLOAD SUB PUSH2 0x2095 JUMPI DUP4 PUSH1 0x40 MLOAD PUSH32 0x64A0AE9200000000000000000000000000000000000000000000000000000000 DUP2 MSTORE PUSH1 0x4 ADD PUSH2 0x208C SWAP2 SWAP1 PUSH2 0x2E29 JUMP JUMPDEST PUSH1 0x40 MLOAD DUP1 SWAP2 SUB SWAP1 REVERT JUMPDEST DUP1 MLOAD DUP2 PUSH1 0x20 ADD REVERT JUMPDEST PUSH4 0x150B7A02 PUSH1 0xE0 SHL PUSH28 0xFFFFFFFFFFFFFFFFFFFFFFFFFFFFFFFFFFFFFFFFFFFFFFFFFFFFFFFF NOT AND DUP2 PUSH28 0xFFFFFFFFFFFFFFFFFFFFFFFFFFFFFFFFFFFFFFFFFFFFFFFFFFFFFFFF NOT AND EQ PUSH2 0x2126 JUMPI DUP4 PUSH1 0x40 MLOAD PUSH32 0x64A0AE9200000000000000000000000000000000000000000000000000000000 DUP2 MSTORE PUSH1 0x4 ADD PUSH2 0x211D SWAP2 SWAP1 PUSH2 0x2E29 JUMP JUMPDEST PUSH1 0x40 MLOAD DUP1 SWAP2 SUB SWAP1 REVERT JUMPDEST POP JUMPDEST POP POP POP POP POP JUMP JUMPDEST PUSH1 0x60 PUSH0 DUP3 PUSH2 0x2172 JUMPI PUSH1 0x40 MLOAD DUP1 PUSH1 0x40 ADD PUSH1 0x40 MSTORE DUP1 PUSH1 0x2 DUP2 MSTORE PUSH1 0x20 ADD PUSH32 0x4E6F000000000000000000000000000000000000000000000000000000000000 DUP2 MSTORE POP PUSH2 0x21A9 JUMP JUMPDEST PUSH1 0x40 MLOAD DUP1 PUSH1 0x40 ADD PUSH1 0x40 MSTORE DUP1 PUSH1 0x3 DUP2 MSTORE PUSH1 0x20 ADD PUSH32 0x5965730000000000000000000000000000000000000000000000000000000000 DUP2 MSTORE POP JUMPDEST SWAP1 POP DUP4 PUSH1 0xB PUSH0 DUP7 DUP2 MSTORE PUSH1 0x20 ADD SWAP1 DUP2 MSTORE PUSH1 0x20 ADD PUSH0 KECCAK256 PUSH0 ADD DUP3 PUSH1 0xB PUSH0 DUP9 DUP2 MSTORE PUSH1 0x20 ADD SWAP1 DUP2 MSTORE PUSH1 0x20 ADD PUSH0 KECCAK256 PUSH1 0x3 ADD SLOAD PUSH1 0xB PUSH0 DUP10 DUP2 MSTORE PUSH1 0x20 ADD SWAP1 DUP2 MSTORE PUSH1 0x20 ADD PUSH0 KECCAK256 PUSH1 0x4 ADD SLOAD PUSH1 0xB PUSH0 DUP11 DUP2 MSTORE PUSH1 0x20 ADD SWAP1 DUP2 MSTORE PUSH1 0x20 ADD PUSH0 KECCAK256 PUSH1 0x2 ADD SLOAD PUSH1 0x40 MLOAD PUSH1 0x20 ADD PUSH2 0x2214 SWAP7 SWAP6 SWAP5 SWAP4 SWAP3 SWAP2 SWAP1 PUSH2 0x4279 JUMP JUMPDEST PUSH1 0x40 MLOAD PUSH1 0x20 DUP2 DUP4 SUB SUB DUP2 MSTORE SWAP1 PUSH1 0x40 MSTORE SWAP2 POP POP SWAP3 SWAP2 POP POP JUMP JUMPDEST PUSH2 0x2238 CALLER PUSH1 0xA SLOAD PUSH2 0x2638 JUMP JUMPDEST PUSH2 0x2244 PUSH1 0xA SLOAD DUP3 PUSH2 0x2655 JUMP JUMPDEST PUSH1 0xA SLOAD PUSH32 0x9E0BFAF38878AAD3EBD19B8C8065288EB130F0499A7378363D4652515588AC96 DUP3 PUSH1 0x40 MLOAD PUSH2 0x2276 SWAP2 SWAP1 PUSH2 0x2D9F JUMP JUMPDEST PUSH1 0x40 MLOAD DUP1 SWAP2 SUB SWAP1 LOG2 PUSH1 0xA PUSH0 DUP2 SLOAD DUP1 SWAP3 SWAP2 SWAP1 PUSH2 0x2290 SWAP1 PUSH2 0x35E1 JUMP JUMPDEST SWAP2 SWAP1 POP SSTORE POP POP JUMP JUMPDEST PUSH1 0x60 PUSH1 0x40 MLOAD DUP1 PUSH1 0x20 ADD PUSH1 0x40 MSTORE DUP1 PUSH0 DUP2 MSTORE POP SWAP1 POP SWAP1 JUMP JUMPDEST PUSH1 0x60 PUSH2 0x22B9 DUP3 PUSH2 0x1A61 JUMP JUMPDEST POP PUSH0 PUSH2 0x22C3 PUSH2 0x2298 JUMP JUMPDEST SWAP1 POP PUSH0 DUP2 MLOAD GT PUSH2 0x22E1 JUMPI PUSH1 0x40 MLOAD DUP1 PUSH1 0x20 ADD PUSH1 0x40 MSTORE DUP1 PUSH0 DUP2 MSTORE POP PUSH2 0x230C JUMP JUMPDEST DUP1 PUSH2 0x22EB DUP5 PUSH2 0x26AF JUMP JUMPDEST PUSH1 0x40 MLOAD PUSH1 0x20 ADD PUSH2 0x22FC SWAP3 SWAP2 SWAP1 PUSH2 0x3C57 JUMP JUMPDEST PUSH1 0x40 MLOAD PUSH1 0x20 DUP2 DUP4 SUB SUB DUP2 MSTORE SWAP1 PUSH1 0x40 MSTORE JUMPDEST SWAP2 POP POP SWAP2 SWAP1 POP JUMP JUMPDEST PUSH0 PUSH32 0x1FFC9A700000000000000000000000000000000000000000000000000000000 PUSH28 0xFFFFFFFFFFFFFFFFFFFFFFFFFFFFFFFFFFFFFFFFFFFFFFFFFFFFFFFF NOT AND DUP3 PUSH28 0xFFFFFFFFFFFFFFFFFFFFFFFFFFFFFFFFFFFFFFFFFFFFFFFFFFFFFFFF NOT AND EQ SWAP1 POP SWAP2 SWAP1 POP JUMP JUMPDEST PUSH0 PUSH1 0x3 PUSH0 DUP4 DUP2 MSTORE PUSH1 0x20 ADD SWAP1 DUP2 MSTORE PUSH1 0x20 ADD PUSH0 KECCAK256 PUSH0 SWAP1 SLOAD SWAP1 PUSH2 0x100 EXP SWAP1 DIV PUSH20 0xFFFFFFFFFFFFFFFFFFFFFFFFFFFFFFFFFFFFFFFF AND SWAP1 POP SWAP2 SWAP1 POP JUMP JUMPDEST DUP1 DUP1 PUSH2 0x23EE JUMPI POP PUSH0 PUSH20 0xFFFFFFFFFFFFFFFFFFFFFFFFFFFFFFFFFFFFFFFF AND DUP3 PUSH20 0xFFFFFFFFFFFFFFFFFFFFFFFFFFFFFFFFFFFFFFFF AND EQ ISZERO JUMPDEST ISZERO PUSH2 0x2520 JUMPI PUSH0 PUSH2 0x23FD DUP5 PUSH2 0x1A61 JUMP JUMPDEST SWAP1 POP PUSH0 PUSH20 0xFFFFFFFFFFFFFFFFFFFFFFFFFFFFFFFFFFFFFFFF AND DUP4 PUSH20 0xFFFFFFFFFFFFFFFFFFFFFFFFFFFFFFFFFFFFFFFF AND EQ ISZERO DUP1 ISZERO PUSH2 0x2467 JUMPI POP DUP3 PUSH20 0xFFFFFFFFFFFFFFFFFFFFFFFFFFFFFFFFFFFFFFFF AND DUP2 PUSH20 0xFFFFFFFFFFFFFFFFFFFFFFFFFFFFFFFFFFFFFFFF AND EQ ISZERO JUMPDEST DUP1 ISZERO PUSH2 0x247A JUMPI POP PUSH2 0x2478 DUP2 DUP5 PUSH2 0x17D2 JUMP JUMPDEST ISZERO JUMPDEST ISZERO PUSH2 0x24BC JUMPI DUP3 PUSH1 0x40 MLOAD PUSH32 0xA9FBF51F00000000000000000000000000000000000000000000000000000000 DUP2 MSTORE PUSH1 0x4 ADD PUSH2 0x24B3 SWAP2 SWAP1 PUSH2 0x2E29 JUMP JUMPDEST PUSH1 0x40 MLOAD DUP1 SWAP2 SUB SWAP1 REVERT JUMPDEST DUP2 ISZERO PUSH2 0x251E JUMPI DUP4 DUP6 PUSH20 0xFFFFFFFFFFFFFFFFFFFFFFFFFFFFFFFFFFFFFFFF AND DUP3 PUSH20 0xFFFFFFFFFFFFFFFFFFFFFFFFFFFFFFFFFFFFFFFF AND PUSH32 0x8C5BE1E5EBEC7D5BD14F71427D1E84F3DD0314C0F7B2291E5B200AC8C7C3B925 PUSH1 0x40 MLOAD PUSH1 0x40 MLOAD DUP1 SWAP2 SUB SWAP1 LOG4 JUMPDEST POP JUMPDEST DUP4 PUSH1 0x5 PUSH0 DUP6 DUP2 MSTORE PUSH1 0x20 ADD SWAP1 DUP2 MSTORE PUSH1 0x20 ADD PUSH0 KECCAK256 PUSH0 PUSH2 0x100 EXP DUP2 SLOAD DUP2 PUSH20 0xFFFFFFFFFFFFFFFFFFFFFFFFFFFFFFFFFFFFFFFF MUL NOT AND SWAP1 DUP4 PUSH20 0xFFFFFFFFFFFFFFFFFFFFFFFFFFFFFFFFFFFFFFFF AND MUL OR SWAP1 SSTORE POP POP POP POP POP JUMP JUMPDEST PUSH2 0x2580 DUP4 DUP4 DUP4 PUSH2 0x2779 JUMP JUMPDEST PUSH2 0x2633 JUMPI PUSH0 PUSH20 0xFFFFFFFFFFFFFFFFFFFFFFFFFFFFFFFFFFFFFFFF AND DUP4 PUSH20 0xFFFFFFFFFFFFFFFFFFFFFFFFFFFFFFFFFFFFFFFF AND SUB PUSH2 0x25F4 JUMPI DUP1 PUSH1 0x40 MLOAD PUSH32 0x7E27328900000000000000000000000000000000000000000000000000000000 DUP2 MSTORE PUSH1 0x4 ADD PUSH2 0x25EB SWAP2 SWAP1 PUSH2 0x309D JUMP JUMPDEST PUSH1 0x40 MLOAD DUP1 SWAP2 SUB SWAP1 REVERT JUMPDEST DUP2 DUP2 PUSH1 0x40 MLOAD PUSH32 0x177E802F00000000000000000000000000000000000000000000000000000000 DUP2 MSTORE PUSH1 0x4 ADD PUSH2 0x262A SWAP3 SWAP2 SWAP1 PUSH2 0x3ABE JUMP JUMPDEST PUSH1 0x40 MLOAD DUP1 SWAP2 SUB SWAP1 REVERT JUMPDEST POP POP POP JUMP JUMPDEST PUSH2 0x2651 DUP3 DUP3 PUSH1 0x40 MLOAD DUP1 PUSH1 0x20 ADD PUSH1 0x40 MSTORE DUP1 PUSH0 DUP2 MSTORE POP PUSH2 0x2839 JUMP JUMPDEST POP POP JUMP JUMPDEST DUP1 PUSH1 0x7 PUSH0 DUP5 DUP2 MSTORE PUSH1 0x20 ADD SWAP1 DUP2 MSTORE PUSH1 0x20 ADD PUSH0 KECCAK256 SWAP1 DUP2 PUSH2 0x2673 SWAP2 SWAP1 PUSH2 0x34A9 JUMP JUMPDEST POP PUSH32 0xF8E1A15ABA9398E019F0B49DF1A4FDE98EE17AE345CB5F6B5E2C27F5033E8CE7 DUP3 PUSH1 0x40 MLOAD PUSH2 0x26A3 SWAP2 SWAP1 PUSH2 0x309D JUMP JUMPDEST PUSH1 0x40 MLOAD DUP1 SWAP2 SUB SWAP1 LOG1 POP POP JUMP JUMPDEST PUSH1 0x60 PUSH0 PUSH1 0x1 PUSH2 0x26BD DUP5 PUSH2 0x285C JUMP JUMPDEST ADD SWAP1 POP PUSH0 DUP2 PUSH8 0xFFFFFFFFFFFFFFFF DUP2 GT ISZERO PUSH2 0x26DB JUMPI PUSH2 0x26DA PUSH2 0x2B7C JUMP JUMPDEST JUMPDEST PUSH1 0x40 MLOAD SWAP1 DUP1 DUP3 MSTORE DUP1 PUSH1 0x1F ADD PUSH1 0x1F NOT AND PUSH1 0x20 ADD DUP3 ADD PUSH1 0x40 MSTORE DUP1 ISZERO PUSH2 0x270D JUMPI DUP2 PUSH1 0x20 ADD PUSH1 0x1 DUP3 MUL DUP1 CALLDATASIZE DUP4 CALLDATACOPY DUP1 DUP3 ADD SWAP2 POP POP SWAP1 POP JUMPDEST POP SWAP1 POP PUSH0 DUP3 PUSH1 0x20 ADD DUP3 ADD SWAP1 POP JUMPDEST PUSH1 0x1 ISZERO PUSH2 0x276E JUMPI DUP1 DUP1 PUSH1 0x1 SWAP1 SUB SWAP2 POP POP PUSH32 0x3031323334353637383961626364656600000000000000000000000000000000 PUSH1 0xA DUP7 MOD BYTE DUP2 MSTORE8 PUSH1 0xA DUP6 DUP2 PUSH2 0x2763 JUMPI PUSH2 0x2762 PUSH2 0x436F JUMP JUMPDEST JUMPDEST DIV SWAP5 POP PUSH0 DUP6 SUB PUSH2 0x271A JUMPI JUMPDEST DUP2 SWAP4 POP POP POP POP SWAP2 SWAP1 POP JUMP JUMPDEST PUSH0 DUP1 PUSH20 0xFFFFFFFFFFFFFFFFFFFFFFFFFFFFFFFFFFFFFFFF AND DUP4 PUSH20 0xFFFFFFFFFFFFFFFFFFFFFFFFFFFFFFFFFFFFFFFF AND EQ ISZERO DUP1 ISZERO PUSH2 0x2830 JUMPI POP DUP3 PUSH20 0xFFFFFFFFFFFFFFFFFFFFFFFFFFFFFFFFFFFFFFFF AND DUP5 PUSH20 0xFFFFFFFFFFFFFFFFFFFFFFFFFFFFFFFFFFFFFFFF AND EQ DUP1 PUSH2 0x27F1 JUMPI POP PUSH2 0x27F0 DUP5 DUP5 PUSH2 0x17D2 JUMP JUMPDEST JUMPDEST DUP1 PUSH2 0x282F JUMPI POP DUP3 PUSH20 0xFFFFFFFFFFFFFFFFFFFFFFFFFFFFFFFFFFFFFFFF AND PUSH2 0x2817 DUP4 PUSH2 0x1AE7 JUMP JUMPDEST PUSH20 0xFFFFFFFFFFFFFFFFFFFFFFFFFFFFFFFFFFFFFFFF AND EQ JUMPDEST JUMPDEST SWAP1 POP SWAP4 SWAP3 POP POP POP JUMP JUMPDEST PUSH2 0x2843 DUP4 DUP4 PUSH2 0x29AD JUMP JUMPDEST PUSH2 0x2857 PUSH2 0x284E PUSH2 0x1B20 JUMP JUMPDEST PUSH0 DUP6 DUP6 DUP6 PUSH2 0x1F83 JUMP JUMPDEST POP POP POP JUMP JUMPDEST PUSH0 DUP1 PUSH0 SWAP1 POP PUSH27 0x184F03E93FF9F4DAA797ED6E38ED64BF6A1F010000000000000000 DUP4 LT PUSH2 0x28B8 JUMPI PUSH27 0x184F03E93FF9F4DAA797ED6E38ED64BF6A1F010000000000000000 DUP4 DUP2 PUSH2 0x28AE JUMPI PUSH2 0x28AD PUSH2 0x436F JUMP JUMPDEST JUMPDEST DIV SWAP3 POP PUSH1 0x40 DUP2 ADD SWAP1 POP JUMPDEST PUSH14 0x4EE2D6D415B85ACEF8100000000 DUP4 LT PUSH2 0x28F5 JUMPI PUSH14 0x4EE2D6D415B85ACEF8100000000 DUP4 DUP2 PUSH2 0x28EB JUMPI PUSH2 0x28EA PUSH2 0x436F JUMP JUMPDEST JUMPDEST DIV SWAP3 POP PUSH1 0x20 DUP2 ADD SWAP1 POP JUMPDEST PUSH7 0x2386F26FC10000 DUP4 LT PUSH2 0x2924 JUMPI PUSH7 0x2386F26FC10000 DUP4 DUP2 PUSH2 0x291A JUMPI PUSH2 0x2919 PUSH2 0x436F JUMP JUMPDEST JUMPDEST DIV SWAP3 POP PUSH1 0x10 DUP2 ADD SWAP1 POP JUMPDEST PUSH4 0x5F5E100 DUP4 LT PUSH2 0x294D JUMPI PUSH4 0x5F5E100 DUP4 DUP2 PUSH2 0x2943 JUMPI PUSH2 0x2942 PUSH2 0x436F JUMP JUMPDEST JUMPDEST DIV SWAP3 POP PUSH1 0x8 DUP2 ADD SWAP1 POP JUMPDEST PUSH2 0x2710 DUP4 LT PUSH2 0x2972 JUMPI PUSH2 0x2710 DUP4 DUP2 PUSH2 0x2968 JUMPI PUSH2 0x2967 PUSH2 0x436F JUMP JUMPDEST JUMPDEST DIV SWAP3 POP PUSH1 0x4 DUP2 ADD SWAP1 POP JUMPDEST PUSH1 0x64 DUP4 LT PUSH2 0x2995 JUMPI PUSH1 0x64 DUP4 DUP2 PUSH2 0x298B JUMPI PUSH2 0x298A PUSH2 0x436F JUMP JUMPDEST JUMPDEST DIV SWAP3 POP PUSH1 0x2 DUP2 ADD SWAP1 POP JUMPDEST PUSH1 0xA DUP4 LT PUSH2 0x29A4 JUMPI PUSH1 0x1 DUP2 ADD SWAP1 POP JUMPDEST DUP1 SWAP2 POP POP SWAP2 SWAP1 POP JUMP JUMPDEST PUSH0 PUSH20 0xFFFFFFFFFFFFFFFFFFFFFFFFFFFFFFFFFFFFFFFF AND DUP3 PUSH20 0xFFFFFFFFFFFFFFFFFFFFFFFFFFFFFFFFFFFFFFFF AND SUB PUSH2 0x2A1D JUMPI PUSH0 PUSH1 0x40 MLOAD PUSH32 0x64A0AE9200000000000000000000000000000000000000000000000000000000 DUP2 MSTORE PUSH1 0x4 ADD PUSH2 0x2A14 SWAP2 SWAP1 PUSH2 0x2E29 JUMP JUMPDEST PUSH1 0x40 MLOAD DUP1 SWAP2 SUB SWAP1 REVERT JUMPDEST PUSH0 PUSH2 0x2A29 DUP4 DUP4 PUSH0 PUSH2 0x1B39 JUMP JUMPDEST SWAP1 POP PUSH0 PUSH20 0xFFFFFFFFFFFFFFFFFFFFFFFFFFFFFFFFFFFFFFFF AND DUP2 PUSH20 0xFFFFFFFFFFFFFFFFFFFFFFFFFFFFFFFFFFFFFFFF AND EQ PUSH2 0x2A9B JUMPI PUSH0 PUSH1 0x40 MLOAD PUSH32 0x73C6AC6E00000000000000000000000000000000000000000000000000000000 DUP2 MSTORE PUSH1 0x4 ADD PUSH2 0x2A92 SWAP2 SWAP1 PUSH2 0x2E29 JUMP JUMPDEST PUSH1 0x40 MLOAD DUP1 SWAP2 SUB SWAP1 REVERT JUMPDEST POP POP POP JUMP JUMPDEST PUSH0 PUSH1 0x40 MLOAD SWAP1 POP SWAP1 JUMP JUMPDEST PUSH0 DUP1 REVERT JUMPDEST PUSH0 DUP1 REVERT JUMPDEST PUSH0 PUSH32 0xFFFFFFFF00000000000000000000000000000000000000000000000000000000 DUP3 AND SWAP1 POP SWAP2 SWAP1 POP JUMP JUMPDEST PUSH2 0x2AE5 DUP2 PUSH2 0x2AB1 JUMP JUMPDEST DUP2 EQ PUSH2 0x2AEF JUMPI PUSH0 DUP1 REVERT JUMPDEST POP JUMP JUMPDEST PUSH0 DUP2 CALLDATALOAD SWAP1 POP PUSH2 0x2B00 DUP2 PUSH2 0x2ADC JUMP JUMPDEST SWAP3 SWAP2 POP POP JUMP JUMPDEST PUSH0 PUSH1 0x20 DUP3 DUP5 SUB SLT ISZERO PUSH2 0x2B1B JUMPI PUSH2 0x2B1A PUSH2 0x2AA9 JUMP JUMPDEST JUMPDEST PUSH0 PUSH2 0x2B28 DUP5 DUP3 DUP6 ADD PUSH2 0x2AF2 JUMP JUMPDEST SWAP2 POP POP SWAP3 SWAP2 POP POP JUMP JUMPDEST PUSH0 DUP2 ISZERO ISZERO SWAP1 POP SWAP2 SWAP1 POP JUMP JUMPDEST PUSH2 0x2B45 DUP2 PUSH2 0x2B31 JUMP JUMPDEST DUP3 MSTORE POP POP JUMP JUMPDEST PUSH0 PUSH1 0x20 DUP3 ADD SWAP1 POP PUSH2 0x2B5E PUSH0 DUP4 ADD DUP5 PUSH2 0x2B3C JUMP JUMPDEST SWAP3 SWAP2 POP POP JUMP JUMPDEST PUSH0 DUP1 REVERT JUMPDEST PUSH0 DUP1 REVERT JUMPDEST PUSH0 PUSH1 0x1F NOT PUSH1 0x1F DUP4 ADD AND SWAP1 POP SWAP2 SWAP1 POP JUMP JUMPDEST PUSH32 0x4E487B7100000000000000000000000000000000000000000000000000000000 PUSH0 MSTORE PUSH1 0x41 PUSH1 0x4 MSTORE PUSH1 0x24 PUSH0 REVERT JUMPDEST PUSH2 0x2BB2 DUP3 PUSH2 0x2B6C JUMP JUMPDEST DUP2 ADD DUP2 DUP2 LT PUSH8 0xFFFFFFFFFFFFFFFF DUP3 GT OR ISZERO PUSH2 0x2BD1 JUMPI PUSH2 0x2BD0 PUSH2 0x2B7C JUMP JUMPDEST JUMPDEST DUP1 PUSH1 0x40 MSTORE POP POP POP JUMP JUMPDEST PUSH0 PUSH2 0x2BE3 PUSH2 0x2AA0 JUMP JUMPDEST SWAP1 POP PUSH2 0x2BEF DUP3 DUP3 PUSH2 0x2BA9 JUMP JUMPDEST SWAP2 SWAP1 POP JUMP JUMPDEST PUSH0 PUSH8 0xFFFFFFFFFFFFFFFF DUP3 GT ISZERO PUSH2 0x2C0E JUMPI PUSH2 0x2C0D PUSH2 0x2B7C JUMP JUMPDEST JUMPDEST PUSH2 0x2C17 DUP3 PUSH2 0x2B6C JUMP JUMPDEST SWAP1 POP PUSH1 0x20 DUP2 ADD SWAP1 POP SWAP2 SWAP1 POP JUMP JUMPDEST DUP3 DUP2 DUP4 CALLDATACOPY PUSH0 DUP4 DUP4 ADD MSTORE POP POP POP JUMP JUMPDEST PUSH0 PUSH2 0x2C44 PUSH2 0x2C3F DUP5 PUSH2 0x2BF4 JUMP JUMPDEST PUSH2 0x2BDA JUMP JUMPDEST SWAP1 POP DUP3 DUP2 MSTORE PUSH1 0x20 DUP2 ADD DUP5 DUP5 DUP5 ADD GT ISZERO PUSH2 0x2C60 JUMPI PUSH2 0x2C5F PUSH2 0x2B68 JUMP JUMPDEST JUMPDEST PUSH2 0x2C6B DUP5 DUP3 DUP6 PUSH2 0x2C24 JUMP JUMPDEST POP SWAP4 SWAP3 POP POP POP JUMP JUMPDEST PUSH0 DUP3 PUSH1 0x1F DUP4 ADD SLT PUSH2 0x2C87 JUMPI PUSH2 0x2C86 PUSH2 0x2B64 JUMP JUMPDEST JUMPDEST DUP2 CALLDATALOAD PUSH2 0x2C97 DUP5 DUP3 PUSH1 0x20 DUP7 ADD PUSH2 0x2C32 JUMP JUMPDEST SWAP2 POP POP SWAP3 SWAP2 POP POP JUMP JUMPDEST PUSH0 DUP2 SWAP1 POP SWAP2 SWAP1 POP JUMP JUMPDEST PUSH2 0x2CB2 DUP2 PUSH2 0x2CA0 JUMP JUMPDEST DUP2 EQ PUSH2 0x2CBC JUMPI PUSH0 DUP1 REVERT JUMPDEST POP JUMP JUMPDEST PUSH0 DUP2 CALLDATALOAD SWAP1 POP PUSH2 0x2CCD DUP2 PUSH2 0x2CA9 JUMP JUMPDEST SWAP3 SWAP2 POP POP JUMP JUMPDEST PUSH0 DUP1 PUSH0 PUSH1 0x60 DUP5 DUP7 SUB SLT ISZERO PUSH2 0x2CEA JUMPI PUSH2 0x2CE9 PUSH2 0x2AA9 JUMP JUMPDEST JUMPDEST PUSH0 DUP5 ADD CALLDATALOAD PUSH8 0xFFFFFFFFFFFFFFFF DUP2 GT ISZERO PUSH2 0x2D07 JUMPI PUSH2 0x2D06 PUSH2 0x2AAD JUMP JUMPDEST JUMPDEST PUSH2 0x2D13 DUP7 DUP3 DUP8 ADD PUSH2 0x2C73 JUMP JUMPDEST SWAP4 POP POP PUSH1 0x20 PUSH2 0x2D24 DUP7 DUP3 DUP8 ADD PUSH2 0x2CBF JUMP JUMPDEST SWAP3 POP POP PUSH1 0x40 PUSH2 0x2D35 DUP7 DUP3 DUP8 ADD PUSH2 0x2CBF JUMP JUMPDEST SWAP2 POP POP SWAP3 POP SWAP3 POP SWAP3 JUMP JUMPDEST PUSH0 DUP2 MLOAD SWAP1 POP SWAP2 SWAP1 POP JUMP JUMPDEST PUSH0 DUP3 DUP3 MSTORE PUSH1 0x20 DUP3 ADD SWAP1 POP SWAP3 SWAP2 POP POP JUMP JUMPDEST DUP3 DUP2 DUP4 MCOPY PUSH0 DUP4 DUP4 ADD MSTORE POP POP POP JUMP JUMPDEST PUSH0 PUSH2 0x2D71 DUP3 PUSH2 0x2D3F JUMP JUMPDEST PUSH2 0x2D7B DUP2 DUP6 PUSH2 0x2D49 JUMP JUMPDEST SWAP4 POP PUSH2 0x2D8B DUP2 DUP6 PUSH1 0x20 DUP7 ADD PUSH2 0x2D59 JUMP JUMPDEST PUSH2 0x2D94 DUP2 PUSH2 0x2B6C JUMP JUMPDEST DUP5 ADD SWAP2 POP POP SWAP3 SWAP2 POP POP JUMP JUMPDEST PUSH0 PUSH1 0x20 DUP3 ADD SWAP1 POP DUP2 DUP2 SUB PUSH0 DUP4 ADD MSTORE PUSH2 0x2DB7 DUP2 DUP5 PUSH2 0x2D67 JUMP JUMPDEST SWAP1 POP SWAP3 SWAP2 POP POP JUMP JUMPDEST PUSH0 PUSH1 0x20 DUP3 DUP5 SUB SLT ISZERO PUSH2 0x2DD4 JUMPI PUSH2 0x2DD3 PUSH2 0x2AA9 JUMP JUMPDEST JUMPDEST PUSH0 PUSH2 0x2DE1 DUP5 DUP3 DUP6 ADD PUSH2 0x2CBF JUMP JUMPDEST SWAP2 POP POP SWAP3 SWAP2 POP POP JUMP JUMPDEST PUSH0 PUSH20 0xFFFFFFFFFFFFFFFFFFFFFFFFFFFFFFFFFFFFFFFF DUP3 AND SWAP1 POP SWAP2 SWAP1 POP JUMP JUMPDEST PUSH0 PUSH2 0x2E13 DUP3 PUSH2 0x2DEA JUMP JUMPDEST SWAP1 POP SWAP2 SWAP1 POP JUMP JUMPDEST PUSH2 0x2E23 DUP2 PUSH2 0x2E09 JUMP JUMPDEST DUP3 MSTORE POP POP JUMP JUMPDEST PUSH0 PUSH1 0x20 DUP3 ADD SWAP1 POP PUSH2 0x2E3C PUSH0 DUP4 ADD DUP5 PUSH2 0x2E1A JUMP JUMPDEST SWAP3 SWAP2 POP POP JUMP JUMPDEST PUSH2 0x2E4B DUP2 PUSH2 0x2E09 JUMP JUMPDEST DUP2 EQ PUSH2 0x2E55 JUMPI PUSH0 DUP1 REVERT JUMPDEST POP JUMP JUMPDEST PUSH0 DUP2 CALLDATALOAD SWAP1 POP PUSH2 0x2E66 DUP2 PUSH2 0x2E42 JUMP JUMPDEST SWAP3 SWAP2 POP POP JUMP JUMPDEST PUSH0 DUP1 PUSH1 0x40 DUP4 DUP6 SUB SLT ISZERO PUSH2 0x2E82 JUMPI PUSH2 0x2E81 PUSH2 0x2AA9 JUMP JUMPDEST JUMPDEST PUSH0 PUSH2 0x2E8F DUP6 DUP3 DUP7 ADD PUSH2 0x2E58 JUMP JUMPDEST SWAP3 POP POP PUSH1 0x20 PUSH2 0x2EA0 DUP6 DUP3 DUP7 ADD PUSH2 0x2CBF JUMP JUMPDEST SWAP2 POP POP SWAP3 POP SWAP3 SWAP1 POP JUMP JUMPDEST PUSH0 DUP1 PUSH0 PUSH1 0x60 DUP5 DUP7 SUB SLT ISZERO PUSH2 0x2EC1 JUMPI PUSH2 0x2EC0 PUSH2 0x2AA9 JUMP JUMPDEST JUMPDEST PUSH0 PUSH2 0x2ECE DUP7 DUP3 DUP8 ADD PUSH2 0x2E58 JUMP JUMPDEST SWAP4 POP POP PUSH1 0x20 PUSH2 0x2EDF DUP7 DUP3 DUP8 ADD PUSH2 0x2E58 JUMP JUMPDEST SWAP3 POP POP PUSH1 0x40 PUSH2 0x2EF0 DUP7 DUP3 DUP8 ADD PUSH2 0x2CBF JUMP JUMPDEST SWAP2 POP POP SWAP3 POP SWAP3 POP SWAP3 JUMP JUMPDEST PUSH0 DUP1 PUSH1 0x40 DUP4 DUP6 SUB SLT ISZERO PUSH2 0x2F10 JUMPI PUSH2 0x2F0F PUSH2 0x2AA9 JUMP JUMPDEST JUMPDEST PUSH0 PUSH2 0x2F1D DUP6 DUP3 DUP7 ADD PUSH2 0x2CBF JUMP JUMPDEST SWAP3 POP POP PUSH1 0x20 PUSH2 0x2F2E DUP6 DUP3 DUP7 ADD PUSH2 0x2CBF JUMP JUMPDEST SWAP2 POP POP SWAP3 POP SWAP3 SWAP1 POP JUMP JUMPDEST PUSH0 DUP2 SWAP1 POP SWAP2 SWAP1 POP JUMP JUMPDEST PUSH0 PUSH2 0x2F5B PUSH2 0x2F56 PUSH2 0x2F51 DUP5 PUSH2 0x2DEA JUMP JUMPDEST PUSH2 0x2F38 JUMP JUMPDEST PUSH2 0x2DEA JUMP JUMPDEST SWAP1 POP SWAP2 SWAP1 POP JUMP JUMPDEST PUSH0 PUSH2 0x2F6C DUP3 PUSH2 0x2F41 JUMP JUMPDEST SWAP1 POP SWAP2 SWAP1 POP JUMP JUMPDEST PUSH0 PUSH2 0x2F7D DUP3 PUSH2 0x2F62 JUMP JUMPDEST SWAP1 POP SWAP2 SWAP1 POP JUMP JUMPDEST PUSH2 0x2F8D DUP2 PUSH2 0x2F73 JUMP JUMPDEST DUP3 MSTORE POP POP JUMP JUMPDEST PUSH0 PUSH1 0x20 DUP3 ADD SWAP1 POP PUSH2 0x2FA6 PUSH0 DUP4 ADD DUP5 PUSH2 0x2F84 JUMP JUMPDEST SWAP3 SWAP2 POP POP JUMP JUMPDEST PUSH2 0x2FB5 DUP2 PUSH2 0x2CA0 JUMP JUMPDEST DUP3 MSTORE POP POP JUMP JUMPDEST PUSH0 PUSH1 0xA0 DUP3 ADD SWAP1 POP PUSH2 0x2FCE PUSH0 DUP4 ADD DUP9 PUSH2 0x2FAC JUMP JUMPDEST PUSH2 0x2FDB PUSH1 0x20 DUP4 ADD DUP8 PUSH2 0x2FAC JUMP JUMPDEST PUSH2 0x2FE8 PUSH1 0x40 DUP4 ADD DUP7 PUSH2 0x2FAC JUMP JUMPDEST PUSH2 0x2FF5 PUSH1 0x60 DUP4 ADD DUP6 PUSH2 0x2FAC JUMP JUMPDEST PUSH2 0x3002 PUSH1 0x80 DUP4 ADD DUP5 PUSH2 0x2B3C JUMP JUMPDEST SWAP7 SWAP6 POP POP POP POP POP POP JUMP JUMPDEST PUSH0 PUSH1 0xC0 DUP3 ADD SWAP1 POP DUP2 DUP2 SUB PUSH0 DUP4 ADD MSTORE PUSH2 0x3024 DUP2 DUP10 PUSH2 0x2D67 JUMP JUMPDEST SWAP1 POP PUSH2 0x3033 PUSH1 0x20 DUP4 ADD DUP9 PUSH2 0x2FAC JUMP JUMPDEST PUSH2 0x3040 PUSH1 0x40 DUP4 ADD DUP8 PUSH2 0x2FAC JUMP JUMPDEST PUSH2 0x304D PUSH1 0x60 DUP4 ADD DUP7 PUSH2 0x2FAC JUMP JUMPDEST PUSH2 0x305A PUSH1 0x80 DUP4 ADD DUP6 PUSH2 0x2FAC JUMP JUMPDEST PUSH2 0x3067 PUSH1 0xA0 DUP4 ADD DUP5 PUSH2 0x2B3C JUMP JUMPDEST SWAP8 SWAP7 POP POP POP POP POP POP POP JUMP JUMPDEST PUSH0 PUSH1 0x20 DUP3 DUP5 SUB SLT ISZERO PUSH2 0x3087 JUMPI PUSH2 0x3086 PUSH2 0x2AA9 JUMP JUMPDEST JUMPDEST PUSH0 PUSH2 0x3094 DUP5 DUP3 DUP6 ADD PUSH2 0x2E58 JUMP JUMPDEST SWAP2 POP POP SWAP3 SWAP2 POP POP JUMP JUMPDEST PUSH0 PUSH1 0x20 DUP3 ADD SWAP1 POP PUSH2 0x30B0 PUSH0 DUP4 ADD DUP5 PUSH2 0x2FAC JUMP JUMPDEST SWAP3 SWAP2 POP POP JUMP JUMPDEST PUSH2 0x30BF DUP2 PUSH2 0x2B31 JUMP JUMPDEST DUP2 EQ PUSH2 0x30C9 JUMPI PUSH0 DUP1 REVERT JUMPDEST POP JUMP JUMPDEST PUSH0 DUP2 CALLDATALOAD SWAP1 POP PUSH2 0x30DA DUP2 PUSH2 0x30B6 JUMP JUMPDEST SWAP3 SWAP2 POP POP JUMP JUMPDEST PUSH0 DUP1 PUSH1 0x40 DUP4 DUP6 SUB SLT ISZERO PUSH2 0x30F6 JUMPI PUSH2 0x30F5 PUSH2 0x2AA9 JUMP JUMPDEST JUMPDEST PUSH0 PUSH2 0x3103 DUP6 DUP3 DUP7 ADD PUSH2 0x2E58 JUMP JUMPDEST SWAP3 POP POP PUSH1 0x20 PUSH2 0x3114 DUP6 DUP3 DUP7 ADD PUSH2 0x30CC JUMP JUMPDEST SWAP2 POP POP SWAP3 POP SWAP3 SWAP1 POP JUMP JUMPDEST PUSH0 PUSH8 0xFFFFFFFFFFFFFFFF DUP3 GT ISZERO PUSH2 0x3138 JUMPI PUSH2 0x3137 PUSH2 0x2B7C JUMP JUMPDEST JUMPDEST PUSH2 0x3141 DUP3 PUSH2 0x2B6C JUMP JUMPDEST SWAP1 POP PUSH1 0x20 DUP2 ADD SWAP1 POP SWAP2 SWAP1 POP JUMP JUMPDEST PUSH0 PUSH2 0x3160 PUSH2 0x315B DUP5 PUSH2 0x311E JUMP JUMPDEST PUSH2 0x2BDA JUMP JUMPDEST SWAP1 POP DUP3 DUP2 MSTORE PUSH1 0x20 DUP2 ADD DUP5 DUP5 DUP5 ADD GT ISZERO PUSH2 0x317C JUMPI PUSH2 0x317B PUSH2 0x2B68 JUMP JUMPDEST JUMPDEST PUSH2 0x3187 DUP5 DUP3 DUP6 PUSH2 0x2C24 JUMP JUMPDEST POP SWAP4 SWAP3 POP POP POP JUMP JUMPDEST PUSH0 DUP3 PUSH1 0x1F DUP4 ADD SLT PUSH2 0x31A3 JUMPI PUSH2 0x31A2 PUSH2 0x2B64 JUMP JUMPDEST JUMPDEST DUP2 CALLDATALOAD PUSH2 0x31B3 DUP5 DUP3 PUSH1 0x20 DUP7 ADD PUSH2 0x314E JUMP JUMPDEST SWAP2 POP POP SWAP3 SWAP2 POP POP JUMP JUMPDEST PUSH0 DUP1 PUSH0 DUP1 PUSH1 0x80 DUP6 DUP8 SUB SLT ISZERO PUSH2 0x31D4 JUMPI PUSH2 0x31D3 PUSH2 0x2AA9 JUMP JUMPDEST JUMPDEST PUSH0 PUSH2 0x31E1 DUP8 DUP3 DUP9 ADD PUSH2 0x2E58 JUMP JUMPDEST SWAP5 POP POP PUSH1 0x20 PUSH2 0x31F2 DUP8 DUP3 DUP9 ADD PUSH2 0x2E58 JUMP JUMPDEST SWAP4 POP POP PUSH1 0x40 PUSH2 0x3203 DUP8 DUP3 DUP9 ADD PUSH2 0x2CBF JUMP JUMPDEST SWAP3 POP POP PUSH1 0x60 DUP6 ADD CALLDATALOAD PUSH8 0xFFFFFFFFFFFFFFFF DUP2 GT ISZERO PUSH2 0x3224 JUMPI PUSH2 0x3223 PUSH2 0x2AAD JUMP JUMPDEST JUMPDEST PUSH2 0x3230 DUP8 DUP3 DUP9 ADD PUSH2 0x318F JUMP JUMPDEST SWAP2 POP POP SWAP3 SWAP6 SWAP2 SWAP5 POP SWAP3 POP JUMP JUMPDEST PUSH0 DUP1 PUSH1 0x40 DUP4 DUP6 SUB SLT ISZERO PUSH2 0x3252 JUMPI PUSH2 0x3251 PUSH2 0x2AA9 JUMP JUMPDEST JUMPDEST PUSH0 PUSH2 0x325F DUP6 DUP3 DUP7 ADD PUSH2 0x2CBF JUMP JUMPDEST SWAP3 POP POP PUSH1 0x20 PUSH2 0x3270 DUP6 DUP3 DUP7 ADD PUSH2 0x30CC JUMP JUMPDEST SWAP2 POP POP SWAP3 POP SWAP3 SWAP1 POP JUMP JUMPDEST PUSH0 DUP1 PUSH1 0x40 DUP4 DUP6 SUB SLT ISZERO PUSH2 0x3290 JUMPI PUSH2 0x328F PUSH2 0x2AA9 JUMP JUMPDEST JUMPDEST PUSH0 PUSH2 0x329D DUP6 DUP3 DUP7 ADD PUSH2 0x2E58 JUMP JUMPDEST SWAP3 POP POP PUSH1 0x20 PUSH2 0x32AE DUP6 DUP3 DUP7 ADD PUSH2 0x2E58 JUMP JUMPDEST SWAP2 POP POP SWAP3 POP SWAP3 SWAP1 POP JUMP JUMPDEST PUSH32 0x4E487B7100000000000000000000000000000000000000000000000000000000 PUSH0 MSTORE PUSH1 0x22 PUSH1 0x4 MSTORE PUSH1 0x24 PUSH0 REVERT JUMPDEST PUSH0 PUSH1 0x2 DUP3 DIV SWAP1 POP PUSH1 0x1 DUP3 AND DUP1 PUSH2 0x32FC JUMPI PUSH1 0x7F DUP3 AND SWAP2 POP JUMPDEST PUSH1 0x20 DUP3 LT DUP2 SUB PUSH2 0x330F JUMPI PUSH2 0x330E PUSH2 0x32B8 JUMP JUMPDEST JUMPDEST POP SWAP2 SWAP1 POP JUMP JUMPDEST PUSH0 DUP2 SWAP1 POP DUP2 PUSH0 MSTORE PUSH1 0x20 PUSH0 KECCAK256 SWAP1 POP SWAP2 SWAP1 POP JUMP JUMPDEST PUSH0 PUSH1 0x20 PUSH1 0x1F DUP4 ADD DIV SWAP1 POP SWAP2 SWAP1 POP JUMP JUMPDEST PUSH0 DUP3 DUP3 SHL SWAP1 POP SWAP3 SWAP2 POP POP JUMP JUMPDEST PUSH0 PUSH1 0x8 DUP4 MUL PUSH2 0x3371 PUSH32 0xFFFFFFFFFFFFFFFFFFFFFFFFFFFFFFFFFFFFFFFFFFFFFFFFFFFFFFFFFFFFFFFF DUP3 PUSH2 0x3336 JUMP JUMPDEST PUSH2 0x337B DUP7 DUP4 PUSH2 0x3336 JUMP JUMPDEST SWAP6 POP DUP1 NOT DUP5 AND SWAP4 POP DUP1 DUP7 AND DUP5 OR SWAP3 POP POP POP SWAP4 SWAP3 POP POP POP JUMP JUMPDEST PUSH0 PUSH2 0x33AD PUSH2 0x33A8 PUSH2 0x33A3 DUP5 PUSH2 0x2CA0 JUMP JUMPDEST PUSH2 0x2F38 JUMP JUMPDEST PUSH2 0x2CA0 JUMP JUMPDEST SWAP1 POP SWAP2 SWAP1 POP JUMP JUMPDEST PUSH0 DUP2 SWAP1 POP SWAP2 SWAP1 POP JUMP JUMPDEST PUSH2 0x33C6 DUP4 PUSH2 0x3393 JUMP JUMPDEST PUSH2 0x33DA PUSH2 0x33D2 DUP3 PUSH2 0x33B4 JUMP JUMPDEST DUP5 DUP5 SLOAD PUSH2 0x3342 JUMP JUMPDEST DUP3 SSTORE POP POP POP POP JUMP JUMPDEST PUSH0 SWAP1 JUMP JUMPDEST PUSH2 0x33EE PUSH2 0x33E2 JUMP JUMPDEST PUSH2 0x33F9 DUP2 DUP5 DUP5 PUSH2 0x33BD JUMP JUMPDEST POP POP POP JUMP JUMPDEST JUMPDEST DUP2 DUP2 LT ISZERO PUSH2 0x341C JUMPI PUSH2 0x3411 PUSH0 DUP3 PUSH2 0x33E6 JUMP JUMPDEST PUSH1 0x1 DUP2 ADD SWAP1 POP PUSH2 0x33FF JUMP JUMPDEST POP POP JUMP JUMPDEST PUSH1 0x1F DUP3 GT ISZERO PUSH2 0x3461 JUMPI PUSH2 0x3432 DUP2 PUSH2 0x3315 JUMP JUMPDEST PUSH2 0x343B DUP5 PUSH2 0x3327 JUMP JUMPDEST DUP2 ADD PUSH1 0x20 DUP6 LT ISZERO PUSH2 0x344A JUMPI DUP2 SWAP1 POP JUMPDEST PUSH2 0x345E PUSH2 0x3456 DUP6 PUSH2 0x3327 JUMP JUMPDEST DUP4 ADD DUP3 PUSH2 0x33FE JUMP JUMPDEST POP POP JUMPDEST POP POP POP JUMP JUMPDEST PUSH0 DUP3 DUP3 SHR SWAP1 POP SWAP3 SWAP2 POP POP JUMP JUMPDEST PUSH0 PUSH2 0x3481 PUSH0 NOT DUP5 PUSH1 0x8 MUL PUSH2 0x3466 JUMP JUMPDEST NOT DUP1 DUP4 AND SWAP2 POP POP SWAP3 SWAP2 POP POP JUMP JUMPDEST PUSH0 PUSH2 0x3499 DUP4 DUP4 PUSH2 0x3472 JUMP JUMPDEST SWAP2 POP DUP3 PUSH1 0x2 MUL DUP3 OR SWAP1 POP SWAP3 SWAP2 POP POP JUMP JUMPDEST PUSH2 0x34B2 DUP3 PUSH2 0x2D3F JUMP JUMPDEST PUSH8 0xFFFFFFFFFFFFFFFF DUP2 GT ISZERO PUSH2 0x34CB JUMPI PUSH2 0x34CA PUSH2 0x2B7C JUMP JUMPDEST JUMPDEST PUSH2 0x34D5 DUP3 SLOAD PUSH2 0x32E5 JUMP JUMPDEST PUSH2 0x34E0 DUP3 DUP3 DUP6 PUSH2 0x3420 JUMP JUMPDEST PUSH0 PUSH1 0x20 SWAP1 POP PUSH1 0x1F DUP4 GT PUSH1 0x1 DUP2 EQ PUSH2 0x3511 JUMPI PUSH0 DUP5 ISZERO PUSH2 0x34FF JUMPI DUP3 DUP8 ADD MLOAD SWAP1 POP JUMPDEST PUSH2 0x3509 DUP6 DUP3 PUSH2 0x348E JUMP JUMPDEST DUP7 SSTORE POP PUSH2 0x3570 JUMP JUMPDEST PUSH1 0x1F NOT DUP5 AND PUSH2 0x351F DUP7 PUSH2 0x3315 JUMP JUMPDEST PUSH0 JUMPDEST DUP3 DUP2 LT ISZERO PUSH2 0x3546 JUMPI DUP5 DUP10 ADD MLOAD DUP3 SSTORE PUSH1 0x1 DUP3 ADD SWAP2 POP PUSH1 0x20 DUP6 ADD SWAP5 POP PUSH1 0x20 DUP2 ADD SWAP1 POP PUSH2 0x3521 JUMP JUMPDEST DUP7 DUP4 LT ISZERO PUSH2 0x3563 JUMPI DUP5 DUP10 ADD MLOAD PUSH2 0x355F PUSH1 0x1F DUP10 AND DUP3 PUSH2 0x3472 JUMP JUMPDEST DUP4 SSTORE POP JUMPDEST PUSH1 0x1 PUSH1 0x2 DUP9 MUL ADD DUP9 SSTORE POP POP POP JUMPDEST POP POP POP POP POP POP JUMP JUMPDEST PUSH0 PUSH1 0x60 DUP3 ADD SWAP1 POP DUP2 DUP2 SUB PUSH0 DUP4 ADD MSTORE PUSH2 0x3590 DUP2 DUP7 PUSH2 0x2D67 JUMP JUMPDEST SWAP1 POP PUSH2 0x359F PUSH1 0x20 DUP4 ADD DUP6 PUSH2 0x2FAC JUMP JUMPDEST PUSH2 0x35AC PUSH1 0x40 DUP4 ADD DUP5 PUSH2 0x2FAC JUMP JUMPDEST SWAP5 SWAP4 POP POP POP POP JUMP JUMPDEST PUSH32 0x4E487B7100000000000000000000000000000000000000000000000000000000 PUSH0 MSTORE PUSH1 0x11 PUSH1 0x4 MSTORE PUSH1 0x24 PUSH0 REVERT JUMPDEST PUSH0 PUSH2 0x35EB DUP3 PUSH2 0x2CA0 JUMP JUMPDEST SWAP2 POP PUSH32 0xFFFFFFFFFFFFFFFFFFFFFFFFFFFFFFFFFFFFFFFFFFFFFFFFFFFFFFFFFFFFFFFF DUP3 SUB PUSH2 0x361D JUMPI PUSH2 0x361C PUSH2 0x35B4 JUMP JUMPDEST JUMPDEST PUSH1 0x1 DUP3 ADD SWAP1 POP SWAP2 SWAP1 POP JUMP JUMPDEST PUSH0 PUSH1 0x60 DUP3 ADD SWAP1 POP PUSH2 0x363B PUSH0 DUP4 ADD DUP7 PUSH2 0x2E1A JUMP JUMPDEST PUSH2 0x3648 PUSH1 0x20 DUP4 ADD DUP6 PUSH2 0x2FAC JUMP JUMPDEST PUSH2 0x3655 PUSH1 0x40 DUP4 ADD DUP5 PUSH2 0x2E1A JUMP JUMPDEST SWAP5 SWAP4 POP POP POP POP JUMP JUMPDEST PUSH32 0x496E76616C6964207374616B696E6720706572696F6400000000000000000000 PUSH0 DUP3 ADD MSTORE POP JUMP JUMPDEST PUSH0 PUSH2 0x3691 PUSH1 0x16 DUP4 PUSH2 0x2D49 JUMP JUMPDEST SWAP2 POP PUSH2 0x369C DUP3 PUSH2 0x365D JUMP JUMPDEST PUSH1 0x20 DUP3 ADD SWAP1 POP SWAP2 SWAP1 POP JUMP JUMPDEST PUSH0 PUSH1 0x20 DUP3 ADD SWAP1 POP DUP2 DUP2 SUB PUSH0 DUP4 ADD MSTORE PUSH2 0x36BE DUP2 PUSH2 0x3685 JUMP JUMPDEST SWAP1 POP SWAP2 SWAP1 POP JUMP JUMPDEST PUSH0 PUSH1 0x60 DUP3 ADD SWAP1 POP PUSH2 0x36D8 PUSH0 DUP4 ADD DUP7 PUSH2 0x2E1A JUMP JUMPDEST PUSH2 0x36E5 PUSH1 0x20 DUP4 ADD DUP6 PUSH2 0x2E1A JUMP JUMPDEST PUSH2 0x36F2 PUSH1 0x40 DUP4 ADD DUP5 PUSH2 0x2FAC JUMP JUMPDEST SWAP5 SWAP4 POP POP POP POP JUMP JUMPDEST PUSH0 DUP2 MLOAD SWAP1 POP PUSH2 0x3708 DUP2 PUSH2 0x30B6 JUMP JUMPDEST SWAP3 SWAP2 POP POP JUMP JUMPDEST PUSH0 PUSH1 0x20 DUP3 DUP5 SUB SLT ISZERO PUSH2 0x3723 JUMPI PUSH2 0x3722 PUSH2 0x2AA9 JUMP JUMPDEST JUMPDEST PUSH0 PUSH2 0x3730 DUP5 DUP3 DUP6 ADD PUSH2 0x36FA JUMP JUMPDEST SWAP2 POP POP SWAP3 SWAP2 POP POP JUMP JUMPDEST PUSH32 0x5374616B65206661696C65640000000000000000000000000000000000000000 PUSH0 DUP3 ADD MSTORE POP JUMP JUMPDEST PUSH0 PUSH2 0x376D PUSH1 0xC DUP4 PUSH2 0x2D49 JUMP JUMPDEST SWAP2 POP PUSH2 0x3778 DUP3 PUSH2 0x3739 JUMP JUMPDEST PUSH1 0x20 DUP3 ADD SWAP1 POP SWAP2 SWAP1 POP JUMP JUMPDEST PUSH0 PUSH1 0x20 DUP3 ADD SWAP1 POP DUP2 DUP2 SUB PUSH0 DUP4 ADD MSTORE PUSH2 0x379A DUP2 PUSH2 0x3761 JUMP JUMPDEST SWAP1 POP SWAP2 SWAP1 POP JUMP JUMPDEST PUSH0 DUP2 PUSH1 0x1 SHR SWAP1 POP SWAP2 SWAP1 POP JUMP JUMPDEST PUSH0 DUP1 DUP3 SWAP2 POP DUP4 SWAP1 POP JUMPDEST PUSH1 0x1 DUP6 GT ISZERO PUSH2 0x37F6 JUMPI DUP1 DUP7 DIV DUP2 GT ISZERO PUSH2 0x37D2 JUMPI PUSH2 0x37D1 PUSH2 0x35B4 JUMP JUMPDEST JUMPDEST PUSH1 0x1 DUP6 AND ISZERO PUSH2 0x37E1 JUMPI DUP1 DUP3 MUL SWAP2 POP JUMPDEST DUP1 DUP2 MUL SWAP1 POP PUSH2 0x37EF DUP6 PUSH2 0x37A1 JUMP JUMPDEST SWAP5 POP PUSH2 0x37B6 JUMP JUMPDEST SWAP5 POP SWAP5 SWAP3 POP POP POP JUMP JUMPDEST PUSH0 DUP3 PUSH2 0x380E JUMPI PUSH1 0x1 SWAP1 POP PUSH2 0x38C9 JUMP JUMPDEST DUP2 PUSH2 0x381B JUMPI PUSH0 SWAP1 POP PUSH2 0x38C9 JUMP JUMPDEST DUP2 PUSH1 0x1 DUP2 EQ PUSH2 0x3831 JUMPI PUSH1 0x2 DUP2 EQ PUSH2 0x383B JUMPI PUSH2 0x386A JUMP JUMPDEST PUSH1 0x1 SWAP2 POP POP PUSH2 0x38C9 JUMP JUMPDEST PUSH1 0xFF DUP5 GT ISZERO PUSH2 0x384D JUMPI PUSH2 0x384C PUSH2 0x35B4 JUMP JUMPDEST JUMPDEST DUP4 PUSH1 0x2 EXP SWAP2 POP DUP5 DUP3 GT ISZERO PUSH2 0x3864 JUMPI PUSH2 0x3863 PUSH2 0x35B4 JUMP JUMPDEST JUMPDEST POP PUSH2 0x38C9 JUMP JUMPDEST POP PUSH1 0x20 DUP4 LT PUSH2 0x133 DUP4 LT AND PUSH1 0x4E DUP5 LT PUSH1 0xB DUP5 LT AND OR ISZERO PUSH2 0x389F JUMPI DUP3 DUP3 EXP SWAP1 POP DUP4 DUP2 GT ISZERO PUSH2 0x389A JUMPI PUSH2 0x3899 PUSH2 0x35B4 JUMP JUMPDEST JUMPDEST PUSH2 0x38C9 JUMP JUMPDEST PUSH2 0x38AC DUP5 DUP5 DUP5 PUSH1 0x1 PUSH2 0x37AD JUMP JUMPDEST SWAP3 POP SWAP1 POP DUP2 DUP5 DIV DUP2 GT ISZERO PUSH2 0x38C3 JUMPI PUSH2 0x38C2 PUSH2 0x35B4 JUMP JUMPDEST JUMPDEST DUP2 DUP2 MUL SWAP1 POP JUMPDEST SWAP4 SWAP3 POP POP POP JUMP JUMPDEST PUSH0 PUSH1 0xFF DUP3 AND SWAP1 POP SWAP2 SWAP1 POP JUMP JUMPDEST PUSH0 PUSH2 0x38E6 DUP3 PUSH2 0x2CA0 JUMP JUMPDEST SWAP2 POP PUSH2 0x38F1 DUP4 PUSH2 0x38D0 JUMP JUMPDEST SWAP3 POP PUSH2 0x391E PUSH32 0xFFFFFFFFFFFFFFFFFFFFFFFFFFFFFFFFFFFFFFFFFFFFFFFFFFFFFFFFFFFFFFFF DUP5 DUP5 PUSH2 0x37FF JUMP JUMPDEST SWAP1 POP SWAP3 SWAP2 POP POP JUMP JUMPDEST PUSH32 0x496E76616C6964207374616B6520696E64657800000000000000000000000000 PUSH0 DUP3 ADD MSTORE POP JUMP JUMPDEST PUSH0 PUSH2 0x395A PUSH1 0x13 DUP4 PUSH2 0x2D49 JUMP JUMPDEST SWAP2 POP PUSH2 0x3965 DUP3 PUSH2 0x3926 JUMP JUMPDEST PUSH1 0x20 DUP3 ADD SWAP1 POP SWAP2 SWAP1 POP JUMP JUMPDEST PUSH0 PUSH1 0x20 DUP3 ADD SWAP1 POP DUP2 DUP2 SUB PUSH0 DUP4 ADD MSTORE PUSH2 0x3987 DUP2 PUSH2 0x394E JUMP JUMPDEST SWAP1 POP SWAP2 SWAP1 POP JUMP JUMPDEST PUSH32 0x4E487B7100000000000000000000000000000000000000000000000000000000 PUSH0 MSTORE PUSH1 0x32 PUSH1 0x4 MSTORE PUSH1 0x24 PUSH0 REVERT JUMPDEST PUSH32 0x5374616B6520616C726561647920756E7374616B656400000000000000000000 PUSH0 DUP3 ADD MSTORE POP JUMP JUMPDEST PUSH0 PUSH2 0x39EF PUSH1 0x16 DUP4 PUSH2 0x2D49 JUMP JUMPDEST SWAP2 POP PUSH2 0x39FA DUP3 PUSH2 0x39BB JUMP JUMPDEST PUSH1 0x20 DUP3 ADD SWAP1 POP SWAP2 SWAP1 POP JUMP JUMPDEST PUSH0 PUSH1 0x20 DUP3 ADD SWAP1 POP DUP2 DUP2 SUB PUSH0 DUP4 ADD MSTORE PUSH2 0x3A1C DUP2 PUSH2 0x39E3 JUMP JUMPDEST SWAP1 POP SWAP2 SWAP1 POP JUMP JUMPDEST PUSH0 PUSH2 0x3A2D DUP3 PUSH2 0x2CA0 JUMP JUMPDEST SWAP2 POP PUSH2 0x3A38 DUP4 PUSH2 0x2CA0 JUMP JUMPDEST SWAP3 POP DUP3 DUP3 ADD SWAP1 POP DUP1 DUP3 GT ISZERO PUSH2 0x3A50 JUMPI PUSH2 0x3A4F PUSH2 0x35B4 JUMP JUMPDEST JUMPDEST SWAP3 SWAP2 POP POP JUMP JUMPDEST PUSH32 0x5374616B696E6720706572696F64206E6F7420796574206F7665720000000000 PUSH0 DUP3 ADD MSTORE POP JUMP JUMPDEST PUSH0 PUSH2 0x3A8A PUSH1 0x1B DUP4 PUSH2 0x2D49 JUMP JUMPDEST SWAP2 POP PUSH2 0x3A95 DUP3 PUSH2 0x3A56 JUMP JUMPDEST PUSH1 0x20 DUP3 ADD SWAP1 POP SWAP2 SWAP1 POP JUMP JUMPDEST PUSH0 PUSH1 0x20 DUP3 ADD SWAP1 POP DUP2 DUP2 SUB PUSH0 DUP4 ADD MSTORE PUSH2 0x3AB7 DUP2 PUSH2 0x3A7E JUMP JUMPDEST SWAP1 POP SWAP2 SWAP1 POP JUMP JUMPDEST PUSH0 PUSH1 0x40 DUP3 ADD SWAP1 POP PUSH2 0x3AD1 PUSH0 DUP4 ADD DUP6 PUSH2 0x2E1A JUMP JUMPDEST PUSH2 0x3ADE PUSH1 0x20 DUP4 ADD DUP5 PUSH2 0x2FAC JUMP JUMPDEST SWAP4 SWAP3 POP POP POP JUMP JUMPDEST PUSH32 0x556E7374616B65206661696C6564000000000000000000000000000000000000 PUSH0 DUP3 ADD MSTORE POP JUMP JUMPDEST PUSH0 PUSH2 0x3B19 PUSH1 0xE DUP4 PUSH2 0x2D49 JUMP JUMPDEST SWAP2 POP PUSH2 0x3B24 DUP3 PUSH2 0x3AE5 JUMP JUMPDEST PUSH1 0x20 DUP3 ADD SWAP1 POP SWAP2 SWAP1 POP JUMP JUMPDEST PUSH0 PUSH1 0x20 DUP3 ADD SWAP1 POP DUP2 DUP2 SUB PUSH0 DUP4 ADD MSTORE PUSH2 0x3B46 DUP2 PUSH2 0x3B0D JUMP JUMPDEST SWAP1 POP SWAP2 SWAP1 POP JUMP JUMPDEST PUSH32 0x43616E277420656E6420766F7465206E6F770000000000000000000000000000 PUSH0 DUP3 ADD MSTORE POP JUMP JUMPDEST PUSH0 PUSH2 0x3B81 PUSH1 0x12 DUP4 PUSH2 0x2D49 JUMP JUMPDEST SWAP2 POP PUSH2 0x3B8C DUP3 PUSH2 0x3B4D JUMP JUMPDEST PUSH1 0x20 DUP3 ADD SWAP1 POP SWAP2 SWAP1 POP JUMP JUMPDEST PUSH0 PUSH1 0x20 DUP3 ADD SWAP1 POP DUP2 DUP2 SUB PUSH0 DUP4 ADD MSTORE PUSH2 0x3BAE DUP2 PUSH2 0x3B75 JUMP JUMPDEST SWAP1 POP SWAP2 SWAP1 POP JUMP JUMPDEST PUSH32 0x566F746520697320616C726561647920656E6465640000000000000000000000 PUSH0 DUP3 ADD MSTORE POP JUMP JUMPDEST PUSH0 PUSH2 0x3BE9 PUSH1 0x15 DUP4 PUSH2 0x2D49 JUMP JUMPDEST SWAP2 POP PUSH2 0x3BF4 DUP3 PUSH2 0x3BB5 JUMP JUMPDEST PUSH1 0x20 DUP3 ADD SWAP1 POP SWAP2 SWAP1 POP JUMP JUMPDEST PUSH0 PUSH1 0x20 DUP3 ADD SWAP1 POP DUP2 DUP2 SUB PUSH0 DUP4 ADD MSTORE PUSH2 0x3C16 DUP2 PUSH2 0x3BDD JUMP JUMPDEST SWAP1 POP SWAP2 SWAP1 POP JUMP JUMPDEST PUSH0 DUP2 SWAP1 POP SWAP3 SWAP2 POP POP JUMP JUMPDEST PUSH0 PUSH2 0x3C31 DUP3 PUSH2 0x2D3F JUMP JUMPDEST PUSH2 0x3C3B DUP2 DUP6 PUSH2 0x3C1D JUMP JUMPDEST SWAP4 POP PUSH2 0x3C4B DUP2 DUP6 PUSH1 0x20 DUP7 ADD PUSH2 0x2D59 JUMP JUMPDEST DUP1 DUP5 ADD SWAP2 POP POP SWAP3 SWAP2 POP POP JUMP JUMPDEST PUSH0 PUSH2 0x3C62 DUP3 DUP6 PUSH2 0x3C27 JUMP JUMPDEST SWAP2 POP PUSH2 0x3C6E DUP3 DUP5 PUSH2 0x3C27 JUMP JUMPDEST SWAP2 POP DUP2 SWAP1 POP SWAP4 SWAP3 POP POP POP JUMP JUMPDEST PUSH32 0x566F746520656E64656400000000000000000000000000000000000000000000 PUSH0 DUP3 ADD MSTORE POP JUMP JUMPDEST PUSH0 PUSH2 0x3CAE PUSH1 0xA DUP4 PUSH2 0x2D49 JUMP JUMPDEST SWAP2 POP PUSH2 0x3CB9 DUP3 PUSH2 0x3C7A JUMP JUMPDEST PUSH1 0x20 DUP3 ADD SWAP1 POP SWAP2 SWAP1 POP JUMP JUMPDEST PUSH0 PUSH1 0x20 DUP3 ADD SWAP1 POP DUP2 DUP2 SUB PUSH0 DUP4 ADD MSTORE PUSH2 0x3CDB DUP2 PUSH2 0x3CA2 JUMP JUMPDEST SWAP1 POP SWAP2 SWAP1 POP JUMP JUMPDEST PUSH32 0x416C726561647920766F74656400000000000000000000000000000000000000 PUSH0 DUP3 ADD MSTORE POP JUMP JUMPDEST PUSH0 PUSH2 0x3D16 PUSH1 0xD DUP4 PUSH2 0x2D49 JUMP JUMPDEST SWAP2 POP PUSH2 0x3D21 DUP3 PUSH2 0x3CE2 JUMP JUMPDEST PUSH1 0x20 DUP3 ADD SWAP1 POP SWAP2 SWAP1 POP JUMP JUMPDEST PUSH0 PUSH1 0x20 DUP3 ADD SWAP1 POP DUP2 DUP2 SUB PUSH0 DUP4 ADD MSTORE PUSH2 0x3D43 DUP2 PUSH2 0x3D0A JUMP JUMPDEST SWAP1 POP SWAP2 SWAP1 POP JUMP JUMPDEST PUSH32 0x4E6F20766F74696E6720706F7765720000000000000000000000000000000000 PUSH0 DUP3 ADD MSTORE POP JUMP JUMPDEST PUSH0 PUSH2 0x3D7E PUSH1 0xF DUP4 PUSH2 0x2D49 JUMP JUMPDEST SWAP2 POP PUSH2 0x3D89 DUP3 PUSH2 0x3D4A JUMP JUMPDEST PUSH1 0x20 DUP3 ADD SWAP1 POP SWAP2 SWAP1 POP JUMP JUMPDEST PUSH0 PUSH1 0x20 DUP3 ADD SWAP1 POP DUP2 DUP2 SUB PUSH0 DUP4 ADD MSTORE PUSH2 0x3DAB DUP2 PUSH2 0x3D72 JUMP JUMPDEST SWAP1 POP SWAP2 SWAP1 POP JUMP JUMPDEST PUSH0 PUSH1 0x40 DUP3 ADD SWAP1 POP PUSH2 0x3DC5 PUSH0 DUP4 ADD DUP6 PUSH2 0x2B3C JUMP JUMPDEST PUSH2 0x3DD2 PUSH1 0x20 DUP4 ADD DUP5 PUSH2 0x2FAC JUMP JUMPDEST SWAP4 SWAP3 POP POP POP JUMP JUMPDEST PUSH0 PUSH2 0x3DE3 DUP3 PUSH2 0x2CA0 JUMP JUMPDEST SWAP2 POP PUSH2 0x3DEE DUP4 PUSH2 0x2CA0 JUMP JUMPDEST SWAP3 POP DUP3 DUP3 MUL PUSH2 0x3DFC DUP2 PUSH2 0x2CA0 JUMP JUMPDEST SWAP2 POP DUP3 DUP3 DIV DUP5 EQ DUP4 ISZERO OR PUSH2 0x3E13 JUMPI PUSH2 0x3E12 PUSH2 0x35B4 JUMP JUMPDEST JUMPDEST POP SWAP3 SWAP2 POP POP JUMP JUMPDEST PUSH0 DUP2 MLOAD SWAP1 POP SWAP2 SWAP1 POP JUMP JUMPDEST PUSH0 DUP3 DUP3 MSTORE PUSH1 0x20 DUP3 ADD SWAP1 POP SWAP3 SWAP2 POP POP JUMP JUMPDEST PUSH0 PUSH2 0x3E3E DUP3 PUSH2 0x3E1A JUMP JUMPDEST PUSH2 0x3E48 DUP2 DUP6 PUSH2 0x3E24 JUMP JUMPDEST SWAP4 POP PUSH2 0x3E58 DUP2 DUP6 PUSH1 0x20 DUP7 ADD PUSH2 0x2D59 JUMP JUMPDEST PUSH2 0x3E61 DUP2 PUSH2 0x2B6C JUMP JUMPDEST DUP5 ADD SWAP2 POP POP SWAP3 SWAP2 POP POP JUMP JUMPDEST PUSH0 PUSH1 0x80 DUP3 ADD SWAP1 POP PUSH2 0x3E7F PUSH0 DUP4 ADD DUP8 PUSH2 0x2E1A JUMP JUMPDEST PUSH2 0x3E8C PUSH1 0x20 DUP4 ADD DUP7 PUSH2 0x2E1A JUMP JUMPDEST PUSH2 0x3E99 PUSH1 0x40 DUP4 ADD DUP6 PUSH2 0x2FAC JUMP JUMPDEST DUP2 DUP2 SUB PUSH1 0x60 DUP4 ADD MSTORE PUSH2 0x3EAB DUP2 DUP5 PUSH2 0x3E34 JUMP JUMPDEST SWAP1 POP SWAP6 SWAP5 POP POP POP POP POP JUMP JUMPDEST PUSH0 DUP2 MLOAD SWAP1 POP PUSH2 0x3EC4 DUP2 PUSH2 0x2ADC JUMP JUMPDEST SWAP3 SWAP2 POP POP JUMP JUMPDEST PUSH0 PUSH1 0x20 DUP3 DUP5 SUB SLT ISZERO PUSH2 0x3EDF JUMPI PUSH2 0x3EDE PUSH2 0x2AA9 JUMP JUMPDEST JUMPDEST PUSH0 PUSH2 0x3EEC DUP5 DUP3 DUP6 ADD PUSH2 0x3EB6 JUMP JUMPDEST SWAP2 POP POP SWAP3 SWAP2 POP POP JUMP JUMPDEST PUSH32 0x646174613A6170706C69636174696F6E2F6A736F6E3B757466382C0000000000 PUSH0 DUP3 ADD MSTORE POP JUMP JUMPDEST PUSH0 PUSH2 0x3F29 PUSH1 0x1B DUP4 PUSH2 0x3C1D JUMP JUMPDEST SWAP2 POP PUSH2 0x3F34 DUP3 PUSH2 0x3EF5 JUMP JUMPDEST PUSH1 0x1B DUP3 ADD SWAP1 POP SWAP2 SWAP1 POP JUMP JUMPDEST PUSH32 0x7B226E616D65223A225665676120566F746520526573756C7420230000000000 PUSH0 DUP3 ADD MSTORE POP JUMP JUMPDEST PUSH0 PUSH2 0x3F73 PUSH1 0x1B DUP4 PUSH2 0x3C1D JUMP JUMPDEST SWAP2 POP PUSH2 0x3F7E DUP3 PUSH2 0x3F3F JUMP JUMPDEST PUSH1 0x1B DUP3 ADD SWAP1 POP SWAP2 SWAP1 POP JUMP JUMPDEST PUSH0 DUP2 SWAP1 POP SWAP2 SWAP1 POP JUMP JUMPDEST PUSH2 0x3FA3 PUSH2 0x3F9E DUP3 PUSH2 0x2CA0 JUMP JUMPDEST PUSH2 0x3F89 JUMP JUMPDEST DUP3 MSTORE POP POP JUMP JUMPDEST PUSH32 0x222C000000000000000000000000000000000000000000000000000000000000 PUSH0 DUP3 ADD MSTORE POP JUMP JUMPDEST PUSH0 PUSH2 0x3FDD PUSH1 0x2 DUP4 PUSH2 0x3C1D JUMP JUMPDEST SWAP2 POP PUSH2 0x3FE8 DUP3 PUSH2 0x3FA9 JUMP JUMPDEST PUSH1 0x2 DUP3 ADD SWAP1 POP SWAP2 SWAP1 POP JUMP JUMPDEST PUSH32 0x226465736372697074696F6E223A220000000000000000000000000000000000 PUSH0 DUP3 ADD MSTORE POP JUMP JUMPDEST PUSH0 PUSH2 0x4027 PUSH1 0xF DUP4 PUSH2 0x3C1D JUMP JUMPDEST SWAP2 POP PUSH2 0x4032 DUP3 PUSH2 0x3FF3 JUMP JUMPDEST PUSH1 0xF DUP3 ADD SWAP1 POP SWAP2 SWAP1 POP JUMP JUMPDEST PUSH0 DUP2 SLOAD PUSH2 0x4049 DUP2 PUSH2 0x32E5 JUMP JUMPDEST PUSH2 0x4053 DUP2 DUP7 PUSH2 0x3C1D JUMP JUMPDEST SWAP5 POP PUSH1 0x1 DUP3 AND PUSH0 DUP2 EQ PUSH2 0x406D JUMPI PUSH1 0x1 DUP2 EQ PUSH2 0x4082 JUMPI PUSH2 0x40B4 JUMP JUMPDEST PUSH1 0xFF NOT DUP4 AND DUP7 MSTORE DUP2 ISZERO ISZERO DUP3 MUL DUP7 ADD SWAP4 POP PUSH2 0x40B4 JUMP JUMPDEST PUSH2 0x408B DUP6 PUSH2 0x3315 JUMP JUMPDEST PUSH0 JUMPDEST DUP4 DUP2 LT ISZERO PUSH2 0x40AC JUMPI DUP2 SLOAD DUP2 DUP10 ADD MSTORE PUSH1 0x1 DUP3 ADD SWAP2 POP PUSH1 0x20 DUP2 ADD SWAP1 POP PUSH2 0x408D JUMP JUMPDEST DUP4 DUP9 ADD SWAP6 POP POP POP JUMPDEST POP POP POP SWAP3 SWAP2 POP POP JUMP JUMPDEST PUSH32 0x22726573756C74223A2200000000000000000000000000000000000000000000 PUSH0 DUP3 ADD MSTORE POP JUMP JUMPDEST PUSH0 PUSH2 0x40F1 PUSH1 0xA DUP4 PUSH2 0x3C1D JUMP JUMPDEST SWAP2 POP PUSH2 0x40FC DUP3 PUSH2 0x40BD JUMP JUMPDEST PUSH1 0xA DUP3 ADD SWAP1 POP SWAP2 SWAP1 POP JUMP JUMPDEST PUSH32 0x22796573566F746573223A000000000000000000000000000000000000000000 PUSH0 DUP3 ADD MSTORE POP JUMP JUMPDEST PUSH0 PUSH2 0x413B PUSH1 0xB DUP4 PUSH2 0x3C1D JUMP JUMPDEST SWAP2 POP PUSH2 0x4146 DUP3 PUSH2 0x4107 JUMP JUMPDEST PUSH1 0xB DUP3 ADD SWAP1 POP SWAP2 SWAP1 POP JUMP JUMPDEST PUSH32 0x2C00000000000000000000000000000000000000000000000000000000000000 PUSH0 DUP3 ADD MSTORE POP JUMP JUMPDEST PUSH0 PUSH2 0x4185 PUSH1 0x1 DUP4 PUSH2 0x3C1D JUMP JUMPDEST SWAP2 POP PUSH2 0x4190 DUP3 PUSH2 0x4151 JUMP JUMPDEST PUSH1 0x1 DUP3 ADD SWAP1 POP SWAP2 SWAP1 POP JUMP JUMPDEST PUSH32 0x226E6F566F746573223A00000000000000000000000000000000000000000000 PUSH0 DUP3 ADD MSTORE POP JUMP JUMPDEST PUSH0 PUSH2 0x41CF PUSH1 0xA DUP4 PUSH2 0x3C1D JUMP JUMPDEST SWAP2 POP PUSH2 0x41DA DUP3 PUSH2 0x419B JUMP JUMPDEST PUSH1 0xA DUP3 ADD SWAP1 POP SWAP2 SWAP1 POP JUMP JUMPDEST PUSH32 0x227468726573686F6C64223A0000000000000000000000000000000000000000 PUSH0 DUP3 ADD MSTORE POP JUMP JUMPDEST PUSH0 PUSH2 0x4219 PUSH1 0xC DUP4 PUSH2 0x3C1D JUMP JUMPDEST SWAP2 POP PUSH2 0x4224 DUP3 PUSH2 0x41E5 JUMP JUMPDEST PUSH1 0xC DUP3 ADD SWAP1 POP SWAP2 SWAP1 POP JUMP JUMPDEST PUSH32 0x7D00000000000000000000000000000000000000000000000000000000000000 PUSH0 DUP3 ADD MSTORE POP JUMP JUMPDEST PUSH0 PUSH2 0x4263 PUSH1 0x1 DUP4 PUSH2 0x3C1D JUMP JUMPDEST SWAP2 POP PUSH2 0x426E DUP3 PUSH2 0x422F JUMP JUMPDEST PUSH1 0x1 DUP3 ADD SWAP1 POP SWAP2 SWAP1 POP JUMP JUMPDEST PUSH0 PUSH2 0x4283 DUP3 PUSH2 0x3F1D JUMP JUMPDEST SWAP2 POP PUSH2 0x428E DUP3 PUSH2 0x3F67 JUMP JUMPDEST SWAP2 POP PUSH2 0x429A DUP3 DUP10 PUSH2 0x3F92 JUMP JUMPDEST PUSH1 0x20 DUP3 ADD SWAP2 POP PUSH2 0x42A9 DUP3 PUSH2 0x3FD1 JUMP JUMPDEST SWAP2 POP PUSH2 0x42B4 DUP3 PUSH2 0x401B JUMP JUMPDEST SWAP2 POP PUSH2 0x42C0 DUP3 DUP9 PUSH2 0x403D JUMP JUMPDEST SWAP2 POP PUSH2 0x42CB DUP3 PUSH2 0x3FD1 JUMP JUMPDEST SWAP2 POP PUSH2 0x42D6 DUP3 PUSH2 0x40E5 JUMP JUMPDEST SWAP2 POP PUSH2 0x42E2 DUP3 DUP8 PUSH2 0x3C27 JUMP JUMPDEST SWAP2 POP PUSH2 0x42ED DUP3 PUSH2 0x3FD1 JUMP JUMPDEST SWAP2 POP PUSH2 0x42F8 DUP3 PUSH2 0x412F JUMP JUMPDEST SWAP2 POP PUSH2 0x4304 DUP3 DUP7 PUSH2 0x3F92 JUMP JUMPDEST PUSH1 0x20 DUP3 ADD SWAP2 POP PUSH2 0x4313 DUP3 PUSH2 0x4179 JUMP JUMPDEST SWAP2 POP PUSH2 0x431E DUP3 PUSH2 0x41C3 JUMP JUMPDEST SWAP2 POP PUSH2 0x432A DUP3 DUP6 PUSH2 0x3F92 JUMP JUMPDEST PUSH1 0x20 DUP3 ADD SWAP2 POP PUSH2 0x4339 DUP3 PUSH2 0x4179 JUMP JUMPDEST SWAP2 POP PUSH2 0x4344 DUP3 PUSH2 0x420D JUMP JUMPDEST SWAP2 POP PUSH2 0x4350 DUP3 DUP5 PUSH2 0x3F92 JUMP JUMPDEST PUSH1 0x20 DUP3 ADD SWAP2 POP PUSH2 0x435F DUP3 PUSH2 0x4257 JUMP JUMPDEST SWAP2 POP DUP2 SWAP1 POP SWAP8 SWAP7 POP POP POP POP POP POP POP JUMP JUMPDEST PUSH32 0x4E487B7100000000000000000000000000000000000000000000000000000000 PUSH0 MSTORE PUSH1 0x12 PUSH1 0x4 MSTORE PUSH1 0x24 PUSH0 REVERT INVALID LOG2 PUSH5 0x6970667358 0x22 SLT KECCAK256 0xB8 SWAP7 DUP11 0xB0 0xAC 0xED JUMPDEST 0xB9 0xE1 SWAP3 0xBA ISZERO 0xC9 SELFDESTRUCT STATICCALL PUSH11 0xEBAF51B72A5659D63C4BFE 0xCA 0xB9 PUSH7 0xFBB964736F6C63 NUMBER STOP ADDMOD BYTE STOP CALLER "
		},
		"gasEstimates": {
			"creation": {
				"codeDepositCost": "3472400",
				"executionCost": "infinite",
				"totalCost": "infinite"
			},
			"external": {
				"approve(address,uint256)": "infinite",
				"balanceOf(address)": "infinite",
				"createVote(string,uint256,uint256)": "infinite",
				"finalizeVote(uint256)": "infinite",
				"getApproved(uint256)": "infinite",
				"hasVoted(address,uint256)": "3161",
				"isApprovedForAll(address,address)": "infinite",
				"name()": "infinite",
				"nextNftId()": "2492",
				"nextVoteId()": "2491",
				"owner()": "2560",
				"ownerOf(uint256)": "infinite",
				"renounceOwnership()": "infinite",
				"safeTransferFrom(address,address,uint256)": "infinite",
				"safeTransferFrom(address,address,uint256,bytes)": "infinite",
				"setApprovalForAll(address,bool)": "infinite",
				"stakeTokens(uint256,uint256)": "infinite",
				"stakes(address,uint256)": "infinite",
				"supportsInterface(bytes4)": "881",
				"symbol()": "infinite",
				"tokenURI(uint256)": "infinite",
				"transferFrom(address,address,uint256)": "infinite",
				"transferOwnership(address)": "infinite",
				"unstakeTokens(uint256)": "infinite",
				"vegaVoteToken()": "infinite",
				"vote(uint256,bool)": "infinite",
				"votes(uint256)": "infinite"
			},
			"internal": {
				"_mintNFT(string memory)": "infinite",
				"generateMetadataURI(uint256,bool)": "infinite"
			}
		},
		"methodIdentifiers": {
			"approve(address,uint256)": "095ea7b3",
			"balanceOf(address)": "70a08231",
			"createVote(string,uint256,uint256)": "029fc3e8",
			"finalizeVote(uint256)": "c1fa3b2e",
			"getApproved(uint256)": "081812fc",
			"hasVoted(address,uint256)": "42545825",
			"isApprovedForAll(address,address)": "e985e9c5",
			"name()": "06fdde03",
			"nextNftId()": "93f1da4f",
			"nextVoteId()": "e207d04d",
			"owner()": "8da5cb5b",
			"ownerOf(uint256)": "6352211e",
			"renounceOwnership()": "715018a6",
			"safeTransferFrom(address,address,uint256)": "42842e0e",
			"safeTransferFrom(address,address,uint256,bytes)": "b88d4fde",
			"setApprovalForAll(address,bool)": "a22cb465",
			"stakeTokens(uint256,uint256)": "3b7b6188",
			"stakes(address,uint256)": "584b62a1",
			"supportsInterface(bytes4)": "01ffc9a7",
			"symbol()": "95d89b41",
			"tokenURI(uint256)": "c87b56dd",
			"transferFrom(address,address,uint256)": "23b872dd",
			"transferOwnership(address)": "f2fde38b",
			"unstakeTokens(uint256)": "608e4dd0",
			"vegaVoteToken()": "41ee31ff",
			"vote(uint256,bool)": "c9d27afe",
			"votes(uint256)": "5df81330"
		}
	},
	"abi": [
		{
			"inputs": [
				{
					"internalType": "address",
					"name": "vegaToken",
					"type": "address"
				}
			],
			"stateMutability": "nonpayable",
			"type": "constructor"
		},
		{
			"inputs": [
				{
					"internalType": "address",
					"name": "sender",
					"type": "address"
				},
				{
					"internalType": "uint256",
					"name": "tokenId",
					"type": "uint256"
				},
				{
					"internalType": "address",
					"name": "owner",
					"type": "address"
				}
			],
			"name": "ERC721IncorrectOwner",
			"type": "error"
		},
		{
			"inputs": [
				{
					"internalType": "address",
					"name": "operator",
					"type": "address"
				},
				{
					"internalType": "uint256",
					"name": "tokenId",
					"type": "uint256"
				}
			],
			"name": "ERC721InsufficientApproval",
			"type": "error"
		},
		{
			"inputs": [
				{
					"internalType": "address",
					"name": "approver",
					"type": "address"
				}
			],
			"name": "ERC721InvalidApprover",
			"type": "error"
		},
		{
			"inputs": [
				{
					"internalType": "address",
					"name": "operator",
					"type": "address"
				}
			],
			"name": "ERC721InvalidOperator",
			"type": "error"
		},
		{
			"inputs": [
				{
					"internalType": "address",
					"name": "owner",
					"type": "address"
				}
			],
			"name": "ERC721InvalidOwner",
			"type": "error"
		},
		{
			"inputs": [
				{
					"internalType": "address",
					"name": "receiver",
					"type": "address"
				}
			],
			"name": "ERC721InvalidReceiver",
			"type": "error"
		},
		{
			"inputs": [
				{
					"internalType": "address",
					"name": "sender",
					"type": "address"
				}
			],
			"name": "ERC721InvalidSender",
			"type": "error"
		},
		{
			"inputs": [
				{
					"internalType": "uint256",
					"name": "tokenId",
					"type": "uint256"
				}
			],
			"name": "ERC721NonexistentToken",
			"type": "error"
		},
		{
			"inputs": [
				{
					"internalType": "address",
					"name": "owner",
					"type": "address"
				}
			],
			"name": "OwnableInvalidOwner",
			"type": "error"
		},
		{
			"inputs": [
				{
					"internalType": "address",
					"name": "account",
					"type": "address"
				}
			],
			"name": "OwnableUnauthorizedAccount",
			"type": "error"
		},
		{
			"anonymous": false,
			"inputs": [
				{
					"indexed": true,
					"internalType": "address",
					"name": "owner",
					"type": "address"
				},
				{
					"indexed": true,
					"internalType": "address",
					"name": "approved",
					"type": "address"
				},
				{
					"indexed": true,
					"internalType": "uint256",
					"name": "tokenId",
					"type": "uint256"
				}
			],
			"name": "Approval",
			"type": "event"
		},
		{
			"anonymous": false,
			"inputs": [
				{
					"indexed": true,
					"internalType": "address",
					"name": "owner",
					"type": "address"
				},
				{
					"indexed": true,
					"internalType": "address",
					"name": "operator",
					"type": "address"
				},
				{
					"indexed": false,
					"internalType": "bool",
					"name": "approved",
					"type": "bool"
				}
			],
			"name": "ApprovalForAll",
			"type": "event"
		},
		{
			"anonymous": false,
			"inputs": [
				{
					"indexed": false,
					"internalType": "uint256",
					"name": "_fromTokenId",
					"type": "uint256"
				},
				{
					"indexed": false,
					"internalType": "uint256",
					"name": "_toTokenId",
					"type": "uint256"
				}
			],
			"name": "BatchMetadataUpdate",
			"type": "event"
		},
		{
			"anonymous": false,
			"inputs": [
				{
					"indexed": false,
					"internalType": "uint256",
					"name": "_tokenId",
					"type": "uint256"
				}
			],
			"name": "MetadataUpdate",
			"type": "event"
		},
		{
			"anonymous": false,
			"inputs": [
				{
					"indexed": true,
					"internalType": "uint256",
					"name": "nftId",
					"type": "uint256"
				},
				{
					"indexed": false,
					"internalType": "string",
					"name": "metadataURI",
					"type": "string"
				}
			],
			"name": "NFTMinted",
			"type": "event"
		},
		{
			"anonymous": false,
			"inputs": [
				{
					"indexed": true,
					"internalType": "address",
					"name": "previousOwner",
					"type": "address"
				},
				{
					"indexed": true,
					"internalType": "address",
					"name": "newOwner",
					"type": "address"
				}
			],
			"name": "OwnershipTransferred",
			"type": "event"
		},
		{
			"anonymous": false,
			"inputs": [
				{
					"indexed": true,
					"internalType": "address",
					"name": "user",
					"type": "address"
				},
				{
					"indexed": false,
					"internalType": "uint256",
					"name": "amount",
					"type": "uint256"
				}
			],
			"name": "TokensUnstaked",
			"type": "event"
		},
		{
			"anonymous": false,
			"inputs": [
				{
					"indexed": true,
					"internalType": "address",
					"name": "from",
					"type": "address"
				},
				{
					"indexed": true,
					"internalType": "address",
					"name": "to",
					"type": "address"
				},
				{
					"indexed": true,
					"internalType": "uint256",
					"name": "tokenId",
					"type": "uint256"
				}
			],
			"name": "Transfer",
			"type": "event"
		},
		{
			"anonymous": false,
			"inputs": [
				{
					"indexed": true,
					"internalType": "uint256",
					"name": "voteId",
					"type": "uint256"
				},
				{
					"indexed": false,
					"internalType": "string",
					"name": "description",
					"type": "string"
				},
				{
					"indexed": false,
					"internalType": "uint256",
					"name": "deadline",
					"type": "uint256"
				},
				{
					"indexed": false,
					"internalType": "uint256",
					"name": "threshold",
					"type": "uint256"
				}
			],
			"name": "VoteCreated",
			"type": "event"
		},
		{
			"anonymous": false,
			"inputs": [
				{
					"indexed": true,
					"internalType": "uint256",
					"name": "voteId",
					"type": "uint256"
				},
				{
					"indexed": false,
					"internalType": "bool",
					"name": "passed",
					"type": "bool"
				}
			],
			"name": "VoteFinalized",
			"type": "event"
		},
		{
			"anonymous": false,
			"inputs": [
				{
					"indexed": true,
					"internalType": "address",
					"name": "voter",
					"type": "address"
				},
				{
					"indexed": true,
					"internalType": "uint256",
					"name": "voteId",
					"type": "uint256"
				},
				{
					"indexed": false,
					"internalType": "bool",
					"name": "choice",
					"type": "bool"
				},
				{
					"indexed": false,
					"internalType": "uint256",
					"name": "power",
					"type": "uint256"
				}
			],
			"name": "Voted",
			"type": "event"
		},
		{
			"inputs": [
				{
					"internalType": "address",
					"name": "to",
					"type": "address"
				},
				{
					"internalType": "uint256",
					"name": "tokenId",
					"type": "uint256"
				}
			],
			"name": "approve",
			"outputs": [],
			"stateMutability": "nonpayable",
			"type": "function"
		},
		{
			"inputs": [
				{
					"internalType": "address",
					"name": "owner",
					"type": "address"
				}
			],
			"name": "balanceOf",
			"outputs": [
				{
					"internalType": "uint256",
					"name": "",
					"type": "uint256"
				}
			],
			"stateMutability": "view",
			"type": "function"
		},
		{
			"inputs": [
				{
					"internalType": "string",
					"name": "description",
					"type": "string"
				},
				{
					"internalType": "uint256",
					"name": "duration",
					"type": "uint256"
				},
				{
					"internalType": "uint256",
					"name": "threshold",
					"type": "uint256"
				}
			],
			"name": "createVote",
			"outputs": [],
			"stateMutability": "nonpayable",
			"type": "function"
		},
		{
			"inputs": [
				{
					"internalType": "uint256",
					"name": "voteId",
					"type": "uint256"
				}
			],
			"name": "finalizeVote",
			"outputs": [],
			"stateMutability": "nonpayable",
			"type": "function"
		},
		{
			"inputs": [
				{
					"internalType": "uint256",
					"name": "tokenId",
					"type": "uint256"
				}
			],
			"name": "getApproved",
			"outputs": [
				{
					"internalType": "address",
					"name": "",
					"type": "address"
				}
			],
			"stateMutability": "view",
			"type": "function"
		},
		{
			"inputs": [
				{
					"internalType": "address",
					"name": "",
					"type": "address"
				},
				{
					"internalType": "uint256",
					"name": "",
					"type": "uint256"
				}
			],
			"name": "hasVoted",
			"outputs": [
				{
					"internalType": "bool",
					"name": "",
					"type": "bool"
				}
			],
			"stateMutability": "view",
			"type": "function"
		},
		{
			"inputs": [
				{
					"internalType": "address",
					"name": "owner",
					"type": "address"
				},
				{
					"internalType": "address",
					"name": "operator",
					"type": "address"
				}
			],
			"name": "isApprovedForAll",
			"outputs": [
				{
					"internalType": "bool",
					"name": "",
					"type": "bool"
				}
			],
			"stateMutability": "view",
			"type": "function"
		},
		{
			"inputs": [],
			"name": "name",
			"outputs": [
				{
					"internalType": "string",
					"name": "",
					"type": "string"
				}
			],
			"stateMutability": "view",
			"type": "function"
		},
		{
			"inputs": [],
			"name": "nextNftId",
			"outputs": [
				{
					"internalType": "uint256",
					"name": "",
					"type": "uint256"
				}
			],
			"stateMutability": "view",
			"type": "function"
		},
		{
			"inputs": [],
			"name": "nextVoteId",
			"outputs": [
				{
					"internalType": "uint256",
					"name": "",
					"type": "uint256"
				}
			],
			"stateMutability": "view",
			"type": "function"
		},
		{
			"inputs": [],
			"name": "owner",
			"outputs": [
				{
					"internalType": "address",
					"name": "",
					"type": "address"
				}
			],
			"stateMutability": "view",
			"type": "function"
		},
		{
			"inputs": [
				{
					"internalType": "uint256",
					"name": "tokenId",
					"type": "uint256"
				}
			],
			"name": "ownerOf",
			"outputs": [
				{
					"internalType": "address",
					"name": "",
					"type": "address"
				}
			],
			"stateMutability": "view",
			"type": "function"
		},
		{
			"inputs": [],
			"name": "renounceOwnership",
			"outputs": [],
			"stateMutability": "nonpayable",
			"type": "function"
		},
		{
			"inputs": [
				{
					"internalType": "address",
					"name": "from",
					"type": "address"
				},
				{
					"internalType": "address",
					"name": "to",
					"type": "address"
				},
				{
					"internalType": "uint256",
					"name": "tokenId",
					"type": "uint256"
				}
			],
			"name": "safeTransferFrom",
			"outputs": [],
			"stateMutability": "nonpayable",
			"type": "function"
		},
		{
			"inputs": [
				{
					"internalType": "address",
					"name": "from",
					"type": "address"
				},
				{
					"internalType": "address",
					"name": "to",
					"type": "address"
				},
				{
					"internalType": "uint256",
					"name": "tokenId",
					"type": "uint256"
				},
				{
					"internalType": "bytes",
					"name": "data",
					"type": "bytes"
				}
			],
			"name": "safeTransferFrom",
			"outputs": [],
			"stateMutability": "nonpayable",
			"type": "function"
		},
		{
			"inputs": [
				{
					"internalType": "address",
					"name": "operator",
					"type": "address"
				},
				{
					"internalType": "bool",
					"name": "approved",
					"type": "bool"
				}
			],
			"name": "setApprovalForAll",
			"outputs": [],
			"stateMutability": "nonpayable",
			"type": "function"
		},
		{
			"inputs": [
				{
					"internalType": "uint256",
					"name": "amount",
					"type": "uint256"
				},
				{
					"internalType": "uint256",
					"name": "period",
					"type": "uint256"
				}
			],
			"name": "stakeTokens",
			"outputs": [],
			"stateMutability": "nonpayable",
			"type": "function"
		},
		{
			"inputs": [
				{
					"internalType": "address",
					"name": "",
					"type": "address"
				},
				{
					"internalType": "uint256",
					"name": "",
					"type": "uint256"
				}
			],
			"name": "stakes",
			"outputs": [
				{
					"internalType": "uint256",
					"name": "amount",
					"type": "uint256"
				},
				{
					"internalType": "uint256",
					"name": "period",
					"type": "uint256"
				},
				{
					"internalType": "uint256",
					"name": "votingPower",
					"type": "uint256"
				},
				{
					"internalType": "uint256",
					"name": "startTime",
					"type": "uint256"
				},
				{
					"internalType": "bool",
					"name": "active",
					"type": "bool"
				}
			],
			"stateMutability": "view",
			"type": "function"
		},
		{
			"inputs": [
				{
					"internalType": "bytes4",
					"name": "interfaceId",
					"type": "bytes4"
				}
			],
			"name": "supportsInterface",
			"outputs": [
				{
					"internalType": "bool",
					"name": "",
					"type": "bool"
				}
			],
			"stateMutability": "view",
			"type": "function"
		},
		{
			"inputs": [],
			"name": "symbol",
			"outputs": [
				{
					"internalType": "string",
					"name": "",
					"type": "string"
				}
			],
			"stateMutability": "view",
			"type": "function"
		},
		{
			"inputs": [
				{
					"internalType": "uint256",
					"name": "tokenId",
					"type": "uint256"
				}
			],
			"name": "tokenURI",
			"outputs": [
				{
					"internalType": "string",
					"name": "",
					"type": "string"
				}
			],
			"stateMutability": "view",
			"type": "function"
		},
		{
			"inputs": [
				{
					"internalType": "address",
					"name": "from",
					"type": "address"
				},
				{
					"internalType": "address",
					"name": "to",
					"type": "address"
				},
				{
					"internalType": "uint256",
					"name": "tokenId",
					"type": "uint256"
				}
			],
			"name": "transferFrom",
			"outputs": [],
			"stateMutability": "nonpayable",
			"type": "function"
		},
		{
			"inputs": [
				{
					"internalType": "address",
					"name": "newOwner",
					"type": "address"
				}
			],
			"name": "transferOwnership",
			"outputs": [],
			"stateMutability": "nonpayable",
			"type": "function"
		},
		{
			"inputs": [
				{
					"internalType": "uint256",
					"name": "stakeIndex",
					"type": "uint256"
				}
			],
			"name": "unstakeTokens",
			"outputs": [],
			"stateMutability": "nonpayable",
			"type": "function"
		},
		{
			"inputs": [],
			"name": "vegaVoteToken",
			"outputs": [
				{
					"internalType": "contract IERC20",
					"name": "",
					"type": "address"
				}
			],
			"stateMutability": "view",
			"type": "function"
		},
		{
			"inputs": [
				{
					"internalType": "uint256",
					"name": "voteId",
					"type": "uint256"
				},
				{
					"internalType": "bool",
					"name": "choice",
					"type": "bool"
				}
			],
			"name": "vote",
			"outputs": [],
			"stateMutability": "nonpayable",
			"type": "function"
		},
		{
			"inputs": [
				{
					"internalType": "uint256",
					"name": "",
					"type": "uint256"
				}
			],
			"name": "votes",
			"outputs": [
				{
					"internalType": "string",
					"name": "description",
					"type": "string"
				},
				{
					"internalType": "uint256",
					"name": "deadline",
					"type": "uint256"
				},
				{
					"internalType": "uint256",
					"name": "threshold",
					"type": "uint256"
				},
				{
					"internalType": "uint256",
					"name": "yesVotes",
					"type": "uint256"
				},
				{
					"internalType": "uint256",
					"name": "noVotes",
					"type": "uint256"
				},
				{
					"internalType": "bool",
					"name": "finalized",
					"type": "bool"
				}
			],
			"stateMutability": "view",
			"type": "function"
		}
	]
}